:020000040000FA
:100000000C9475010C94A6010C94A6010C94A60105
:100010000C94A6010C94A6010C94A6010C94A601C4
:100020000C94A6010C94A6010C94A6010C94A601B4
:100030000C94A6010C94A6010C94A6010C94A601A4
:100040000C94A6010C944B1D0C94A6010C94A601D3
:100050000C94A6010C94A6010C94A6010C94B71B59
:100060000C94A6010C948B1C0C94611C0C94A6019E
:100070000C94A6010C94A6010C94A6010C94A60164
:100080000C941D1D0C94A6010C94A6010C94A601C1
:100090000C942B1C0C94011C0C94A6010C94A6012E
:1000A0000C94A6010C94A6010C94EF1C0C94A601D0
:1000B0000C94A6010C94A6010C94A6010C94C11CEE
:1000C0000C94A6010C94A6010C94A6010C94A60114
:1000D0000C94A6010C94A6010C94A6010C94A60104
:1000E0000C94A6010C943C020C9456020C940E1B2A
:1000F0000C94E21A0C94D81A0C9489020C94EA0419
:100100000C9405120C945A020C9452020C9479042B
:100110000C9437020C94EE1A0C9471020C943A1B56
:100120000C942E1B0C94FA1A0C947F020C94631BF3
:100130000C9463020C9483020C94871B0C94221B76
:100140000C948D020C94B41B0C94791D0C94DC045B
:100150000C946D020C9475020C944C040C94061BC8
:100160000C94571B0C942C050C9401120C946702F0
:100170000C94DD1A0C9479050C9488040C946F1B74
:100180000C945D020C947B1B0C947B020C94161B4C
:100190000C944E020C944B1B0000210024002700FD
:1001A0002A002D0030003300010100000401070186
:1001B0000A0100002200250028002B002E0031003B
:1001C000340002010000050108010B0100000A0BC8
:1001D00002090C0D0E0807030401000000000000D6
:1001E000000000000000000000000000000000000F
:1001F00000000000000000001211100000000000CC
:1002000000000000000000000000000000000000EE
:100210000000000020002300260029002C002F00F1
:10022000320000010000030106010901CDCCCC3DE4
:100230000AD7233C17B7D13877CC2B329595E624D3
:100240001FB14F0A000020410000C84200401C4678
:1002500020BCBE4CCA1B0E5AAEC59D7405050505D3
:10026000070508080808020202020A0A080804042E
:10027000040401010101010101010303030303035C
:100280000303040707070C0C0C0C0C0C0C0C0202EB
:10029000020206060606060606060B0B0B0B0B0BE8
:1002A0000B0B010210202008081020401020408075
:1002B000020102010804020101020408102040802A
:1002C00080402010080402018004020180402010B8
:1002D0000804020108040201010204081020408001
:1002E0000102040810204080791D11241FBECFEFA9
:1002F000D1E2DEBFCDBF00E00CBF13E0A0E0B2E072
:10030000E2E9F8E400E00BBF02C007900D92AC37C1
:10031000B107D9F725E0ACE7B3E001C01D92AE36D6
:10032000B207E1F711E0C5E7D1E000E006C0219790
:100330000109802FFE010E942222C437D10780E0EC
:100340000807A9F70E942E1E0C9447240C94000065
:10035000FC01A089B18982E08C93A485B5851C92AB
:10036000A685B7858FEC8C93108EA489B58986E01D
:100370008C93A289B3898C9180618C93A289B38973
:100380008C9188608C93A289B3898C9180688C93BE
:100390000288F389E02D80818F7D80830895CF923C
:1003A000DF92EF92FF92CF93DF93B0915B05A0E0D5
:1003B0008111AB2F80915C0590E0880F991FAC01F3
:1003C0004E5E5D4FC0906105D0906205E090630580
:1003D000F090640530E020E0FA01C591D491E88105
:1003E000B90190E080E0EB23EA130AC02F5F3F4F92
:1003F0006C157D058E059F0578F36FEF7FEFCB01C0
:10040000DF91CF91FF90EF90DF90CF900895282F4C
:1004100030E0F901E453FE4F9491F901EE55FD4FA0
:100420004491245A3D4FF9012491222309F435C007
:10043000992311F191509231F8F4E92FF0E08827D7
:10044000EB5DFD4F8F4F0C94222256025A02370269
:100450004E0252023C025D02630267026D027102AB
:1004600075027B027F023C02830289028D02809129
:1004700080008F7780938000E22FF0E0EE0FFF1F67
:10048000EE54FE4FA591B4918FB7F894EC916111A1
:1004900048C040954E234C938FBF089580918000B3
:1004A0008F7DE8CF80918000877FE4CF84B58F7700
:1004B00084BDE2CF84B58F7DFBCF8091B0008F7774
:1004C0008093B000D9CF8091B0008F7DF9CF80911B
:1004D00090008F7780939000CFCF809190008F7D98
:1004E000F9CF80919000877FF5CF8091A0008F7722
:1004F0008093A000C1CF8091A0008F7DF9CF809123
:10050000A000877FF5CF809120018F778093200115
:10051000B3CF809120018F7DF9CF80912001877F1B
:10052000F5CF4E2BB8CFCF93DF9390E0FC01EE5583
:10053000FD4F2491845A9D4FFC0184918823C9F07A
:1005400090E0880F991FFC01E856FE4FA591B491E9
:10055000FC01EE54FE4FC591D49161110DC09FB7BF
:10056000F8948C91209582238C938881282328836A
:100570009FBFDF91CF910895623051F49FB7F894F7
:100580003C91822F809583238C93E8812E2BEFCF93
:100590008FB7F894EC912E2B2C938FBFEACF9091CC
:1005A0007B00977F90937B008653806480937C00D0
:1005B00080917A00806480937A0080917A0086FD31
:1005C000FCCF809178009091790008953FB7F8941E
:1005D0008091810390918203A0918303B091840361
:1005E00026B5A89B05C02F3F19F00196A11DB11D8E
:1005F0003FBFBA2FA92F982F8827BC01CD01620FCA
:10060000711D811D911D42E0660F771F881F991F84
:100610004A95D1F708958F929F92AF92BF92CF9251
:10062000DF92EF92FF924B015C010E94E6026B01A8
:100630007C010E94E6026C197D098E099F09683EC3
:10064000734081059105A8F321E0821A9108A10861
:10065000B10888EEC80E83E0D81EE11CF11C81149D
:100660009104A104B10429F7FF90EF90DF90CF909F
:10067000BF90AF909F908F900895CF92DF92EF92AE
:10068000FF920F931F93CF93DF93CDB7DEB7C05484
:10069000D1400FB6F894DEBF0FBECDBF2FB7F89490
:1006A0008091850390918603A0918703B091880380
:1006B0002FBF40915D0550915E0560915F0570917F
:1006C00060058C019D01041B150B260B370BB9012E
:1006D000A801403D57406105710590F48091650582
:1006E000C05CDE4F0FB6F894DEBF0FBECDBFDF910A
:1006F000CF911F910F91FF90EF90DF90CF900895D1
:1007000080935D0590935E05A0935F05B0936005AF
:1007100010925805109257051092560510925505E3
:100720001092540562E0809159050E94930261E0A5
:1007300070E080E090E00E940B0361E08091590539
:100740000E94930260E0809159050E940702809107
:100750005A058551823020F58BE291E10197F1F73E
:1007600062E0809159050E9493028091660590E0B5
:100770008230910538F0880F991F880F991F0597CF
:100780000197F1F7F89480E00E94CF016F3F7F4F0F
:100790008F4F9F4F61F410926505789480E0A0CF51
:1007A00064E170E080E090E00E940B03D9CF81E02B
:1007B0000E94CF016F3F7F4F8F4F9F4F61F38E019C
:1007C0000F5F1F4F6E018FEBC81A8EEFD80A7801AA
:1007D00080E00E94CF01F70160837183828393835D
:1007E00081E00E94CF01F70164837583868397833C
:1007F000F8E0EF0EF11CEC14FD0451F7789430E0B2
:1008000020E0F801C080D180E280F38044815581EE
:1008100066817781FFEFCF16DF06EF06FF0631F026
:100820004F3F8FEF58076807780719F41092650556
:10083000B5CFF90183E0F595E7958A95E1F7EC5A94
:10084000FA4F8081880FC416D506E606F70610F128
:1008500080832F5F3F4F085F1F4F2832310589F695
:10086000409158052091540580915505280F332754
:10087000331F80915605280F311D80915705820F37
:10088000932F911D99274817190681F681E08093CF
:10089000650526CF8160DCCFAF92BF92CF92DF9209
:1008A000EF92FF920F931F93CF93DF936C017B0125
:1008B0008B01040F151FEB015E01AE18BF08C017B6
:1008C000D10759F06991D601ED91FC910190F08129
:1008D000E02DC6011995892B79F7C501DF91CF91DC
:1008E0001F910F91FF90EF90DF90CF90BF90AF904E
:1008F0000895FC01538D448D252F30E0842F90E026
:10090000821B930B541710F0CF960895019708950A
:10091000FC01918D828D981761F0A28DAE0FBF2FD3
:10092000B11D5D968C91928D9F5F9F73928F90E029
:1009300008958FEF9FEF08952FB7F8948091850366
:1009400090918603A0918703B09188032FBF809375
:10095000910390939203A0939303B093940389E837
:1009600093E00E94880497FF26C02FB7F8948091E7
:10097000850390918603A0918703B09188032FBFD0
:10098000409191035091920360919303709194036D
:10099000841B950BA60BB70B40918D0350918E03D2
:1009A00060918F037091900384179507A607B7078E
:1009B000B0F28FEF9FEF0895FC01918D828D981713
:1009C00031F0828DE80FF11D858D90E008958FEF55
:1009D0009FEF0895FC01918D228D892F90E0805C1E
:1009E0009F4F821B91098F739927089589E893E09F
:1009F0000E94EA0421E0892B09F420E0822F089567
:100A000086E294E00E94EA0421E0892B09F420E0C8
:100A1000822F0895FC01A48DA80FB92FB11DA35AF0
:100A2000BF4F2C91848D90E001968F739927848F0E
:100A3000A689B7892C93A089B1898C918370806431
:100A40008C93938D848D981306C00288F389E02DD2
:100A500080818F7D80830895EF92FF920F931F9383
:100A6000CF93DF93EC0181E0888F9B8D8C8D981361
:100A70001AC0E889F989808185FF15C09FB7F8946D
:100A8000EE89FF896083E889F989808183708064B9
:100A900080839FBF81E090E0DF91CF911F910F9104
:100AA000FF90EF900895F62E0B8D10E00F5F1F4F13
:100AB0000F731127E02E8C8D8E110CC00FB607FC22
:100AC000FACFE889F989808185FFF5CFCE010E94B0
:100AD0000A05F1CFEB8DEC0FFD2FF11DE35AFF4F0F
:100AE000F0829FB7F8940B8FEA89FB89808180623E
:100AF000CFCFCF93DF93EC01888D8823B9F0AA89FB
:100B0000BB89E889F9898C9185FD03C0808186FDC8
:100B10000DC00FB607FCF7CF8C9185FFF2CF808117
:100B200085FFEDCFCE010E940A05E9CFDF91CF917D
:100B3000089580E090E0892B29F00E940005811142
:100B40000E94000080E090E0892B29F00E94F604CA
:100B500081110E94000080E090E0892B49F080E044
:100B600090E0892B29F00E94000081110E94000072
:100B700080E090E0892B49F080E090E0892B29F01B
:100B80000E94000081110C9400000895AF92BF9262
:100B9000CF92DF92EF92FF920F931F93CF93DF9349
:100BA0006B017A01EC01C458DC4F28813CE0389F8E
:100BB0008001399F100D1124A0905305B12C27FFFF
:100BC0001FC0FB011182108288818F5F888388811A
:100BD0009801280F311D87FD3A95F6012A153B052E
:100BE0001CF488818C30C4F180819181049680341A
:100BF0009C4908F473C0F60180819181049670C00D
:100C000088819801280F311D87FD3A952A153B05EB
:100C1000DCF68881A801480F511D87FD5A95FA011D
:100C2000EE0FFF1FE40FF51FED53FB4F808186FF92
:100C3000CBCF8881F801E80FF11D87FDFA95CF0130
:100C4000EE0FFF1FE80FF91FED53FB4F808160E0AF
:100C50008F730E940702B8CF808191812881A801FB
:100C6000420F511D27FD5A959A01FA01EE0FFF1F01
:100C7000E20FF31FED53FB4F21813281820F931F4F
:100C8000F7019183808388819801280F311D87FDAA
:100C90003A95F901EE0FFF1FE20FF31FED53FB4FE3
:100CA000808186FF22C08881080F111D87FD1A955B
:100CB000F801EE0FFF1FE00FF11FED53FB4F808196
:100CC00061E08F73DF91CF911F910F91FF90EF90B3
:100CD000DF90CF90BF90AF900C94070280E49CE926
:100CE000F701918380838FEF8883DF91CF911F91EC
:100CF0000F91FF90EF90DF90CF90BF90AF9008954D
:100D00006F3FA9F0E62FE295EF7044E0E49F900179
:100D10001124DC01ED91FC91E20FF31F6F708281D1
:100D20009381B6E06B9F800D911D1124089590E092
:100D300080E00895982F80336CF08A3324F08F354B
:100D400024F08B3724F481E0089581341CF081E095
:100D50009B350CF080E00895FC018485811114C05E
:100D6000A781B085818592852FEF3FEFA817B9073E
:100D700030F4CD010196908787832C9130E037FDC8
:100D800020E0238781E08487838508951F93CF9394
:100D9000DF93EC01162F0E94AC06811306C01C865F
:100DA00081E0DF91CF911F91089580E0FACF0F93FA
:100DB0001F93CF93DF938C01EB018991882369F016
:100DC000C8010E94AC06882379F0FE01319790811A
:100DD00098130DC0F8011486F0CF90E080E0DF9109
:100DE000CF911F910F91089582E090E0F8CF83E0BA
:100DF00090E0F5CFCF93DF93EC01CE010E94AC06DB
:100E00008B304CF489305CF4882359F081E08E8378
:100E100090E080E00BC08D3011F08032B9F71C8675
:100E2000ECCF8E81811105C081E090E0DF91CF9100
:100E3000089582E090E0FACFFC01A281B381808125
:100E4000918130E020E0A817B90738F4CD01019670
:100E5000938382836C9321E030E084819581820FBB
:100E6000931F958384830895CF93DF93FC01828140
:100E70009381EB01460F571FA281B38120813181FD
:100E8000A217B30758F4C417D50741F02991BD0143
:100E90006F5F7F4F738362832C93EECFA81BB90BD8
:100EA00084819581A80FB91FB583A483DF91CF9169
:100EB00008958F929F92AF92BF92CF92DF92EF925E
:100EC000FF920F931F93CF93DF93CDB7DEB7669753
:100ED0000FB6F894DEBF0FBECDBF6C018E01095E68
:100EE0001F4F78018AE0882E912CA12CB12CCB01C8
:100EF000BA01A50194010E94B220942F852F605D54
:100F0000F80162938F01A901692F782F41155105CE
:100F10006105710561F7A7014E1B5F0BBF01C6019B
:100F20000E94340766960FB6F894DEBF0FBECDBFA1
:100F3000DF91CF911F910F91FF90EF90DF90CF90B5
:100F4000BF90AF909F908F900895CF93DF93DB0178
:100F5000FC01808191810097E1F012962C9112970B
:100F600013964C911397342F3F77FC01438142171E
:100F7000130671F7ED91FC911197EC0124962E0F59
:100F80003F1FE217F30729F0519149915417C9F314
:100F9000DFCFDF91CF910895DC0152969C9152975B
:100FA000915084E0989F900111245096ED91FC910E
:100FB000E20FF31F228133812115310579F0418140
:100FC0008081481758F481E0840F818386E0489F30
:100FD000200D311D11242115310521F460E070E050
:100FE0008FEF0895B901892F8295807F840F08952E
:100FF000DF92EF92FF920F931F93CF93DF93EC0159
:101000007B01D12C688979898A89D816E0F484E03B
:10101000D89E80011124060F171FD80112966D91DA
:101020007C916115710541F0D701ED91FC91028031
:10103000F381E02DC7011995F80113821282108205
:101040001182D394DFCF1A8A8FEF8C8BC617D70704
:1010500061F0D701ED91FC910280F381E02DC70191
:101060001995D98BC88B84E08B8BDF91CF911F9121
:101070000F91FF90EF90DF9008954F925F926F92E3
:101080007F928F929F92AF92BF92CF92DF92EF9218
:10109000FF920F931F93CF93DF9300D01F921F9265
:1010A000CDB7DEB7DC012C912B32E1F12D32D9F531
:1010B0000196EE24E394FC01208130ED320F3A30AA
:1010C00010F02E3291F58C0160E070E0CB01F80158
:1010D000219130ED832E820E39E0381508F444C09A
:1010E0006A3949E97407840749E1940708F046C062
:1010F000AAE0B0E09B01AC010E949F20912CB12C92
:10110000A12C2401350140945094609470944616AB
:1011100057066806790690F1680D791D8A1D9B1D9A
:101120008F01D5CF0196E12CC6CF198229813A8152
:101130004B815C816D8170E080E090E00F900F90BA
:101140000F900F900F90DF91CF911F910F91FF9013
:10115000EF90DF90CF90BF90AF909F908F907F9057
:101160006F905F904F900895211108C0EE2051F1CB
:1011700061307105810550E89507A0F0F12CBAE0C7
:101180008B2E912CA12CB12C6115710530E88307B1
:101190009105F8F0A50194010E94B220CA01B9019D
:1011A000F394F2CF22E029839B01AC018827992791
:1011B000DC01821B930BA40BB50B8A839B83AC834E
:1011C000BD83B4CF23E029836A837B838C839D8393
:1011D000ADCFF801D8012D918D0130ED320F3A30AD
:1011E00010F4F394F6CF2E3201F58F010F5F1F4FED
:1011F000F8010F5F1F4F2081A0EDDA2ED20EB9E06B
:10120000BD1598F06C3CECEC7E07ECE08E07910588
:1012100078F7AAE0B0E09B01AC010E949F206D0D21
:10122000711D811D911DFA94E3CF20812F7D10E067
:1012300000E0253409F050C021812D32B1F53296FD
:10124000CC24C394DF0110E000E02F2D0F2C000C04
:10125000330B5AE0B52EFD01DD9040ED4D0D4A30C7
:10126000B0F5B09EA001B19E500D11240D2DDD0CE6
:10127000110B00531109040F151FA801420F531F32
:101280004732510544F3CC20B9F080E090E0A0E073
:10129000B0E8E11003C080E090E0DC0121E02983A8
:1012A0008A839B83AC83BD8341CF2B3219F0319667
:1012B000C12CC8CF3296FCCF80E090E0A0E8BFEF11
:1012C000E110ECCF80E090E0A0E8BFE7E7CFCC20D2
:1012D00019F01195019511092081211126CF0F0DCB
:1012E000111DF7FC1A950E94611F34E4C32E32E0F1
:1012F000D32E101611063CF01195019511094CE200
:10130000C42E42E0D42EF12C0115110591F000FFFE
:101310000CC024E0F29EF0011124EC0DFD1D25917E
:101320003591459154910E94C21F15950795F394EC
:10133000EBCFE110905821E029836A837B838C8373
:101340009D83F4CEDB01ED91FC9111970280F38136
:10135000E02DBC01CD011994AF92BF92CF92DF92E4
:10136000EF92FF920F931F93CF93DF93EC018B01CA
:101370008C8180FF24C0A881B981FB018381948185
:1013800030E020E00097D9F0A817B907D1F5F801AF
:101390006081718112968C911297815012968C9374
:1013A000129781110CC08D919C91119721153105D7
:1013B00029F1F90191838083CD010E94A2098C81DA
:1013C000807631F1209721F1F8805801F5E1AF0ED8
:1013D000B11C8FEFF816D1F06F2DC5010E94800669
:1013E0006C01FC01E580B8010E94AC09F801818D17
:1013F000F6018083F801F18EFE2CEBCF948383837A
:10140000DBCF9C01FC0180819181BCCFF882F98205
:101410001C82DF91CF911F910F91FF90EF90DF9091
:10142000CF90BF90AF9008950F931F93CF93DF930A
:10143000EC01088119818B819C81009749F0FC01A6
:10144000208131813C832B83B8010E94A209F3CF14
:1014500068817981CE010596DF91CF911F910F911F
:101460000C94F807EF92FF920F931F93CF93DF93A3
:101470007C018B01EA016F3F710509F0B0F4E8814E
:10148000F9810480F581E02DAB014B5F5F4FBC011A
:10149000CE011995009749F0FC010383DF91CF91AC
:1014A0001F910F91FF90EF900895E881F9810280DC
:1014B000F381E02DB701CE01199590E080E0EECFE9
:1014C000FF920F931F93CF93DF93EC01F62E8A8147
:1014D0009B810097C9F06C817D81FC0123812617D7
:1014E000170691F408811981F80140815181660F36
:1014F000771F6F5F7F4F0E94320A009719F421E037
:10150000F80122839B838A838A819B81009759F00B
:101510002C813D81A9014F5F5F4F5D834C83820F1A
:10152000931FFC01F482DF91CF911F910F91FF90E7
:1015300008959F92AF92BF92CF92DF92EF92FF9267
:101540000F931F93CF93DF9300D01F921F92CDB7BD
:10155000DEB78C010E94AC06D82EF8011486F12C5F
:10156000E12C60EFC62EC8010E94AC06F80114867B
:10157000D81609F4B3C0811113C082E090E00F9037
:101580000F900F900F900F90DF91CF911F910F91BF
:10159000FF90EF90DF90CF90BF90AF909F90089515
:1015A0008C3509F099C0C8010E94AC06882329F344
:1015B000E0E3F2E0853709F083C0F801148654E0D7
:1015C000952EB12CA12CC8010E94AC068823A9F24B
:1015D000813434F48053803130F083E090E0CFCF19
:1015E0008F7D8753F8CF44E0AA0CBB1C4A95E1F7E6
:1015F000A82AF80114869A949110E5CFC501985D48
:101600008115944020F47501F3E0FF22ACCFC501B1
:101610009C5D81159440A8F483E0B822B701762F31
:101620006627770F770F6A297B2990E080E0019683
:10163000603871058105910540F4C8010E94600A77
:1016400092CFB50190E080E0F3CF1982262F2F735F
:1016500020682A8326E096958795779567952A9541
:10166000D1F76032710580F4606C6B835E01E4E059
:10167000AE0EB11CF50162915F01662309F473CFD0
:10168000C8010E94600AF6CF262F2F7320682B8393
:1016900086E0769567958A95E1F76031710538F4B3
:1016A000606E6C835E01F5E0AF0EB11CE3CF606845
:1016B0006C83CD825E0126E0A20EB11CDBCF329698
:1016C0009081992309F489CF8913F9CF81818823E7
:1016D00009F483CFF8011486682FAFCF82819381FC
:1016E000892B19F484E090E04ACF90E080E047CF66
:1016F000AF92BF92CF92DF92EF92FF920F931F9320
:10170000CF93DF9300D01F92CDB7DEB78C01DC0101
:101710001296ED91FC91139714968D919C911597CB
:10172000E80FF91F1482ED90FC9011971496AC907D
:1017300014971596BC9015971296CD90DC90C60123
:1017400004969A838983AB828B2D8F778C83BE011D
:101750006F5F7F4FC70103960E94A507009749F569
:10176000F70140815181B501C6010E94320A0097FC
:1017700021F421E0D70112962C93D801ED91FC9130
:1017800023813481DC012D933C9394838383F8017E
:10179000138212820F900F900F900F90DF91CF91D4
:1017A0001F910F91FF90EF90DF90CF90BF90AF907F
:1017B0000895DC0112962C9112972F5F12962C93AC
:1017C000E9CFCF93DF93EC01CB01CF3FD10509F0F7
:1017D000B0F4BE016B5F7F4F6C177D0780F0DC01BA
:1017E000ED91FC910190F081E02D1995009721F089
:1017F000FC01C38321E02283DF91CF91089590E023
:1018000080E0FACFFB0101900020E9F73197AF01AA
:10181000461B570B0C944C048F929F92AF92BF9231
:101820000F931F93CF93DF93CDB7DEB7A1970FB67A
:10183000F894DEBF0FBECDBF19A2423008F44AE0D3
:101840008E010F5D1F4F842E912CB12CA12CA50170
:1018500094010E94B220E62FB901CA01EA3004F5D2
:10186000E05DD801EE938D01232B242B252B79F7F6
:1018700090E080E0109729F0BD0186E294E00E949C
:10188000020CA1960FB6F894DEBF0FBECDBFDF915C
:10189000CF911F910F91BF90AF909F908F9008951F
:1018A000E95CDFCF0F931F93CF93DF938C01D0E0E0
:1018B000C0E06115710519F00E94020CEC0163E4AF
:1018C00072E0C8010E94020C8C0F9D1FDF91CF9126
:1018D0001F910F910895FB0101900020E9F73197C6
:1018E000AF01461B570B0C943407CF92DF92EF9257
:1018F000FF920F931F93CF93DF938C016B017A01BB
:1019000062E20E941C07E601EC0CFD1CEC16FD06D1
:1019100099F06991E0E3F2E0D480DD20C9F03296DD
:1019200083816813F9CF6CE5C8010E941C076D2DF7
:10193000C8010E941C07EACF62E2C801DF91CF9183
:101940001F910F91FF90EF90DF90CF900C941C07A8
:101950006111EECF66E472E0C8010E946B0CD6CF35
:101960002F923F924F925F926F927F928F929F92AF
:10197000AF92BF92CF92DF92EF92FF920F931F939D
:10198000CF93DF93CDB7DEB76B970FB6F894DEBF7A
:101990000FBECDBF7C018B01DC0114968C91149796
:1019A0008A3009F4A0C2F0F4843009F479C268F4F2
:1019B000833009F490C26DE472E0C8010E946B0CA0
:1019C000D80114968D919C9129C2853009F47BC26F
:1019D000863089F78C9162E572E0811155C067E528
:1019E00072E052C08E3009F440C0C8F48C3019F750
:1019F000CD90DD90ED90FC90B701A601F7FE0BC0F5
:101A00006DE2C8010E941C0744275527BA014C19F2
:101A10005D096E097F09C8010E945907FCC1803227
:101A200009F415C2803439F66BE5C8010E941C0721
:101A3000D701FC90BFEFFB1609F4E9C1F8018681DC
:101A400097816F2D45960E9480067C01B8010E9407
:101A5000B00CD7011596FC90BFEFFB1609F4D7C167
:101A60006CE2C8010E941C07E5CFF70180809180DD
:101A7000A280B380A5019401C501B4010E945C1F3E
:101A8000882331F06DE472E0C8010E946B0CC3C181
:101A900020E030E0A901C501B4010E945C1F882349
:101AA00071F0A5019401C501B4010E94E4209B01DD
:101AB000AC01C501B4010E945C1F882319F320E02A
:101AC00030E0A901C501B4010E945C1F87FF08C076
:101AD0006DE2C8010E941C07B7FAB094B7F8B09441
:101AE00020E836E948E15BE4C501B4010E94F82131
:101AF00087FD83C074E1C72ED12CE0E2EE2EF12CDD
:101B0000312C212CF601EC5BFD4F6591759185918F
:101B10009491A50194010E945C1F18167CF0F601B7
:101B2000E45DFD4F2591359145915491C501B40176
:101B30000E94C21F4B015C012E0C3F1CF594E794E0
:101B4000F4E0CF1AD1082CEFC2162FEFD206D1F64F
:101B50003FEF3F8B20E030E0A901C501B4010E94B6
:101B6000F82118160CF051C02CEA35EC47E257E387
:101B7000C501B4010E945C1F18160CF446C0AF8961
:101B8000B4E0AB02C0011124D12CC12CFC01E45DF6
:101B9000FD4F2F019C012C5B3D4F39013F893F3F99
:101BA00009F433C0F201EC0DFD1D6591759185912D
:101BB000949120E030E040E251E40E94C21FA50170
:101BC00094010E94F82118167CF4F301EC0DFD1D20
:101BD0002591359145915491C501B4010E94C21FD0
:101BE0004B015C012E183F08F594E7948F898150D2
:101BF0008F8B94E0C91AD108D1CF50E2E52EF12C99
:101C000085E08F8B312C212CA5CFC501B4010E941A
:101C1000C9216B017C012B013C0180E492E4AFE01F
:101C2000B0E0888F998FAA8FBB8F96E09F8BAAE038
:101C30004A16510461047104E0F0688D798D8A8D33
:101C40009B8D2AE030E040E050E00E94B220288FD7
:101C5000398F4A8F5B8FBF89B150BF8BC301B201EF
:101C60002AE030E040E050E00E94B22029013A0131
:101C7000DECFC701B6010E94611F9B01AC01C50107
:101C8000B4010E94E3204B015C01688D798D8A8D3F
:101C90009B8D0E94611F9B01AC01C501B4010E9494
:101CA000C21F2B013C010E94C9214B015C010E9413
:101CB000611F9B01AC01C301B2010E94E3209B01A3
:101CC000AC010E94E4200E94C921860E971EA81E26
:101CD000B91E888D998DAA8DBB8D88169906AA0686
:101CE000BB06C0F09FEFC91AD90AE90AF90A211404
:101CF000310439F1AAE0CA16D104E104F10408F173
:101D0000BFEF2B1A3B0A812C912C5401C12CD12CF2
:101D10007601C3942AE0422E512C612C712CC5010E
:101D2000B401A30192010E94B220672B682B692B9A
:101D300061F4EF891E164CF449015A01E150EF8B12
:101D4000EECF812C912C5401E5CFB701A601C8013B
:101D50000E945907FF89FF2391F16E0121E1C20E14
:101D6000D11CF88F76019AE0492E512C612C712CF0
:101D7000388D3150388F3F3F69F0C501B401A30160
:101D800092010E94B220605DD6016E936D014901FF
:101D90005A01EECFBF898B2F90E0BC016095709502
:101DA000F701E81BF90B31978EE280834427552712
:101DB000461B570B6E0D7F1DC8010E94340721146E
:101DC000310449F165E6C8010E941C07710137FE24
:101DD00007C06DE2C8010E941C07F194E194F1086C
:101DE000FE0177969F018AE0C82ED12CC701B6016B
:101DF0000E940E22805D82937B01672BB9F7A901B7
:101E00004E1B5F0BBF01C8010E94340704C06DE583
:101E1000C8010E941C07F801848195816B960FB65A
:101E2000F894DEBF0FBECDBFDF91CF911F910F9110
:101E3000FF90EF90DF90CF90BF90AF909F908F90EA
:101E40007F906F905F904F903F902F9008956BE739
:101E5000C8010E941C07D701FC90EE24E394BB2428
:101E6000B394BFEFFB16D1F0F801868197816F2DF7
:101E700045960E9480066C01B8010E94B00CD60104
:101E80001596FC90BFEFFB1639F06AE3E11001C034
:101E90006CE2C8010E941C07EB24E3CF6DE7B8CFCA
:101EA0006D917C9150E040E06115710541F0FB01BE
:101EB00001900020E9F73197AF01461B570BC8018D
:101EC0000E94750CA8CFED91FC91438150E0BF01B9
:101ED0006C5F7F4FF4CFED91FC91438150E0BF01E7
:101EE0006C5F7F4F90CF4D915D916D917C9193CDC3
:101EF0009F92AF92BF92CF92DF92EF92FF920F9399
:101F00001F93CF93DF938A01452B09F463C0E90146
:101F10006B016596FC016081CE010E948006FC0188
:101F2000BB24BA94892B09F0B5807601E894F7F8C0
:101F3000AA24A3946701C00ED11E992493943097CC
:101F400009F448C0AA20D9F18481843039F0853061
:101F500051F190E080E0B0E0A0E00FC0A081B1813D
:101F600090E080E0109741F0FD0101900020E9F73A
:101F70003197CF018A1B9B0B9F77E816F906F9F47E
:101F8000F801EC15FD05B9F46B2DCE01DF91CF9171
:101F90001F910F91FF90EF90DF90CF90BF90AF9087
:101FA0009F900C9480060190F081E02DDF01149643
:101FB000838190E0E2CF91918D91981711F3A9243C
:101FC0006B2DCE010E948006FC01892B09F4B7CF4E
:101FD000B580B5CF90E080E0DF91CF911F910F9158
:101FE000FF90EF90DF90CF90BF90AF909F900895BB
:101FF000FC0120813181C9014A964281538164816B
:102000007581009759F0D9015E96EC91E03211F09C
:1020100090E080E0009711F00C94780F90E080E061
:102020000895CF93DF9300D01F921F92CDB7DEB7F4
:102030000E94F80FFC01892B41F084818630A1F0C9
:1020400040F48430F9F0853081F160E070E0CB013C
:1020500034C08C3081F08E3061F18A30B1F760810C
:1020600071818281938104C0608170E090E080E0A2
:102070000E94611F22C060817181828193810E94D0
:10208000631F1BC0808191810E943D083A834B836E
:102090005C836D836A817B818C819D81223079F3A1
:1020A000233031F3213089F608C080819181049674
:1020B000EBCF60817181828193810F900F900F909F
:1020C0000F900F90DF91CF910895CF92DF92EF9212
:1020D000FF92CF93DF9300D01F921F92CDB7DEB750
:1020E0000E94F80FFC01892B49F084818630E1F0D1
:1020F00040F48430C9F1853009F44AC070E060E0F2
:1021000015C08C3001F18E3009F446C08A30B1F729
:1021100080819181A281B381811520E89207A10578
:10212000B10560F7BC0102C0608170E0CB010F9087
:102130000F900F900F900F90DF91CF91FF90EF9045
:10214000DF90CF90089580819181A281B3816C014D
:102150007D0120E8D20EE11CF11CC114D10421E064
:10216000E206F10458F6DECF808191810E943D089D
:102170003A834B835C836D83CA80DB80EC80FD8077
:10218000223041F1233091F1213009F0B7CF08C05E
:10219000808191810496EACFC080D180E280F38073
:1021A00020E030E040E057ECC701B6010E94F82182
:1021B00087FDA4CF20E03EEF4FEF56E4C701B60104
:1021C0000E945C1F18160CF499CFC701B6010E943B
:1021D000C221ACCFD701C6019058AF4FBF4F009777
:1021E000A140B10508F08ACFB601A0CFC11480E8A4
:1021F000D806E104F104C0F381CF4F925F926F9251
:102200007F928F929F92AF92BF92CF92DF92EF9286
:10221000FF920F931F93CF936B017C01742EAC013F
:102220009B010E94FD216DE572E0811126C04601EF
:102230005701E894B7F82FEF3FEF4FE75FE7C5018D
:10224000B4010E94FD2181110CC02FEF3FEF4FE739
:102250005FE7C501B4010E945C1F61E672E01816D9
:1022600064F02FEF3FEF4FE75FE4C701B6010E9434
:10227000F8211816ACF465E672E086E294E0CF919E
:102280001F910F91FF90EF90DF90CF90BF90AF9094
:102290009F908F907F906F905F904F900C94020C66
:1022A0002FEF3FEF4FE75FECC701B6010E945C1FC5
:1022B00087FDE1CF20E030E0A901C701B6010E940F
:1022C0005C1F10E000E087FF0AC06DE286E294E048
:1022D0000E942C058C01F7FAF094F7F8F094C0E016
:1022E00060E070E080E09FE37C1641F020E030E0A9
:1022F00040E251E40E945021CF5FF6CFA701960142
:102300000E94E4202B013C010E94C9214B015C0189
:102310004AE00E940C0C7C01E00EF11ECC23C1F1BE
:10232000C501B4010E94611F9B01AC01C301B20150
:102330000E94E3204B015C016EE286E294E00E9481
:102340002C05E80EF91EC15018F120E030E040E203
:1023500051E4C501B4010E94C21F2B013C010E943F
:10236000C9214B01B12CA12C4AE0C501B4010E9446
:102370000C0CE80EF91EC501B4010E94611F9B01FF
:10238000AC01C301B2010E94E3204B015C01DBCF31
:10239000C701CF911F910F91FF90EF90DF90CF90E9
:1023A000BF90AF909F908F907F906F905F904F9075
:1023B00008950F931F93CF93DF93EC018881998148
:1023C000009759F02A813B812617370730F081E0CA
:1023D000DF91CF911F910F9108958B016F5F7F4F18
:1023E0000E945623009759F0998388831B830A83A0
:1023F0002C813D81232B59F7FC011082E8CF80E02E
:10240000E7CFCB01BA010C945623CB010C94CD221B
:10241000BF92CF92DF92EF92FF920F931F93CF93D1
:10242000DF93EC01198D1F3F81F0612F45960E94CB
:102430008006FC018081898F309709F477C014826F
:102440008FEF8583BF01812F76C06C0135E0C30E0D
:10245000D11CE880F9808F89882341F0C6010E9451
:10246000CC07E62FF72F182F309749F71F89988D43
:10247000191324C0103109F459C0110F6D897E89D8
:10248000D701ED91FC91B4E01B9FA0011124C61669
:10249000D70609F044C00190F081E02DBA01C701D0
:1024A0001995009709F442C020E1F601DC01019082
:1024B0000D922A95E1F79E8B8D8B188F0D891E89C1
:1024C0008F8921E0280F2F8BE4E08E9FC00111241B
:1024D000080F191F90E1B92E203111F48FE0B82EAA
:1024E000F6E0BF9EB0011124D701ED91FC9101905F
:1024F000F081E02DC7011995F80193838283892B20
:1025000009F4B12CD801BC9211961C92012B71F0E8
:10251000C6010E94CC07E62FF72F182F8DCF04801D
:10252000F581E02DC7011995009729F681E08A838E
:1025300060E070E08FEFDF91CF911F910F91FF90DE
:10254000EF90DF90CF90BF9008952F923F924F92DF
:102550005F926F927F928F929F92AF92BF92CF9233
:10256000DF92EF92FF920F931F93CF93DF9300D0F0
:102570001F921F92CDB7DEB78C017B01542E0E94B3
:10258000FA066C01892B09F059C0C8010E94AC06FB
:10259000863609F4D3C1ACF5873229F08B35E9F1E1
:1025A000823209F0D4C1D80115961C921E9214975C
:1025B00012968D919C911397892B91F4CD90DC907C
:1025C000F601608171818FE190E00E94E10B00973C
:1025D00021F421E0D60112962C93F8019383828393
:1025E000C8010E94990A6C01892B41F5C8010E941B
:1025F000780B25E0D70114962C9314978D939C9318
:102600001DC0843709F479C18B3709F47DC08E363B
:1026100009F09DC16DE472E077C180E4D7011496A2
:102620008C931497E114F10421F08FEF8C931196A1
:102630008C9351101CC025E0C22ED12CC6010F90E6
:102640000F900F900F900F90DF91CF911F910F91EE
:10265000FF90EF90DF90CF90BF90AF909F908F90C2
:102660007F906F905F904F903F902F900895F8016A
:102670001486C8010E94FA06009751F56DE5C8015D
:102680000E94C6068111DACF5A94D8011D968D900A
:102690009C90C4010E940812782E5B01672B21F4E4
:1026A00094E0C92ED12CCACFF70161816F3F91F020
:1026B000C40145960E948006DC0115967C92F701C4
:1026C0007182452DB501C8010E94A512009739F00D
:1026D0006C01B4CFD7018C9311968C93F2CFC801C3
:1026E0000E94FA060097A1F76DE5C8010E94C60690
:1026F0008111A4CF6CE2C8010E94C6068111C5CF2A
:1027000083E0C82ED12C9ACF80E2F7018483E114B4
:10271000F10419F08FEF80838183552009F48BCF6A
:10272000D8011C961C92C8010E94FA06009781F6F7
:102730006DE7C8010E94C606811180CF5A94F80146
:102740001582148282819381892B99F4C080D18073
:10275000D6016D917C918FE190E00E94E10B009792
:1027600019F421E0F6012283D80113969C938E93ED
:102770001297C8010E94AC06873201F18232F1F053
:10278000C8010E94AC06D82E0E949A06882309F43C
:10279000B7CFF80114866D2DC8010E94600AC801E8
:1027A0000E94AC06D82E0E949A068111F2CFD80161
:1027B00012968D919C91892B41F472CFC8010E9491
:1027C000990A6C01892B09F039CFC8010E94FA06D9
:1027D0006C01892B09F032CF6AE3C8010E94C6065A
:1027E000882309F48DCFD8011296ED91FC911397AF
:1027F00014968D919C911597E80FF91F14821496E9
:102800006D917C9115977F771D96AD90BC901E972A
:1028100012968D919C910496272F2F77B42DB07826
:102820004B2E422AE89447F89501AC01742DC7015C
:102830000E94780F6C01009709F05BC0C8010E94EC
:10284000780B3C01F80185849684C4010E9408122B
:10285000282E5B01672B09F423CFC4010E940812C4
:10286000382E962FC92ED72EC114D10409F418CFB3
:10287000E5E0D5011496EC93149711967C926E9234
:1028800015963C92D70111966C916F3F71F1C4017E
:1028900045960E948006FC012582D70111963C9244
:1028A000452DB601C8010E94A5126C01892B09F0C3
:1028B000C5CEC8010E94FA066C01892B09F0BECE74
:1028C0006DE7C8010E94C6068111B8CE6CE2C8014E
:1028D0000E94C606882309F413CFC8010E94FA0695
:1028E0006C01892B09F42BCFA9CEF701208231820C
:1028F000D7CFB5010E94AC09D3CF86E0F70184831E
:1029000081E0808362E572E0C8010F900F900F9024
:102910000F900F90DF91CF911F910F91FF90EF904B
:10292000DF90CF90BF90AF909F908F907F906F90EF
:102930005F904F903F902F900C94D70686E0D70180
:1029400014968C9314971C9267E572E0DDCFC80152
:102950000E94AC064801BFE08B0E911CB12C782C74
:10296000A92C803384F08A3384F4EFE3BE16A9F0F7
:10297000D8011C961C92B394F40181934F01C801B5
:102980000E94AC06EECF8B3281F393ED980F92301C
:1029900060F3982F9F7D953441F30B0D111DD801E5
:1029A0001F961C92872D9A2D0E943D083A834B83D7
:1029B0005C836D838A819B81AC81BD812230A9F0CB
:1029C000233059F0213009F09BCE2EE0F70124830B
:1029D00080839183A283B38331CE2AE0F7012483DD
:1029E00080839183A283B38329CE2CE0F7CF2F92EB
:1029F0003F924F925F926F927F928F929F92AF928F
:102A0000BF92CF92DF92EF92FF920F931F93CF93DB
:102A1000DF9300D000D000D0CDB7DEB7FC01411568
:102A20005105E1F4912C812CC40129960FB6F8943C
:102A3000DEBF0FBECDBFDF91CF911F910F91FF90F1
:102A4000EF90DF90CF90BF90AF909F908F907F904E
:102A50006F905F904F903F902F90089584818111E7
:102A600039C080E284833097E9F28FEF80838183DD
:102A700079012A013B018F01CF010E94780F4C019F
:102A8000892B91F6C7010E9408128F836B01672B77
:102A900059F2C7010E940812282E5B01672B21F210
:102AA000372C77FE1DC084E0F6018483518240827A
:102AB000F6012582F80161816F3F09F45DC0C7010D
:102AC00045960E9480062F81FC012583F801218212
:102AD0004501AACF803209F0A5CF309749F6A2CFA1
:102AE000E89437F8F7010190F081E02DF987E88745
:102AF00049825A826B823C82BE016F5F7F4FC70161
:102B000003960E94A507009751F0FC0122812F5FD8
:102B1000228325E0F601248391838083C9CF6D82CF
:102B2000E89437F83E82688579858D819E810E9480
:102B3000E10B009721F481E0F701828375CFE981F1
:102B4000FA81DC0114962D813E812E0F3F1F2E1736
:102B50003F0719F041914D93FACFED81FE81E80FC7
:102B6000F91F1482F70123813481FC013183208312
:102B7000F70194838383CDCF2F812083A8CFCF9279
:102B8000DF92EF92FF920F931F93CF93DF93FC019D
:102B900000811181C8014A9619F17B01428153815C
:102BA0006481758198010E94F714EC010097C1F0CF
:102BB000F701C080D180E280F380B8010E94AC09A7
:102BC0008EE08C83C882D982EA82FB8281E0DF9129
:102BD000CF911F910F91FF90EF90DF90CF900895CC
:102BE00080E0F5CFEF92FF920F931F93CF93DF9387
:102BF000FC01E080F180C7014A9641F480E0DF915A
:102C0000CF911F910F91FF90EF9008958B0142811A
:102C100053816481758197010E94F714EC0100973C
:102C200069F3F80100811181B7010E94AC098CE0C1
:102C30008C83012E000C220B330B088319832A830B
:102C40003B8381E0DCCF2F923F924F925F926F9255
:102C50007F928F929F92AF92BF92CF92DF92EF922C
:102C6000FF920F931F93CF93DF93CDB7DEB7C75A71
:102C7000D1400FB6F894DEBF0FBECDBF0E943D031A
:102C8000882341F080915A058C3009F464C038F4EF
:102C90008B30F1F060E070E080EC9FE741C085513F
:102CA0008230C0F710915605612F70E0762F6627AD
:102CB00066277F7780915705682B90E080E00E941F
:102CC000611F2DEC3CEC4CEC5DE30E94C21F5FC029
:102CD0006091560570E090E080E00E94611F6B01FA
:102CE0007C011091570517FF0AC0AC019B0160E001
:102CF00070E080E89FEB0E94E3206B017C011F7075
:102D0000612F70E090E080E00E94631F2DEC3CECAE
:102D10004CEC5DE30E94C21FA70196010E94E420D3
:102D2000CA56DE4F688379838A839B83C659D14014
:102D30000E943D03882351F080915A058B3030F07A
:102D40008D3048F18551823008F497C060E070E022
:102D500080EC9FE73CC010915605612F70E090E039
:102D600080E00E94611F6B017C01609157056F70CC
:102D700070E090E080E00E94631F2DEC3CEC4CEC96
:102D80005DE30E94C21FA70196010E94E42017FF85
:102D9000C7CF9058C5CF6091550570E090E080E0B6
:102DA0000E94631F2DEC3CEC4CEC5DE30E94C21FC3
:102DB0006B017C016091540570E090E080E00E941E
:102DC000631F9B01AC01C701B6010E94E420C656F7
:102DD000DE4F688379838A839B83CA59D14086E317
:102DE0000E94CF02C256DE4F99838883CE59D140CC
:102DF00087E30E94CF02C056DE4F99838883C05A72
:102E0000D140CA56DE4F688179818A819B81C6593B
:102E1000D1409B01AC010E94FD2181110EC0C6561C
:102E2000DE4F688179818A819B81CA59D1409B019B
:102E3000AC010E94FD21882391F169E672E086E2EF
:102E400094E00E94520CC955DE4F0FB6F894DEBFD5
:102E50000FBECDBFDF91CF911F910F91FF90EF90EB
:102E6000DF90CF90BF90AF909F908F907F906F90AA
:102E70005F904F903F902F9008956091540570910E
:102E8000550576276727762790E080E00E94611F2E
:102E90002DEC3CEC4CEC5DE30E94C21F98CF6E0120
:102EA00020E9C21A2EEFD20A80E092E0D6011196F4
:102EB0009C938E9312961C92129714961C921E92BB
:102EC0001397C601059656969C938E9355975796E1
:102ED0001C92579784E058968C9358979FEF599679
:102EE0009C9359975E961C925E975F969C938E0179
:102EF0000F5F1E4F22E030E0F80131832083DA8239
:102F0000C98229E832E03C832B838D838E818078CF
:102F100080688E83B801CE0101967C010E94F21573
:102F2000DA82C9828EE892E09C838B838BE08D836A
:102F30008E81807880688E83BE016A567E4FC7017D
:102F40000E94BF15DA82C9828AE992E09C838B8352
:102F500038E0B32EBD828E81807880688E83BE017A
:102F600066567E4FC7010E94BF15DA82C98283EA86
:102F700092E09C838B8383E08D838E818078806850
:102F80008E83BE0162567E4FC7010E94F215DA821F
:102F9000C98287EA92E09C838B83BD828E81807890
:102FA00080688E83BE0160567E4FC7010E94F21575
:102FB000D80111961C930E931396FC92EE921297E1
:102FC00015961C921E9214971796DC92CE92169725
:102FD000B801C6014A960E94B00C8F3F910509F0D6
:102FE00020F48E0D9F1DFC011082B70189E893E04B
:102FF0000E94520C60EB72E086E294E00E94020CA8
:10300000B70186E294E00E94520C89E893E00E94A6
:10301000EA04892B09F49CC2C057DE4F198218823A
:10302000C059D140CE56DE4F19821882C259D140C4
:10303000CC56DE4F19821882C459D14070E060E04E
:10304000CE0180579E4F0E94D911C057DE4F288174
:103050003981C059D14081114CC02115310519F079
:10306000C9010E94CD22C057DE4F19821882C05973
:10307000D140CC56DE4F19821882C459D140CE5669
:10308000DE4F19821882C259D1400E949C04CC564E
:10309000DE4FA880B980C459D14097FD36C08A3030
:1030A000910599F1D8018C9311961C92BFEFAB1A40
:1030B000BB0AB501CE0180579E4F0E94D9118823CB
:1030C00021F3C057DE4F28813981C059D140CC56F9
:1030D000DE4F88819981C459D140B801820F931F76
:1030E0000E944024CC56DE4FB982A882C459D140F8
:1030F000CCCFCC56DE4F19821882C459D14062E43D
:1031000072E0C9010E944024C0CF7E01E0EBEE1ABC
:10311000EEEFFE0A80E092E0D70111969C938E9329
:1031200012961C92129714961C921E921397C70126
:10313000059656969C938E93559757961C92579743
:1031400024E058962C9358972FEF59962C93599723
:103150005E961C925E975F962C93C057DE4F8880D8
:103160009980C059D14060E072E00E94F807F701F1
:10317000128260807180D70113968D919C91149773
:10318000009759F0FC012081318114963C932E93D5
:103190001397B3010E94A209EECF5E961C92F8012C
:1031A000F182E08213821282158214821682908646
:1031B0008782A80CB91CB286A1861486F686E5869D
:1031C0004AE0B701665E7F4FC8010E94A5125C010C
:1031D000892B61F4D8011B968C91882339F0F70173
:1031E000868D83FF03C023E0A22EB12CD801129656
:1031F0008D919C911397009731F0ED91FC91608136
:1032000071810E94A209A114B10409F09BC2F801C6
:10321000F182E08289E892E09383828384E0848370
:103220008581807880688583C8010E9465104C0183
:10323000D8011196FC92EE928EE892E013969C9340
:103240008E9312978BE0382E14963C921497159615
:103250008C9115978078806815968C93C8010E9490
:1032600011102B013C01F801F182E0828AE992E021
:103270009383828398E0292E2482858180788068D8
:103280008583C8010E941110CC55DE4F6883798375
:103290008A839B83C45AD140D8011196FC92EE9246
:1032A00083EC92E013969C938E93129714963C9223
:1032B000149715968C9115978078806815968C9345
:1032C000C8010E946510CE55DE4F99838883C25A8B
:1032D000D140F801F182E08287EA92E09383828311
:1032E00024828581807880688583C8010E9465106A
:1032F0001C01D8011196FC92EE928FEC92E013968D
:103300009C938E93129789E014968C93149715963C
:103310008C9115978078806815968C93C8010E94CF
:1033200065108C0169ED72E086E294E00E94020C67
:10333000CC56DE4F48815981C459D140C057DE4F29
:1033400068817981C059D14086E294E00E944C04A2
:1033500060EF72E086E294E00E94020C092C000CFF
:10336000AA08BB084AE0C501B401B7FE0DC06DE272
:1033700086E294E00E942C0566277727CB01681926
:1033800079098A099B094AE00E940C0C6DEF72E0F2
:1033900086E294E00E94020C42E0C301B2010E9466
:1033A000FD106EE073E086E294E00E94020C42E0C1
:1033B000CC55DE4F688179818A819B81C45AD14086
:1033C0000E94FD1063E472E086E294E00E94020C29
:1033D000CE55DE4FE881F981C25AD140EF2B09F07A
:1033E000A2C12FEF30E0D1010E942A222FEF33E05B
:1033F00040E050E00E948020B22EA32E822E932E19
:1034000061E084E00E9493028114910409F0AAC053
:1034100060E084E00E940702012B09F07EC161E0B8
:103420008CE10E94070260E08BE10E94070224EB1E
:1034300030E0D1010E942A222FEF33E040E050E03B
:103440000E948020C901A901203232400CF03FC007
:1034500020916805E8E88E2E912C821A910827FDAC
:103460009394880C991C880C991C092C000CAA08B0
:10347000BB082091690508E512E0021B110927FD30
:103480001395000F111F000F111F012E000C220BAE
:10349000330BA9019801281939094A095B09DC0194
:1034A000853B910514F0A4EBB0E0B7FF02C0B0E09B
:1034B000A0E00E94AA2024EB30E040E050E00E940F
:1034C0008020BA01A901480D591D6A1D7B1DE0919C
:1034D0006705E03380F52091680588E890E0821B5D
:1034E000910927FD9395880F991F880F991F4817F9
:1034F000590784F02091690588E592E0821B9109C3
:1035000027FD9395880F991F880F991F4817590712
:103510000CF4CA010297880F991F4FB7F8942E2F09
:1035200030E0F901EE0FFF1FE20FF31FED53FB4FE9
:10353000928381834FBFC7010E94140AC057DE4F98
:1035400088819981C059D140009711F00E94CD2205
:1035500064EF71E080E090E00E940B03C6010E94DE
:10356000140A71CCFFEF8F16910411F461E051CF72
:10357000E0EDF1E0E491E150E23108F0C8C0F0E0A4
:103580008827EA53F54E8F4F0C942222D81ADD1A61
:10359000E21AEE1AFA1A871B061B0E1B161B221BB9
:1035A0002E1B3A1B4B1B571B871B631B6F1B7B1B65
:1035B00084B5806884BDB7BC2FCF84B5806284BDDC
:1035C000B8BC2ACF809180008068809380008B2DCA
:1035D0009A2D90938900809388001ECF809180005F
:1035E0008062809380008B2D9A2D90938B00809326
:1035F0008A0012CF809180008860809380008B2D9C
:103600009A2D90938D0080938C0006CF8091B0000E
:1036100080688093B000B092B300FECE8091B0007D
:1036200080628093B000B092B400F6CE809190009A
:103630008068809390008B2D9A2D909399008093B1
:103640009800EACE809190008062809390008B2D4C
:103650009A2D90939B0080939A00DECE80919000EB
:103660008860809390008B2D9A2D90939D0080937D
:103670009C00D2CE8091A00080688093A0008091B1
:10368000A0008F7B8093A0008B2D9A2D9093A90092
:103690008093A800C1CE8091A00080628093A0009A
:1036A0008B2D9A2D9093AB008093AA00B5CE80917C
:1036B000A00088608093A0008B2D9A2D9093AD0080
:1036C0008093AC00A9CE8091200180688093200176
:1036D0008B2D9A2D90932901809328019DCE809166
:1036E00020018062809320018B2D9A2D90932B01D5
:1036F00080932A0191CE80912001886080932001DF
:103700008B2D9A2D90932D0180932C0185CE20E84E
:10371000821691040CF02ACF7BCE60E08CE10E94EF
:10372000070261E081CE60E08CE10E94070260E068
:103730008BE10E94070261E084E00E94930260E056
:1037400084E073CE6CE173E086E294E00E94020CA8
:10375000F501EE0FFF1FEE5EFD4F6081718186E285
:1037600094E00E94520CE7CECB010C9431221F92C0
:103770000F920FB60F9211242F933F938F939F9325
:10378000AF93BF938091850390918603A0918703A7
:10379000B09188033091800323E0230F2D3758F533
:1037A0000196A11DB11D2093800380938503909302
:1037B0008603A0938703B09388038091810390913F
:1037C0008203A0918303B09184030196A11DB11DD2
:1037D0008093810390938203A0938303B093840327
:1037E000BF91AF919F918F913F912F910F900FBEFD
:1037F0000F901F90189526E8230F0296A11DB11D6A
:10380000D2CF1F920F920FB60F9211240BB60F92C8
:103810002F933F934F935F936F937F938F939F93D8
:10382000AF93BF93EF93FF9389E893E00E940A055B
:10383000FF91EF91BF91AF919F918F917F916F9188
:103840005F914F913F912F910F900BBE0F900FBE44
:103850000F901F9018951F920F920FB60F92112480
:103860000BB60F922F938F939F93EF93FF93E0915B
:103870009903F0919A038081E0919F03F091A00356
:1038800082FD1DC090818091A2038F5F8F73209174
:10389000A303821741F0E091A203F0E0E757FC4F49
:1038A000958F8093A203FF91EF919F918F912F911C
:1038B0000F900BBE0F900FBE0F901F901895808138
:1038C000F2CF1F920F920FB60F9211240BB60F92E8
:1038D0002F933F934F935F936F937F938F939F9318
:1038E000AF93BF93EF93FF9386E294E00E940A05A3
:1038F000FF91EF91BF91AF919F918F917F916F91C8
:103900005F914F913F912F910F900BBE0F900FBE83
:103910000F901F9018951F920F920FB60F921124BF
:103920000BB60F922F938F939F93EF93FF93E0919A
:103930003604F09137048081E0913C04F0913D041D
:1039400082FD1DC0908180913F048F5F8F73209115
:103950004004821741F0E0913F04F0E0EA5DFB4F44
:10396000958F80933F04FF91EF919F918F912F91BD
:103970000F900BBE0F900FBE0F901F901895808177
:10398000F2CF1F920F920FB60F9211240BB60F9227
:103990002F933F934F935F936F937F938F939F9357
:1039A000AF93BF93EF93FF9348E251E064E271E07D
:1039B00090E080E00E94C605FF91EF91BF91AF912A
:1039C0009F918F917F916F915F914F913F912F9137
:1039D0000F900BBE0F900FBE0F901F9018951F9267
:1039E0000F920FB60F9211240BB60F922F933F93A5
:1039F0004F935F936F937F938F939F93AF93BF93F7
:103A0000EF93FF9348EA50E064EA70E083E090E0CF
:103A10000E94C605FF91EF91BF91AF919F918F9149
:103A20007F916F915F914F913F912F910F900BBEBE
:103A30000F900FBE0F901F9018951F920F920FB608
:103A40000F9211240BB60F922F933F934F935F93D6
:103A50006F937F938F939F93AF93BF93EF93FF9356
:103A600048E950E064E970E082E090E00E94C60519
:103A7000FF91EF91BF91AF919F918F917F916F9146
:103A80005F914F913F912F910F900BBE0F900FBE02
:103A90000F901F9018951F920F920FB60F9211243E
:103AA0000BB60F922F933F934F935F936F937F9338
:103AB0008F939F93AF93BF93EF93FF9348E850E0AA
:103AC00064E870E081E090E00E94C605FF91EF910C
:103AD000BF91AF919F918F917F916F915F914F9126
:103AE0003F912F910F900BBE0F900FBE0F901F9024
:103AF000189510928C0310928B0348EE53E060E00F
:103B000070E040938D0350938E0360938F03709306
:103B1000900382E292E090938A03809389032DECD4
:103B200030E030939603209395032CEC30E03093F3
:103B300098032093970328EC30E030939A03209366
:103B4000990329EC30E030939C0320939B032AECEB
:103B500030E030939E0320939D032EEC30E03093B1
:103B6000A00320939F031092A2031092A30310922C
:103B7000A4031092A50310922904109228044093E4
:103B80002A0450932B0460932C0470932D0490937B
:103B900027048093260485EC90E09093330480936F
:103BA000320484EC90E0909335048093340480ECEC
:103BB00090E0909337048093360481EC90E09093EA
:103BC00039048093380482EC90E090933B04809316
:103BD0003A0486EC90E090933D0480933C0410926C
:103BE0003F041092400410924104109242048091CC
:103BF0005305803378F591E0980F909353058093A7
:103C0000670590E0FC01EE0FFF1FE80FF91FED5371
:103C1000FB4F88EB9BE09283818388E0809359057A
:103C20008BE080935A05EAEAF2E0E491E0935B05C9
:103C3000E4E6F2E0E491E0935C0580E89EE3A0E036
:103C4000B0E08093610590936205A0936305B09303
:103C5000640508958FEF80936705DFCF789484B56E
:103C6000826084BD84B5816084BD85B5826085BD78
:103C700085B5816085BD80916E00816080936E0006
:103C800010928100809181008260809381008091F8
:103C900081008160809381008091800081608093A9
:103CA00080008091B10084608093B1008091B00069
:103CB00081608093B0008091910082608093910038
:103CC000809191008160809391008091900081604B
:103CD000809390008091A10082608093A1008091E8
:103CE000A10081608093A1008091A00081608093F9
:103CF000A0008091210182608093210180912101A7
:103D00008160809321018091200181608093200156
:103D100080917A00846080937A0080917A0082603A
:103D200080937A0080917A00816080937A008091FC
:103D30007A00806880937A001092C10089E893E04D
:103D40000E94A80186E294E00E94A80162E08091AE
:103D500059050E9493022FB7F894809185039091A2
:103D60008603A0918703B09188032FBF805D9740A1
:103D7000A109B10980935D0590935E05A0935F054D
:103D8000B093600587E38093660560E086E30E9458
:103D9000930261E084E00E94930261E08CE10E9462
:103DA000930261E08BE10E9493028091670580336A
:103DB00008F051C061E089E00E949302809167059C
:103DC000282F30E0F901EE0FFF1FE20FF31FED5334
:103DD000FB4F9081907C99609083109268051092BF
:103DE00069052CE0622F0E940222829FB0011124FB
:103DF00030E020E0AB01420F531FFA01EE0FFF1F2E
:103E0000E40FF51FED53FB4F908196FD16C02F5F19
:103E10003F4F2C30310571F7813011F51092800041
:103E200082E0809381001092850010928400B19A04
:103E300080916F00826080936F00E09167058E2F04
:103E400090E0FC01EE0FFF1FE80FF91FED53FB4F51
:103E50008081806480830E9423160E949905FBCF95
:103E6000823061F41092900080939100109295003E
:103E70001092940088BB80937100DFCF833069F487
:103E80001092A00082E08093A1001092A5001092F1
:103E9000A40089BB80937200D0CF8111CECF109245
:103EA000200182E0809321011092250110922401CB
:103EB0008ABB80937300C1CF0E949E1F08F481E0EB
:103EC0000895E89409C097FB3EF49095809570950D
:103ED00061957F4F8F4F9F4F9923A9F0F92F96E956
:103EE000BB279395F695879577956795B795F111CB
:103EF000F8CFFAF4BB0F11F460FF1BC06F5F7F4F68
:103F00008F4F9F4F16C0882311F096E911C0772379
:103F100021F09EE8872F762F05C0662371F096E882
:103F2000862F70E060E02AF09A95660F771F881F51
:103F3000DAF7880F9695879597F90895990F0008F5
:103F4000550FAA0BE0E8FEEF16161706E807F9076B
:103F5000C0F012161306E407F50798F0621B730B06
:103F6000840B950B39F40A2661F0232B242B252B87
:103F700021F408950A2609F4A140A6958FEF811D2A
:103F8000811D08950E94D51F0C9446200E94382060
:103F900038F00E943F2020F0952311F00C942F2040
:103FA0000C94352011240C947A200E94572070F331
:103FB000959FC1F3950F50E0551F629FF001729FCE
:103FC000BB27F00DB11D639FAA27F00DB11DAA1FDD
:103FD000649F6627B00DA11D661F829F2227B00D2A
:103FE000A11D621F739FB00DA11D621F839FA00DB5
:103FF000611D221F749F3327A00D611D231F849F05
:10400000600D211D822F762F6A2F11249F5750405B
:104010009AF0F1F088234AF0EE0FFF1FBB1F661FD6
:10402000771F881F91505040A9F79E3F510580F09F
:104030000C942F200C947A205F3FE4F3983ED4F345
:10404000869577956795B795F795E7959F5FC1F743
:10405000FE2B880F911D9695879597F9089597F9EE
:104060009F6780E870E060E008959FEF80EC08951E
:1040700000240A9416161706180609060895002447
:104080000A9412161306140605060895092E0394C1
:10409000000C11F4882352F0BB0F40F4BF2B11F435
:1040A00060FF04C06F5F7F4F8F4F9F4F089557FD94
:1040B0009058440F551F59F05F3F71F04795880F96
:1040C00097FB991F61F09F3F79F08795089512162D
:1040D00013061406551FF2CF4695F1DF08C01616D9
:1040E00017061806991FF1CF86957105610508948A
:1040F0000895E894BB2766277727CB0197F90895A1
:10410000052E97FB1EF400940E94972057FD07D0C0
:104110000E94B22007FC03D04EF40C9497205095D7
:104120004095309521953F4F4F4F5F4F08959095A3
:104130008095709561957F4F8F4F9F4F08950E9496
:10414000D420A59F900DB49F900DA49F800D911D2C
:1041500011240895B7FF0C949F200E949F20821B7A
:10416000930B0895A1E21A2EAA1BBB1BFD010DC0E3
:10417000AA1FBB1FEE1FFF1FA217B307E407F50717
:1041800020F0A21BB30BE40BF50B661F771F881FF3
:10419000991F1A9469F760957095809590959B0189
:1041A000AC01BD01CF010895A29FB001B39FC00132
:1041B000A39F700D811D1124911DB29F700D811D53
:1041C0001124911D08955058BB27AA270E94FB2057
:1041D0000C9446200E94382038F00E943F2020F0A6
:1041E00039F49F3F19F426F40C9435200EF4E09531
:1041F000E7FB0C942F20E92F0E94572058F3BA17A1
:10420000620773078407950720F079F4A6F50C94EC
:1042100079200EF4E0950B2EBA2FA02D0B01B901D9
:1042200090010C01CA01A0011124FF27591B99F02C
:10423000593F50F4503E68F11A16F040A22F232F38
:10424000342F4427585FF3CF469537952795A79588
:10425000F0405395C9F77EF41F16BA0B620B730B2F
:10426000840BBAF09150A1F0FF0FBB1F661F771FA0
:10427000881FC2F70EC0BA0F621F731F841F48F455
:10428000879577956795B795F7959E3F08F0B0CFDE
:104290009395880F08F09927EE0F979587950895C5
:1042A0000E9464210C9446200E943F2058F00E94F6
:1042B000382040F029F45F3F29F00C942F20511151
:1042C0000C947A200C9435200E94572068F399238F
:1042D000B1F3552391F3951B550BBB27AA27621702
:1042E0007307840738F09F5F5F4F220F331F441F0F
:1042F000AA1FA9F335D00E2E3AF0E0E832D0915043
:104300005040E695001CCAF72BD0FE2F29D0660F2F
:10431000771F881FBB1F261737074807AB07B0E872
:1043200009F0BB0B802DBF01FF2793585F4F3AF078
:104330009E3F510578F00C942F200C947A205F3F1B
:10434000E4F3983ED4F3869577956795B795F795FE
:104350009F5FC9F7880F911D9695879597F90895E6
:10436000E1E0660F771F881FBB1F62177307840782
:10437000BA0720F0621B730B840BBA0BEE1F88F791
:10438000E09508950E94C9216894B1110C947A2097
:1043900008950E945F2088F09F5798F0B92F9927C1
:1043A000B751B0F0E1F0660F771F881F991F1AF020
:1043B000BA95C9F714C0B13091F00E947920B1E0EC
:1043C00008950C947920672F782F8827B85F39F0EB
:1043D000B93FCCF3869577956795B395D9F73EF4B9
:1043E00090958095709561957F4F8F4F9F4F089561
:1043F0000E949E1F08F48FEF08950E949E1F880B55
:10440000990B0895991B79E004C0991F961708F03D
:10441000961B881F7A95C9F780950895AA1BBB1B28
:1044200051E107C0AA1FBB1FA617B70710F0A61BB4
:10443000B70B881F991F5A95A9F780959095BC01D5
:10444000CD010895EE0FFF1F881F8BBF0790F691D7
:10445000E02D19940E94D420B7FF0895821B930B7E
:1044600008950F931F93CF93DF938230910510F43B
:1044700082E090E0E0916C05F0916D0530E020E085
:10448000B0E0A0E0309799F42115310509F44AC055
:10449000281B390B24303105D8F58A819B816115A1
:1044A000710589F1FB0193838283FE0111C0408174
:1044B00051810281138148175907E0F048175907C5
:1044C00099F4109761F012960C93129713961C931F
:1044D0003296CF01DF91CF911F910F9108950093F4
:1044E0006C0510936D05F4CF2115310551F042177D
:1044F000530738F0A901DB019A01BD01DF01F80182
:10450000C1CFEF01F9CF90936D0580936C05CDCFAE
:10451000FE01E20FF31F81939193225031093983F9
:104520002883D7CF20916A0530916B05232B41F466
:10453000209104023091050230936B0520936A05A7
:1045400020910202309103022115310541F42DB76B
:104550003EB74091060250910702241B350BE091B3
:104560006A05F0916B05E217F307A0F42E1B3F0BD1
:104570002817390778F0AC014E5F5F4F24173507D5
:1045800048F04E0F5F1F50936B0540936A0581936F
:1045900091939FCFF0E0E0E09CCFCF93DF93009723
:1045A000E9F0FC01329713821282A0916C05B09160
:1045B0006D05ED0130E020E01097A1F420813181FC
:1045C000820F931F20916A0530916B0528173907D8
:1045D00009F061C0F0936B05E0936A05DF91CF911C
:1045E0000895EA01CE17DF07E8F54A815B819E0155
:1045F00041155105B1F7E901FB83EA8349915991CE
:10460000C40FD51FEC17FD0761F4808191810296DC
:10461000840F951FE90199838883828193819B830D
:104620008A83F0E0E0E012968D919C9113970097B9
:10463000B9F52D913C911197CD010296820F931FF0
:1046400020916A0530916B052817390739F63097A4
:1046500051F510926D0510926C05B0936B05A09307
:104660006A05BCCFD383C28340815181840F951FDB
:10467000C817D90761F44E5F5F4F88819981480F51
:10468000591F518340838A819B81938382832115A3
:10469000310509F0B0CFF0936D05E0936C059ECF26
:1046A000FD01DC01C0CF13821282D7CF4F925F92FF
:1046B0006F927F928F929F92AF92BF92CF92DF9232
:1046C000EF92FF920F931F93CF93DF938C0100978C
:1046D00099F4CB01DF91CF911F910F91FF90EF9053
:1046E000DF90CF90BF90AF909F908F907F906F9012
:1046F0005F904F900C943122FC01E60FF71F9C0154
:1047000022503109E217F30708F4AEC0D901CD9168
:10471000DC911197C617D70720F1C530D10578F085
:10472000CE0104978617970750F0C61BD70B229728
:10473000C193D1936D937C93CF010E94CD22C80188
:10474000DF91CF911F910F91FF90EF90DF90CF906D
:10475000BF90AF909F908F907F906F905F904F90A1
:1047600008955B01AC1ABD0A4C018C0E9D1EA091F0
:104770006C05B0916D05512C412CF12CE12C10975A
:1047800031F580916A0590916B058815990509F0BE
:104790005CC04616570608F058C0809102029091FE
:1047A0000302009741F48DB79EB7409106025091E5
:1047B0000702841B950BE817F90708F055C0F09322
:1047C0006B05E0936A05F90171836083B8CF8D9121
:1047D0009C91119712966C90129713967C90139758
:1047E000A815B90559F56C0142E0C40ED11CCA14D4
:1047F000DB0420F1AC014A195B09DA011296159726
:1048000080F06282738251834083D9016D937C93DF
:10481000E114F10471F0D7011396FC93EE93129713
:104820008ECF22968C0F9D1FF90191838083F30117
:10483000EFCFF0936D05E0936C0581CF48165906D4
:1048400008F42C017D01D3019ACFCB010E943122C3
:104850007C01009749F0AE01B8010E943724C801DD
:104860000E94CD2287016BCF10E000E068CFFB01F2
:10487000DC0102C001900D9241505040D8F70895DC
:10488000FB01DC0101900D920020E1F70895F894FE
:10489000FFCF0C0200006E05800000000000B41B7A
:1048A000051201123F0342034D035D036A037303C4
:1048B000000000002C054C0479047905EA04880402
:1048C000DC042F2F272722225C5C6208660C6E0A0C
:1048D000720D7409000D0A005C7530303030006EC6
:1048E000756C6C00747275650066616C7365006E42
:1048F000616E00696E66006F7666004661696C6580
:104900006420746F20726561642066726F6D20444C
:1049100048542073656E736F7221006E6F6465007A
:1049200074656D70657261747572650068756D6926
:1049300064697479006C647200706F7456616C7590
:1049400065004E6F646520322053656E74204A53B3
:104950004F4E3A20007377697463685374617274C0
:1049600000737769746368446972004E6F646520F0
:1049700031204A534F4E2052656365697665643A2B
:104980002000207C204E6F64652049443A2000209E
:104990007C2054656D70657261747572653A200093
:1049A000207C2048756D69646974793A20004661FD
:1049B000696C656420746F207061727365204A535E
:1049C0004F4E2066726F6D204E6F646520313A2025
:1049D000004F6B00456D707479496E7075740049B5
:1049E0006E636F6D706C657465496E7075740049A7
:1049F0006E76616C6964496E707574004E6F4D65BA
:0E4A00006D6F727900546F6F44656570000031
:020000040003F7
:10E000000D9489F10D94B2F10D94B2F10D94B2F129
:10E010000D94B2F10D94B2F10D94B2F10D94B2F1F0
:10E020000D94B2F10D94B2F10D94B2F10D94B2F1E0
:10E030000D94B2F10D94B2F10D94B2F10D94B2F1D0
:10E040000D94B2F10D94B2F10D94B2F10D94B2F1C0
:10E050000D94B2F10D94B2F10D94B2F10D94B2F1B0
:10E060000D94B2F10D94B2F10D94B2F10D94B2F1A0
:10E070000D94B2F10D94B2F10D94B2F10D94B2F190
:10E080000D94B2F10D94B2F10D94B2F10D94B2F180
:10E090000D94B2F10D94B2F10D94B2F10D94B2F170
:10E0A0000D94B2F10D94B2F10D94B2F10D94B2F160
:10E0B0000D94B2F10D94B2F10D94B2F10D94B2F150
:10E0C0000D94B2F10D94B2F10D94B2F10D94B2F140
:10E0D0000D94B2F10D94B2F10D94B2F10D94B2F130
:10E0E0000D94B2F141546D656761323536300041AF
:10E0F000726475696E6F206578706C6F72657220DE
:10E1000073746B3530305632206279204D4C530099
:10E11000426F6F746C6F616465723E004875683F52
:10E1200000436F6D70696C6564206F6E203D200048
:10E130004350552054797065202020203D20005FF9
:10E140005F4156525F415243485F5F3D2000415658
:10E1500052204C696243205665723D20004743437C
:10E160002056657273696F6E203D20004350552024
:10E1700049442020202020203D20004C6F7720663D
:10E18000757365202020203D20004869676820665F
:10E190007573652020203D200045787420667573D6
:10E1A00065202020203D20004C6F636B2066757336
:10E1B000652020203D20004D617220203720323024
:10E1C000313300312E362E3800342E332E350056A2
:10E1D00023202020414444522020206F7020636F70
:10E1E00064652020202020696E73747275637469E1
:10E1F0006F6E2061646472202020496E74657272B3
:10E20000757074006E6F20766563746F7200726A49
:10E210006D702020006A6D70200057686174207056
:10E220006F72743A00506F7274206E6F7420737541
:10E2300070706F72746564004D7573742062652030
:10E2400061206C6574746572002000577269747483
:10E25000696E672045450052656164696E672045B7
:10E26000450045452065727220636E743D00504F35
:10E27000525400303D5A65726F2061646472003FF1
:10E280003D43505520737461747300403D454550C3
:10E29000524F4D207465737400423D426C696E6B41
:10E2A000204C454400453D44756D70204545505215
:10E2B0004F4D00463D44756D7020464C415348001B
:10E2C000483D48656C70004C3D4C69737420492F83
:10E2D0004F20506F72747300513D51756974005234
:10E2E0003D44756D702052414D00563D73686F7707
:10E2F00020696E7465727275707420566563746FF0
:10E30000727300593D506F727420626C696E6B00BD
:10E310002A0011241FBECFEFD1E2DEBFCDBF01E046
:10E320000CBF12E0A0E0B2E0EEE1FDEF03E00BBFB6
:10E3300002C007900D92A030B107D9F712E0A0E01B
:10E34000B2E001C01D92AE30B107E1F70F9460F367
:10E350000D948DFE01E20EBF0FEF0DBF11241FBE05
:10E360000D9460F30D9400F020E030E040ED57E0B4
:10E3700005C0FA013197F1F72F5F3F4F2817390792
:10E38000C0F308959C01260F311DC901A0E0B0E043
:10E390002F5F3F4FABBFFC018791882361F08093D3
:10E3A000C6008091C00086FFFCCF8091C0008064D1
:10E3B0008093C000EACF08958DE08093C6008091DD
:10E3C000C00086FFFCCF8091C00080648093C000B5
:10E3D0008AE08093C6008091C00086FFFCCF8091C8
:10E3E000C00080648093C00008950F94C2F10F9420
:10E3F000DCF10895FC019081992359F09093C600B7
:10E400008091C00086FFFCCF8091C0008064809323
:10E41000C0003196992379F70895282F982F929567
:10E420009F70892F805D8A3308F0895F8093C600D2
:10E430008091C00086FFFCCF8091C00080648093F3
:10E44000C000822F8F70982F905D9A3308F0995FEB
:10E450009093C6008091C00086FFFCCF8091C000E1
:10E4600080648093C00008959C01FB01853691056E
:10E470001CF46330710594F0C90164E670E00F94F8
:10E480002EFE605D7F4F6093C6008091C00086FFC6
:10E49000FCCF8091C00080648093C0002B30310598
:10E4A00014F43297B4F0C90164E670E00F942EFEC4
:10E4B0006AE070E00F942EFE605D7F4F6093C600AF
:10E4C0008091C00086FFFCCF8091C0008064809363
:10E4D000C000C9016AE070E00F942EFEC0968093E0
:10E4E000C6008091C00086FFFCCF8091C000806490
:10E4F0008093C00008951F93182F8EE692EE60E07F
:10E500000F94C2F11093C6008091C00086FFFCCF2B
:10E510008091C00080648093C0000F94DCF11F9153
:10E5200008952F923F924F925F926F927F928F92B7
:10E530009F92AF92BF92CF92DF92EF92FF920F9392
:10E540001F93DF93CF93CDB7DEB762970FB6F894E2
:10E55000DEBF0FBECDBF382E622ECA01DB015C01CB
:10E560006D01772420E2222E2E010894411C511CBB
:10E570008BC081E0A81680E0B80681E0C80680E084
:10E58000D80628F0C601AA27BB270F940DF2BB2797
:10E59000AD2D9C2D8B2D0F940DF28A2D0F940DF225
:10E5A0002092C6008091C00086FFFCCF8091C00001
:10E5B00080648093C0009DE29093C6008091C0006B
:10E5C00086FFFCCF8091C00080648093C0002092C1
:10E5D000C6008091C00086FFFCCF8091C00080649F
:10E5E0008093C00019828601750188249924A1E0D6
:10E5F0003A1651F03A1620F0B2E03B1661F409C029
:10E600000BBFF701779007C0C7010F9477FE782EF4
:10E6100002C0F7017080872D0F940DF22092C60082
:10E620008091C00086FFFCCF8091C0008064809301
:10E63000C000872D8052F401EF70F0708F3520F408
:10E64000E40DF51D708204C0E40DF51D8EE280839B
:10E650000894E11CF11C011D111D0894811C911CE2
:10E6600090E18916910409F0C2CF80E190E0A0E02A
:10E67000B0E0A80EB91ECA1EDB1E198AC2010F9493
:10E68000FAF10F94DCF16A94662009F072CF629679
:10E690000FB6F894DEBF0FBECDBFCF91DF911F91B3
:10E6A0000F91FF90EF90DF90CF90BF90AF909F9031
:10E6B0008F907F906F905F904F903F902F90089534
:10E6C0002F923F924F925F926F927F928F929F9282
:10E6D000AF92BF92CF92DF92EF92FF920F931F9370
:10E6E000DF93CF93CDB7DEB7CD53D1400FB6F894BB
:10E6F000DEBF0FBECDBF01E20EBF0FEF0DBF94B75F
:10E70000F894A89514BE80916000886180936000A1
:10E7100010926000789493FF05C0E0910002F091A0
:10E7200001021995279A2F9A8091C00082608093E8
:10E73000C00080E18093C40088E18093C1000000A4
:10E74000EE24FF24870144E0A42EB12CCC24DD2448
:10E7500024C0C5010197F1F70894E11CF11C011DCB
:10E76000111D21E2E2162EE4F20620E0020720E06D
:10E77000120718F031E0C32ED12CC801B70127ECE5
:10E780003BE140E050E00F9441FE611571058105C9
:10E79000910519F485B1805885B98091C00087FD35
:10E7A00003C0C114D104A9F2A6014F5F5F4FC25E3E
:10E7B000DE4F59834883CE51D140C25EDE4F8881FF
:10E7C0009981CE51D140019711F00D9410FEC05D9A
:10E7D000DE4F19821882C053D14060E0C15DDE4F28
:10E7E0001882CF52D14088249924C35DDE4F19820C
:10E7F0001882CD52D140C05EDE4F188219821A8233
:10E800001B82C052D140CE5CDE4F188219821A8220
:10E810001B82C253D140EE24FF2487010BBFF701B6
:10E8200007911691C45CDE4F19830883CC53D14005
:10E830000D940BFEC25EDE4F28813981CE51D1404E
:10E840002130310509F52091C600C25EDE4F1982E4
:10E850001882CE51D14022C02F5F3F4F4F4F5F4FA4
:10E86000213082E138078AE7480780E0580780F0C6
:10E87000C45CDE4FE881F981CC53D140EF5FFF4F9C
:10E8800019F0EE27FF27099420E030E040E050E047
:10E890008091C00087FFE0CF2091C600C35DDE4FAE
:10E8A00048815981CD52D1404F5F5F4FC35DDE4FEC
:10E8B00059834883CD52D140213209F063C64A3092
:10E8C000510508F05FC60894811C911C53E0851621
:10E8D000910409F059C600E010E018C081E280936D
:10E8E000C6008091C00086FFFCCF8091C00080648C
:10E8F0008093C0002F5F3F4F2931310579F70F9486
:10E90000DCF10F5F1F4F0530110519F020E030E0FA
:10E91000E5CF10920A0210920B0210920C02109294
:10E920000D02109206021092070210920802109235
:10E930000902109202021092030210920402109235
:10E9400005028FEE90EE60E00F94F5F180E191EE1C
:10E9500060E00F94C2F18091C00087FFFCCF9091DE
:10E96000C600903608F09F759032B8F09093C600BC
:10E970008091C00086FFFCCF8091C00080648093AE
:10E98000C000A0E2A093C6008091C00086FFFCCF2B
:10E990008091C00080648093C000983409F4D7C18E
:10E9A0009934B8F4923409F459C1933458F490333B
:10E9B00019F1903308F4E3C59F33A1F1903409F0C5
:10E9C000DEC5BDC0953409F470C1963409F0D7C5D1
:10E9D00098C1923509F42BC2933538F49C3409F46C
:10E9E000F5C1913509F0CBC518C2963509F445C279
:10E9F000993509F0C4C567C483E792EE62E00F94CD
:10EA0000F5F110920602109207021092080210927D
:10EA1000090210920A0210920B0210920C0210923C
:10EA20000D0213C18FE792EE62E00F94F5F18FEEC5
:10EA300090EE60E00F94F5F181E291EE60E00F94CA
:10EA4000C2F187EB91EE60E00F94F5F180E391EE77
:10EA500060E00F94C2F184EE90EE60E00F94F5F167
:10EA60008FE391EE60E00F94C2F186E090E061E008
:10EA700070E00F9434F20F94DCF18DE591EE60E0DC
:10EA80000F94C2F189EC91EE60E00F94F5F18EE401
:10EA900091EE60E00F94C2F183EC91EE60E00F9490
:10EAA000F5F18CE691EE60E00F94C2F18EE10F94E7
:10EAB0000DF288E90F940DF281E00F940DF20F949E
:10EAC000DCF18BE791EE60E00F94C2F119E0E0E039
:10EAD000F0E010935700E4918E2F0F940DF20F94F5
:10EAE000DCF18AE891EE60E00F94C2F1E3E0F0E03F
:10EAF00010935700E4918E2F0F940DF20F94DCF1D8
:10EB000089E991EE60E00F94C2F1E2E0F0E0109349
:10EB10005700E4918E2F0F940DF20F94DCF188EAE8
:10EB200091EE60E00F94C2F1E1E0F0E01093570045
:10EB30001491812F0F940DF20F94DCF107CF8BE825
:10EB400092EE62E00F94F5F18BE492EE60E00F94A8
:10EB5000F5F10F94DCF100E010E019C0C8016F2D51
:10EB60000F947FFEFF2031F489E492EE60E00F9471
:10EB7000C2F10BC0F092C6008091C00086FFFCCFAE
:10EB80008091C00080648093C0000F5F1F4FC80158
:10EB900081519F41A0E0B0E0ABBFFC01F790BAE229
:10EBA000FB1621F0E2E000301E07C1F60F94DCF105
:10EBB0000F94DCF187E592EE60E00F94F5F10F948D
:10EBC000DCF1CC24DD2400E010E01EC0C8010F946D
:10EBD00077FEF82E882331F489E492EE60E00F94FA
:10EBE000C2F10BC08093C6008091C00086FFFCCFAD
:10EBF0008091C00080648093C000FE1419F00894D6
:10EC0000C11CD11C0F5F1F4FC80181519F41A0E063
:10EC1000B0E0ABBFFC01E790FAE2EF1621F022E092
:10EC20000030120799F60F94DCF10F94DCF182E6C4
:10EC300092EE60E00F94C2F1C60161E070E00F94C3
:10EC400034F20F94DCF10F94DCF110920202109276
:10EC50000302109204021092050278CE89E992EE26
:10EC600062E00F94F5F1279A2F9A16C02F9880E052
:10EC700090E0E0EDF7E03197F1F7019684369105E9
:10EC8000C1F72F9A80E090E0E0EDF7E03197F1F7DF
:10EC9000019684369105C1F78091C00087FFE6CFC9
:10ECA0008091C00087FFFCCF64C485EA92EE62E0E9
:10ECB0000F94F5F140910202509103026091040219
:10ECC0007091050281E020E10F9491F2809102029F
:10ECD00090910302A0910402B091050280509F4FD1
:10ECE000AF4FBF4F8093020290930302A0930402A0
:10ECF000B093050280509041A040B04008F426CE69
:10ED0000A4CF83EB92EE62E00F94F5F140910602FE
:10ED100050910702609108027091090280E020E1A1
:10ED20000F9491F28091060290910702A09108023F
:10ED3000B091090280509F4FAF4FBF4F80930602A2
:10ED400090930702A0930802B0930902FFCD80ECD4
:10ED500092EE62E00F94F5F183E792EE60E00F949B
:10ED6000F5F18FE792EE60E00F94F5F18BE892EE0B
:10ED700060E00F94F5F189E992EE60E00F94F5F10F
:10ED800085EA92EE60E00F94F5F183EB92EE60E09D
:10ED90000F94F5F180EC92EE60E00F94F5F187ECC2
:10EDA00092EE60E00F94F5F188ED92EE60E00F9442
:10EDB000F5F18FED92EE60E00F94F5F18AEE92EEB0
:10EDC00060E00F94F5F183E093EEBDCD87EC92EE19
:10EDD00062E00F94F5F181E40F947BF282E40F94EA
:10EDE0007BF283E40F947BF284E40F947BF285E45E
:10EDF0000F947BF286E40F947BF287E40F947BF20E
:10EE000088E40F947BF28AE40F947BF28BE40F94F6
:10EE10007BF28CE40F947BF299CD88ED92EE62E068
:10EE20000F94F5F1772473948824992409C48FED05
:10EE300092EE62E00F94F5F140910A0250910B02BC
:10EE400060910C0270910D0282E020E10F9491F22A
:10EE500080910A0290910B02A0910C02B0910D02D8
:10EE600080509F4FAF4FBF4F80930A0290930B0289
:10EE7000A0930C02B0930D0269CD8AEE92EE62E08F
:10EE80000F94F5F184EE90EE60E00F94F5F18FECC5
:10EE900091EE60E00F94F5F1662477244301CC5D98
:10EEA000DE4F19821882C452D140D401C301B695F5
:10EEB000A79597958795CA5DDE4F88839983AA8326
:10EEC000BB83C652D140CC5DDE4FA881B981C4520C
:10EED000D1401196CC5DDE4FB983A883C452D14096
:10EEE000CD0162E070E00F9434F2B0E2B093C6005E
:10EEF0008091C00086FFFCCF8091C0008064809329
:10EF0000C000EDE2E093C6008091C00086FFFCCF18
:10EF10008091C00080648093C000F0E2F093C6004E
:10EF20008091C00086FFFCCF8091C00080648093F8
:10EF3000C000CA5DDE4FE880F9800A811B81C6529D
:10EF4000D140BB27A12F902F8F2D0F940DF2CA5DBA
:10EF5000DE4F8881C652D1400F940DF2B0E2FB2EF5
:10EF6000F092C6008091C00086FFFCCF8091C00067
:10EF700080648093C0000DE30093C6008091C000C0
:10EF800086FFFCCF8091C00080648093C00010E2B7
:10EF90001093C6008091C00086FFFCCF8091C00016
:10EFA00080648093C0008BBEF3012791C65DDE4F65
:10EFB0002883CA52D140A22EBB24CC24DD2408943D
:10EFC000611C711C811C911C8BBEF3018791282E42
:10EFD0003324442455240894611C711C811C911C09
:10EFE0008BBEF3013791C55DDE4F3883CB52D140E4
:10EFF0000894611C711C811C911C8BBEF30147910C
:10F00000C45DDE4F4883CC52D140ADEFEA2EAFEF66
:10F01000FA2EAFEF0A2FAFEF1A2F6E0C7F1C801E57
:10F02000911E142D032DF22CEE24EA0CFB1C0C1D5A
:10F030001D1D0F940DF220E22093C6008091C000A8
:10F0400086FFFCCF8091C00080648093C000C65DC5
:10F05000DE4F8881CA52D1400F940DF230E23093D6
:10F06000C6008091C00086FFFCCF8091C000806404
:10F070008093C000C45DDE4F8881CC52D1400F9494
:10F080000DF240E24093C6008091C00086FFFCCFA5
:10F090008091C00080648093C000C55DDE4F888190
:10F0A000CB52D1400F940DF250E25093C6008091A4
:10F0B000C00086FFFCCF8091C00080648093C000B8
