:020000040000FA
:100000000C9453010C9484010C9484010C9484018D
:100010000C9484010C9484010C9484010C9484014C
:100020000C9484010C9484010C9484010C9484013C
:100030000C9484010C9484010C9484010C9484012C
:100040000C9484010C9484010C9484010C9484011C
:100050000C9484010C9484010C9484010C949B18DE
:100060000C9484010C9465180C943B180C94840136
:100070000C9484010C9484010C9484010C948401EC
:100080000C9484010C9484010C9484010C948401DC
:100090000C9405180C94DB170C9484010C948401C7
:1000A0000C9484010C9484010C9484010C948401BC
:1000B0000C9484010C9484010C9484010C948401AC
:1000C0000C9484010C9484010C9484010C9484019C
:1000D0000C9484010C9484010C9484010C9484018C
:1000E0000C9484010C942D030C94A1040C94DF0453
:1000F0000C9482100C947E100C941A050C9400023F
:100100000C94E5180C94F0040C9416050C94EA0475
:100110000C94F4040C94D8170C943C020C949C049A
:100120000C94E0020C94E7040C9490020C940805E3
:100130000C94FA040C949E020C942D020C940C0561
:100140000C94E3040C9410050C9402050C94DB044D
:100150000C94FE0400002100240027002A002D003A
:100160003000330001010000040107010A01000012
:100170002200250028002B002E003100340002014F
:100180000000050108010B0100000A0B02090C0D1B
:100190000E0807030401000000000000000000003A
:1001A000000000000000000000000000000000004F
:1001B000000000001211100000000000000000000C
:1001C000000000000000000000000000000000002F
:1001D00020002300260029002C002F0032000001FF
:1001E0000000030106010901CDCCCC3D0AD7233C18
:1001F00017B7D13877CC2B329595E6241FB14F0A2B
:10020000000020410000C84200401C4620BCBE4CFB
:10021000CA1B0E5AAEC59D740505050507050808DD
:100220000808020202020A0A080804040404010180
:100230000101010101010303030303030303040795
:1002400007070C0C0C0C0C0C0C0C0202020206062C
:100250000606060606060B0B0B0B0B0B0B0B01021F
:1002600010202008081020401020408002010201C8
:100270000804020101020408102040808040201080
:1002800008040201800402018040201008040201D9
:100290000804020101020408102040800102040841
:1002A00010204080E51811241FBECFEFD1E2DEBF41
:1002B000CDBF00E00CBF24E0A8E5B3E001C01D9273
:1002C000A23BB207E1F713E0A0E0B2E0EEE4FDE309
:1002D00000E00BBF02C007900D92A835B107D9F717
:1002E00011E0C3E5D1E000E006C021970109802FAD
:1002F000FE010E94871CC235D10780E00807A9F7DC
:100300000E9458190C94A51E0C940000FC01A089B1
:10031000B18982E08C93A485B5851C92A685B785AA
:100320008FEC8C93108EA489B58986E08C93A2897A
:10033000B3898C9180618C93A289B3898C918860F8
:100340008C93A289B3898C9180688C930288F389FD
:10035000E02D80818F7D80830895CF93DF93EC0122
:1003600088819981DC01ED91FC910190F081E02D73
:1003700064E270E01995009741F02FE1FC012383BE
:1003800021E02283DF91CF91089521E02A83FACFE3
:10039000CF92DF92EF92FF92CF93DF93B091A204BE
:1003A000A0E08111AB2F8091A30490E0880F991FEA
:1003B000AC0142535E4FC090A804D090A904E090D5
:1003C000AA04F090AB0430E020E0FA01C591D4918A
:1003D000E881B90190E080E0EB23EA130AC02F5FC7
:1003E0003F4F6C157D058E059F0578F36FEF7FEF0E
:1003F000CB01DF91CF91FF90EF90DF90CF900895E8
:10040000AF92BF92CF92DF92EF92FF920F931F9322
:10041000CF93DF936C017B018B01040F151FEB0160
:100420005E01AE18BF08C017D10759F06991D60117
:10043000ED91FC910190F081E02DC6011995892B79
:1004400079F7C501DF91CF911F910F91FF90EF9048
:10045000DF90CF90BF90AF900895FC01538D448DF5
:10046000252F30E0842F90E0821B930B541710F05F
:10047000CF96089501970895FC01918D828D98176C
:1004800061F0A28DAE0FBF2FB11D5D968C91928D44
:100490009F5F9F73928F90E008958FEF9FEF089575
:1004A0002FB7F89480915D0390915E03A0915F0354
:1004B000B09160032FBF8093690390936A03A09368
:1004C0006B03B0936C0381E693E00E943C0297FFBC
:1004D00026C02FB7F89480915D0390915E03A091A0
:1004E0005F03B09160032FBF4091690350916A038D
:1004F00060916B0370916C03841B950BA60BB70B7B
:1005000040916503509166036091670370916803A1
:1005100084179507A607B707B0F28FEF9FEF0895EE
:10052000FC01918D828D981731F0828DE80FF11DBD
:10053000858D90E008958FEF9FEF0895FC01918DD8
:10054000228D892F90E0805C9F4F821B91098F73D1
:100550009927089581E693E00E949E0221E0892B6D
:1005600009F420E0822F08958EEF93E00E949E020E
:1005700021E0892B09F420E0822F0895FC01A48D4D
:10058000A80FB92FB11DA35ABF4F2C91848D90E0B5
:1005900001968F739927848FA689B7892C93A08998
:1005A000B1898C91837080648C93938D848D981322
:1005B00006C00288F389E02D80818F7D80830895B5
:1005C000EF92FF920F931F93CF93DF93EC0181E0A3
:1005D000888F9B8D8C8D98131AC0E889F98980814A
:1005E00085FF15C09FB7F894EE89FF896083E8897D
:1005F000F98980818370806480839FBF81E090E06F
:10060000DF91CF911F910F91FF90EF900895F62EFB
:100610000B8D10E00F5F1F4F0F731127E02E8C8D95
:100620008E110CC00FB607FCFACFE889F9898081DA
:1006300085FFF5CFCE010E94BE02F1CFEB8DEC0F0E
:10064000FD2FF11DE35AFF4FF0829FB7F8940B8FF7
:10065000EA89FB8980818062CFCFCF93DF93EC0161
:10066000888D8823B9F0AA89BB89E889F9898C919A
:1006700085FD03C0808186FD0DC00FB607FCF7CF56
:100680008C9185FFF2CF808185FFEDCFCE010E9456
:10069000BE02E9CFDF91CF91089580E090E0892BF1
:1006A00029F00E94B40281110E94000080E090E0D5
:1006B000892B29F00E94AA0281110E94000080E08B
:1006C00090E0892B49F080E090E0892B29F00E948E
:1006D000000081110E94000080E090E0892B49F029
:1006E00080E090E0892B29F00E94000081110C9499
:1006F00000000895CF93DF9390E0FC01E25AFD4F94
:100700002491885E9D4FFC0184918823D1F090E074
:10071000880F991FFC01EC5AFE4FA591B491FC0182
:10072000E259FE4FC591D491623071F49FB7F894AD
:100730003C91822F809583238C93E8812E2B2883F4
:100740009FBFDF91CF9108958FB7F894EC912E2B36
:100750002C938FBFF6CF3FB7F894809159039091B7
:100760005A03A0915B03B0915C0326B5A89B05C01A
:100770002F3F19F00196A11DB11D3FBFBA2FA92F20
:10078000982F8827BC01CD01620F711D811D911D1D
:1007900042E0660F771F881F991F4A95D1F7089589
:1007A0008F929F92AF92BF92CF92DF92EF92FF9281
:1007B0004B015C010E94AB036B017C010E94AB0307
:1007C0006C197D098E099F09683E7340810591056A
:1007D000A8F321E0821A9108A108B10888EEC80E9A
:1007E00083E0D81EE11CF11C81149104A104B10422
:1007F00029F7FF90EF90DF90CF90BF90AF909F9040
:100800008F9008958F929F92AF92BF92EF92FF9236
:100810000F931F93CF93DF93CDB7DEB7C054D14072
:100820000FB6F894DEBF0FBECDBF2FB7F8948091FE
:100830005D0390915E03A0915F03B09160032FBFB1
:100840004091A4045091A5046091A6047091A7045E
:100850008C019D01041B150B260B370BB901A80158
:10086000403D574061057105A0F48091AC04C05C27
:10087000DE4F0FB6F894DEBF0FBECDBFDF91CF9134
:100880001F910F91FF90EF90BF90AF909F908F902E
:1008900008958093A4049093A504A093A604B09314
:1008A000A70410929F0410929E0410929D0410922F
:1008B0009C0410929B0462E08091A0040E947A0341
:1008C00061E070E080E090E00E94D00361E0809100
:1008D000A0040E947A032091A00430E0F901E857B7
:1008E000FE4F8491F901E25AFD4F9491285E3D4FED
:1008F000F9012491222309F433C0882311F1815096
:100900008231F8F4E82FF0E08827E657FB4F8F4F4D
:100910000C94871CE304E7049C04DB04DF04A104BB
:10092000EA04F004F404FA04FE04020508050C05C8
:10093000A104100516051A05809180008F77809319
:100940008000E22FF0E0EE0FFF1FE259FE4FA5916D
:10095000B4918FB7F894EC9190959E239C938FBFA0
:100960008091A1048551823008F068C08BE291E14A
:100970000197F1F762E08091A0040E947A038091D0
:10098000AD0490E08230910538F0880F991F880FF0
:10099000991F05970197F1F7F89480E00E94C8012C
:1009A0006F3F7F4F8F4F9F4F09F04FC01092AC04A5
:1009B000789480E05CCF809180008F7DC0CF809163
:1009C0008000877FBCCF84B58F7784BDBACF84B5D4
:1009D0008F7DFBCF8091B0008F778093B000B1CF37
:1009E0008091B0008F7DF9CF809190008F778093B8
:1009F0009000A7CF809190008F7DF9CF80919000DB
:100A0000877FF5CF8091A0008F778093A00099CF4A
:100A10008091A0008F7DF9CF8091A000877FF5CFD6
:100A2000809120018F77809320018BCF80912001CE
:100A30008F7DF9CF80912001877FF5CF64E170E051
:100A400080E090E00E94D00395CF81E00E94C80131
:100A50006F3F7F4F8F4F9F4F09F4A8CF9E012F5FAD
:100A60003F4F79015E013FEBA31A3EEFB30A8701C6
:100A700080E00E94C801F8016083718382839383C0
:100A800081E00E94C801F80164837583868397839F
:100A9000085F1F4FA016B10659F7789430E020E0A8
:100AA000F70180809180A280B38044815581668166
:100AB0007781FFEF8F169F06AF06BF0631F04F3FDD
:100AC0000FEF50076007700719F41092AC0471CF54
:100AD000F90183E0F595E7958A95E1F7E556FB4F37
:100AE0008081880F84169506A606B70618F18083C4
:100AF0002F5F3F4F18E0E10EF11C2832310581F6DF
:100B000040919F0420919B0480919C04280F3327DF
:100B1000331F80919D04280F311D80919E04820F08
:100B2000932F911D99274817190679F681E0809334
:100B3000AC049DCE8160DBCF6F3FA9F0E62FE2953C
:100B4000EF7044E0E49F90011124DC01ED91FC91F1
:100B5000E20FF31F6F7082819381B6E06B9F800D6F
:100B6000911D1124089590E080E00895982F80331E
:100B70006CF08A3324F08F3524F08B3724F481E035
:100B8000089581341CF081E09B350CF080E00895DD
:100B9000FC018485811114C0A781B085818592856F
:100BA0002FEF3FEFA817B90730F4CD0101969087DA
:100BB00087832C9130E037FD20E0238781E0848714
:100BC000838508951F93CF93DF93EC01162F0E9426
:100BD000C805811306C01C8681E0DF91CF911F916B
:100BE000089580E0FACF0F931F93CF93DF938C018A
:100BF000EB018991882369F0C8010E94C805882308
:100C000079F0FE013197908198130DC0F801148698
:100C1000F0CF90E080E0DF91CF911F910F91089588
:100C200082E090E0F8CF83E090E0F5CFCF93DF93C0
:100C3000EC01CE010E94C8058B304CF489305CF485
:100C4000882359F081E08E8390E080E00BC08D30E6
:100C500011F08032B9F71C86ECCF8E81811105C06E
:100C600081E090E0DF91CF91089582E090E0FACFAB
:100C7000FC01A281B3818081918130E020E0A8173E
:100C8000B90738F4CD010196938382836C9321E0F8
:100C900030E084819581820F931F9583848308952A
:100CA000CF93DF93FC0182819381EB01460F571FA5
:100CB000A281B38120813181A217B30758F4C417F0
:100CC000D50741F02991BD016F5F7F4F7383628328
:100CD0002C93EECFA81BB90B84819581A80FB91F67
:100CE000B583A483DF91CF9108958F929F92AF92A5
:100CF000BF92CF92DF92EF92FF920F931F93CF9309
:100D0000DF93CDB7DEB766970FB6F894DEBF0FBEA0
:100D1000CDBF6C018E01095E1F4F78018AE0882EDD
:100D2000912CA12CB12CCB01BA01A50194010E94F8
:100D3000651C942F852F605DF80162938F01A901D6
:100D4000692F782F411551056105710561F7A701DC
:100D50004E1B5F0BBF01C6010E94500666960FB680
:100D6000F894DEBF0FBECDBFDF91CF911F910F91E1
:100D7000FF90EF90DF90CF90BF90AF909F908F90BB
:100D80000895DC0152969C915297915084E0989F6F
:100D9000900111245096ED91FC91E20FF31F2281F6
:100DA00033812115310579F041818081481758F44C
:100DB00081E0840F818386E0489F200D311D11243E
:100DC0002115310521F460E070E08FEF0895B9013D
:100DD000892F8295807F840F0895DF92EF92FF9292
:100DE0000F931F93CF93DF93EC017B01D12C688984
:100DF00079898A89D816E0F484E0D89E800111248C
:100E0000060F171FD80112966D917C91611571051F
:100E100041F0D701ED91FC910280F381E02DC701F3
:100E20001995F8011382128210821182D394DFCFB8
:100E30001A8A8FEF8C8BC617D70761F0D701ED9117
:100E4000FC910280F381E02DC7011995D98BC88BE5
:100E500084E08B8BDF91CF911F910F91FF90EF90EA
:100E6000DF9008954F925F926F927F928F929F9240
:100E7000AF92BF92CF92DF92EF92FF920F931F93A8
:100E8000CF93DF9300D01F921F92CDB7DEB7DC0166
:100E90002C912B32E1F12D32D9F50196EE24E39419
:100EA000FC01208130ED320F3A3010F02E3291F5F6
:100EB0008C0160E070E0CB01F801219130ED832ED0
:100EC000820E39E0381508F444C06A3949E97407DC
:100ED000840749E1940708F046C0AAE0B0E09B010E
:100EE000AC010E94181B912CB12CA12C24013501BE
:100EF000409450946094709446165706680679069C
:100F000090F1680D791D8A1D9B1D8F01D5CF01962B
:100F1000E12CC6CF198229813A814B815C816D8198
:100F200070E080E090E00F900F900F900F900F9086
:100F3000DF91CF911F910F91FF90EF90DF90CF90B5
:100F4000BF90AF909F908F907F906F905F904F90E9
:100F50000895211108C0EE2051F16130710581051D
:100F600050E89507A0F0F12CBAE08B2E912CA12C23
:100F7000B12C6115710530E883079105F8F0A501E2
:100F800094010E94651CCA01B901F394F2CF22E0DA
:100F900029839B01AC0188279927DC01821B930BD5
:100FA000A40BB50B8A839B83AC83BD83B4CF23E0B2
:100FB00029836A837B838C839D83ADCFF801D8011D
:100FC0002D918D0130ED320F3A3010F4F394F6CFBD
:100FD0002E3201F58F010F5F1F4FF8010F5F1F4F7A
:100FE0002081A0EDDA2ED20EB9E0BD1598F06C3C50
:100FF000ECEC7E07ECE08E07910578F7AAE0B0E014
:101000009B01AC010E94181B6D0D711D811D911D6E
:10101000FA94E3CF20812F7D10E000E0253409F021
:1010200050C021812D32B1F53296CC24C394DF011A
:1010300010E000E02F2D0F2C000C330B5AE0B52EE2
:10104000FD01DD9040ED4D0D4A30B0F5B09EA001A0
:10105000B19E500D11240D2DDD0C110B0053110903
:10106000040F151FA801420F531F4732510544F3C7
:10107000CC20B9F080E090E0A0E0B0E8E11003C03F
:1010800080E090E0DC0121E029838A839B83AC83AC
:10109000BD8341CF2B3219F03196C12CC8CF329687
:1010A000FCCF80E090E0A0E8BFEFE110ECCF80E063
:1010B00090E0A0E8BFE7E7CFCC2019F011950195AB
:1010C00011092081211126CF0F0D111DF7FC1A9552
:1010D0000E94F91930E0C32E32E0D32E101611060B
:1010E0003CF011950195110948EEC42E41E0D42E33
:1010F000F12C0115110591F000FF0CC024E0F29EC7
:10110000F0011124EC0DFD1D25913591459154916F
:101110000E945A1A15950795F394EBCFE110905859
:1011200021E029836A837B838C839D83F4CECF92D5
:10113000DF92EF92FF92CF93DF9300D01F921F9226
:10114000CDB7DEB70E9432073A834B835C836D8351
:10115000CA80DB80EC80FD80223051F12330A1F188
:10116000213079F520E030E040E057ECC701B601CE
:101170000E94471C87FD25C020E03EEF4FEF56E45C
:10118000C701B6010E94F4191816DCF0C701B601B8
:101190000E94111C6B01C6010F900F900F900F90D1
:1011A0000F90DF91CF91FF90EF90DF90CF90089557
:1011B000D701C6019058AF4FBF4F0097A140B1056E
:1011C00050F3D12CC12CE7CFC11480E8D806E1043C
:1011D000F10408F3F6CFDB01ED91FC911197028049
:1011E000F381E02DBC01CD011994AF92BF92CF9253
:1011F000DF92EF92FF920F931F93CF93DF93EC0157
:101200008B018C8180FF24C0A881B981FB0183817F
:10121000948130E020E00097D9F0A817B907D1F504
:10122000F8016081718112968C911297815012960B
:101230008C93129781110CC08D919C91119721155F
:10124000310529F1F90191838083CD010E94EB08DA
:101250008C81807631F1209721F1F8805801F5E1F9
:10126000AF0EB11C8FEFF816D1F06F2DC5010E94A3
:101270009C056C01FC01E580B8010E94F508F801AD
:10128000818DF6018083F801F18EFE2CEBCF9483E3
:101290008383DBCF9C01FC0180819181BCCFF882EC
:1012A000F9821C82DF91CF911F910F91FF90EF90F7
:1012B000DF90CF90BF90AF9008950F931F93CF937F
:1012C000DF93EC01088119818B819C81009749F0A3
:1012D000FC01208131813C832B83B8010E94EB0803
:1012E000F3CF68817981CE010596DF91CF911F916F
:1012F0000F910C94ED06EF92FF920F931F93CF93F3
:10130000DF937C018B01EA016F3F710509F0B0F4B6
:10131000E881F9810480F581E02DAB014B5F5F4FDF
:10132000BC01CE011995009749F0FC010383DF91C0
:10133000CF911F910F91FF90EF900895E881F9816F
:101340000280F381E02DB701CE01199590E080E095
:10135000EECFFF920F931F93CF93DF93EC01F62E06
:101360008A819B810097C9F06C817D81FC0123817A
:101370002617170691F408811981F80140815181DF
:10138000660F771F6F5F7F4F0E947B09009719F4EC
:1013900021E0F80122839B838A838A819B810097C5
:1013A00059F02C813D81A9014F5F5F4F5D834C83D4
:1013B000820F931FFC01F482DF91CF911F910F9157
:1013C000FF9008959F92AF92BF92CF92DF92EF92DB
:1013D000FF920F931F93CF93DF9300D01F921F9222
:1013E000CDB7DEB78C010E94C805D82EF80114864F
:1013F000F12CE12C60EFC62EC8010E94C805F8014F
:101400001486D81609F4B3C0811113C082E090E0AD
:101410000F900F900F900F900F90DF91CF911F9131
:101420000F91FF90EF90DF90CF90BF90AF909F9083
:1014300008958C3509F099C0C8010E94C805882319
:1014400029F3E0E3F2E0853709F083C0F801148660
:1014500054E0952EB12CA12CC8010E94C805882308
:10146000A9F2813434F48053803130F083E090E08D
:10147000CFCF8F7D8753F8CF44E0AA0CBB1C4A9591
:10148000E1F7A82AF80114869A949110E5CFC501D6
:10149000985D8115944020F47501F3E0FF22ACCFF4
:1014A000C5019C5D81159440A8F483E0B822B70182
:1014B000762F6627770F770F6A297B2990E080E0E7
:1014C0000196603871058105910540F4C8010E94BC
:1014D000A90992CFB50190E080E0F3CF1982262FC1
:1014E0002F7320682A8326E09695879577956795D0
:1014F0002A95D1F76032710580F4606C6B835E01D0
:10150000E4E0AE0EB11CF50162915F01662309F4BF
:1015100073CFC8010E94A909F6CF262F2F73206828
:101520002B8386E0769567958A95E1F760317105A2
:1015300038F4606E6C835E01F5E0AF0EB11CE3CF52
:1015400060686C83CD825E0126E0A20EB11CDBCF09
:1015500032969081992309F489CF8913F9CF81813B
:10156000882309F483CFF8011486682FAFCF8281D6
:101570009381892B19F484E090E04ACF90E080E0D9
:1015800047CFAF92BF92CF92DF92EF92FF920F932D
:101590001F93CF93DF93DC011296ED91FC9113978B
:1015A00014968D919C911597E80FF91F14820D9157
:1015B0001C91119714966D917C91159712968D91AF
:1015C0009C9113979C012C5F3F4FE801EB81FC81BC
:1015D0007B01E20EF31E3097B9F0438146171706E0
:1015E00079F45901AF014C5F5F4FEA14FB0499F1A4
:1015F000E501C9905E01EA01D990AE01CD14A9F3CD
:101600000190F081E02DE7CFED01F801408151819B
:101610000E947B09FC01892B21F481E0D8011296FC
:101620008C93A881B98113968D919C911497918385
:1016300080831496FC93EE9313971B821A82CF013A
:10164000DF91CF911F910F91FF90EF90DF90CF909E
:10165000BF90AF90089582818F5F8283F0CFFB01AE
:1016600001900020E9F73197AF01461B570B0C940E
:1016700000028F929F92AF92BF920F931F93CF93CE
:10168000DF93CDB7DEB7A1970FB6F894DEBF0FBEDC
:10169000CDBF19A2423008F44AE08E010F5D1F4F02
:1016A000842E912CB12CA12CA50194010E94651CC3
:1016B000E62FB901CA01EA3004F5E05DD801EE93E6
:1016C0008D01232B242B252B79F790E080E01097B8
:1016D00029F0BD018EEF93E00E942F0BA1960FB66B
:1016E000F894DEBF0FBECDBFDF91CF911F910F9158
:1016F000BF90AF909F908F900895E95CDFCF0F93DC
:101700001F93CF93DF938C01D0E0C0E0611571058A
:1017100019F00E942F0BEC0163E472E0C8010E94F3
:101720002F0B8C0F9D1FDF91CF911F910F9108956B
:10173000DF92EF92FF920F931F93CF93DF93611588
:10174000710509F460C0EA018B016596DC016C91BA
:10175000CE010E949C05FC01FF24FA94892B09F01C
:10176000F580EE24E394DD24D394309709F44BC044
:10177000EE2069F18481843039F0853091F190E078
:1017800080E0F0E0E0E00FC00190F081E02D90E01B
:1017900080E0309741F0DF010D900020E9F7CD01A6
:1017A00001978E1B9F0BD8010D900020E9F7119730
:1017B000A01BB10BA817B90751F4D8018E0F9F1FBA
:1017C000E817F907A9F031912D913217C9F3ED24EB
:1017D0006F2DCE010E949C05FC01892B31F2F58012
:1017E000C4CF0190F081E02D838190E03496DBCF6F
:1017F0006F2DCE01DF91CF911F910F91FF90EF9050
:10180000DF900C949C0590E080E0DF91CF911F91D8
:101810000F91FF90EF90DF900895FC01408151817E
:1018200062817381CA014A9631F0FA01268D203215
:1018300011F40C94980B90E080E00895CF93DF931F
:1018400000D01F921F92CDB7DEB70E940D0CFC0195
:10185000892B31F08481863091F030F4843020F58A
:1018600060E070E0CB0111C08C30B9F08E3081F1B6
:101870008A30B1F7608171818281938104C0608177
:1018800070E090E080E00E94F9190F900F900F90A7
:101890000F900F90DF91CF910895608171818281C7
:1018A00093810E94FB19F1CF8081918104960E945F
:1018B00032073A834B835C836D836A817B818C81A1
:1018C0009D81223071F32330F1F2213049F6DDCFD2
:1018D0006081718182819381D8CFFB0101900020CA
:1018E000E9F73197AF01461B570B0C945006CF9286
:1018F000DF92EF92FF920F931F93CF93DF938C01B0
:101900006B017A0162E20E943806E601EC0CFD1CD4
:10191000EC16FD0699F06991E0E3F2E0D480DD2059
:10192000C9F0329683816813F9CF6CE5C8010E9433
:1019300038066D2DC8010E943806EACF62E2C80160
:10194000DF91CF911F910F91FF90EF90DF90CF909B
:101950000C9438066111EECF66E472E0C8010E9473
:101960006D0CD6CF2F923F924F925F926F927F92E3
:101970008F929F92AF92BF92CF92DF92EF92FF929F
:101980000F931F93CF93DF93CDB7DEB76B970FB64F
:10199000F894DEBF0FBECDBF7C018B01DC01149635
:1019A0008C9114978A3009F4A0C2F0F4843009F4C1
:1019B00079C268F4833009F490C26DE472E0C80122
:1019C0000E946D0CD80114968D919C9129C285308E
:1019D00009F47BC2863089F78C9162E572E081114F
:1019E00055C067E572E052C08E3009F440C0C8F4BB
:1019F0008C3019F7CD90DD90ED90FC90B701A601E9
:101A0000F7FE0BC06DE2C8010E9438064427552737
:101A1000BA014C195D096E097F09C8010E9475065B
:101A2000FCC1803209F415C2803439F66BE5C80177
:101A30000E943806D701FC90BFEFFB1609F4E9C1FC
:101A4000F801868197816F2D45960E949C057C0147
:101A5000B8010E94B20CD7011596FC90BFEFFB169F
:101A600009F4D7C16CE2C8010E943806E5CFF7013E
:101A700080809180A280B380A5019401C501B4014A
:101A80000E94F419882331F06DE472E0C8010E94CD
:101A90006D0CC3C120E030E0A901C501B4010E9472
:101AA000F419882371F0A5019401C501B4010E94C5
:101AB000331B9B01AC01C501B4010E94F4198823BA
:101AC00019F320E030E0A901C501B4010E94F41926
:101AD00087FF08C06DE2C8010E943806B7FAB094CB
:101AE000B7F8B09420E836E948E15BE4C501B401F9
:101AF0000E94471C87FD83C074E1C72ED12CE0E211
:101B0000EE2EF12C312C212CF601E050FE4F659188
:101B1000759185919491A50194010E94F41918166C
:101B20007CF0F601E851FE4F259135914591549195
:101B3000C501B4010E945A1A4B015C012E0C3F1CD6
:101B4000F594E794F4E0CF1AD1082CEFC2162FEFEA
:101B5000D206D1F63FEF3F8B20E030E0A901C5016E
:101B6000B4010E94471C18160CF051C02CEA35EC49
:101B700047E257E3C501B4010E94F41918160CF4AA
:101B800046C0AF89B4E0AB02C0011124D12CC12CF6
:101B9000FC01E851FE4F2F019C0120503E4F3901BE
:101BA0003F893F3F09F433C0F201EC0DFD1D659103
:101BB00075918591949120E030E040E251E40E94DB
:101BC0005A1AA50194010E94471C18167CF4F301CF
:101BD000EC0DFD1D2591359145915491C501B40140
:101BE0000E945A1A4B015C012E183F08F594E794A5
:101BF0008F8981508F8B94E0C91AD108D1CF50E2E0
:101C0000E52EF12C85E08F8B312C212CA5CFC50141
:101C1000B4010E94181C6B017C012B013C0180E483
:101C200092E4AFE0B0E0888F998FAA8FBB8F96E0E7
:101C30009F8BAAE04A16510461047104E0F0688D9C
:101C4000798D8A8D9B8D2AE030E040E050E00E9443
:101C5000651C288F398F4A8F5B8FBF89B150BF8B2E
:101C6000C301B2012AE030E040E050E00E94651C70
:101C700029013A01DECFC701B6010E94F9199B0183
:101C8000AC01C501B4010E94321B4B015C01688D9F
:101C9000798D8A8D9B8D0E94F9199B01AC01C5013C
:101CA000B4010E945A1A2B013C010E94181C4B01DE
:101CB0005C010E94F9199B01AC01C301B2010E94B1
:101CC000321B9B01AC010E94331B0E94181C860E24
:101CD000971EA81EB91E888D998DAA8DBB8D88165A
:101CE0009906AA06BB06C0F09FEFC91AD90AE90AED
:101CF000F90A2114310439F1AAE0CA16D104E10429
:101D0000F10408F1BFEF2B1A3B0A812C912C5401EE
:101D1000C12CD12C7601C3942AE0422E512C612C87
:101D2000712CC501B401A30192010E94651C672BAF
:101D3000682B692B61F4EF891E164CF449015A0196
:101D4000E150EF8BEECF812C912C5401E5CFB70100
:101D5000A601C8010E947506FF89FF2391F16E015B
:101D600021E1C20ED11CF88F76019AE0492E512C48
:101D7000612C712C388D3150388F3F3F69F0C5018F
:101D8000B401A30192010E94651C605DD6016E93AF
:101D90006D0149015A01EECFBF898B2F90E0BC0144
:101DA00060957095F701E81BF90B31978EE28083FF
:101DB00044275527461B570B6E0D7F1DC8010E94F7
:101DC00050062114310449F165E6C8010E94380625
:101DD000710137FE07C06DE2C8010E943806F19418
:101DE000E194F108FE0177969F018AE0C82ED12C7C
:101DF000C701B6010E94511C805D82937B01672B55
:101E0000B9F7A9014E1B5F0BBF01C8010E94500624
:101E100004C06DE5C8010E943806F80184819581EF
:101E20006B960FB6F894DEBF0FBECDBFDF91CF919A
:101E30001F910F91FF90EF90DF90CF90BF90AF90E8
:101E40009F908F907F906F905F904F903F902F90DA
:101E500008956BE7C8010E943806D701FC90EE2474
:101E6000E394BB24B394BFEFFB16D1F0F801868155
:101E700097816F2D45960E949C056C01B8010E94C8
:101E8000B20CD6011596FC90BFEFFB1639F06AE351
:101E9000E11001C06CE2C8010E943806EB24E3CFD8
:101EA0006DE7B8CF6D917C9150E040E06115710510
:101EB00041F0FB0101900020E9F73197AF01461B8B
:101EC000570BC8010E94770CA8CFED91FC9143817C
:101ED00050E0BF016C5F7F4FF4CFED91FC914381E7
:101EE00050E0BF016C5F7F4F90CF4D915D916D9140
:101EF0007C9193CD4F925F926F927F928F929F923F
:101F0000AF92BF92CF92DF92EF92FF920F931F9307
:101F1000CF936B017C01742EAC019B010E944C1C81
:101F20006DE572E0811126C046015701E894B7F8CB
:101F30002FEF3FEF4FE75FE7C501B4010E944C1C54
:101F400081110CC02FEF3FEF4FE75FE7C501B401F0
:101F50000E94F41961E672E0181664F02FEF3FEF6B
:101F60004FE75FE4C701B6010E94471C1816ACF4A6
:101F700065E672E08EEF93E0CF911F910F91FF9095
:101F8000EF90DF90CF90BF90AF909F908F907F9019
:101F90006F905F904F900C942F0B2FEF3FEF4FE718
:101FA0005FECC701B6010E94F41987FDE1CF20E084
:101FB00030E0A901C701B6010E94F41910E000E069
:101FC00087FF0AC06DE28EEF93E00E94E0028C0171
:101FD000F7FAF094F7F8F094C0E060E070E080E089
:101FE0009FE37C1641F020E030E040E251E40E94A3
:101FF0009F1BCF5FF6CFA70196010E94331B2B01D9
:102000003C010E94181C4B015C014AE00E94390B04
:102010007C01E00EF11ECC23C1F1C501B4010E9488
:10202000F9199B01AC01C301B2010E94321B4B01A3
:102030005C016EE28EEF93E00E94E002E80EF91E72
:10204000C15018F120E030E040E251E4C501B40194
:102050000E945A1A2B013C010E94181C4B01B12C02
:10206000A12C4AE0C501B4010E94390BE80EF91E0B
:10207000C501B4010E94F9199B01AC01C301B20171
:102080000E94321B4B015C01DBCFC701CF911F9136
:102090000F91FF90EF90DF90CF90BF90AF909F9007
:1020A0008F907F906F905F904F9008950F931F9344
:1020B000CF93DF93EC0188819981009759F02A81B1
:1020C0003B812617370730F081E0DF91CF911F91D8
:1020D0000F9108958B016F5F7F4F0E94B41D009791
:1020E00059F0998388831B830A832C813D81232B9C
:1020F00059F7FC011082E8CF80E0E7CFCB01BA01AD
:102100000C94B41DCB010C942B1DBF92CF92DF9287
:10211000EF92FF920F931F93CF93DF93EC01198DF2
:102120001F3F81F0612F45960E949C05FC01808134
:10213000898F309709F477C014828FEF8583BF01B0
:10214000812F76C06C0135E0C30ED11CE880F98088
:102150008F89882341F0C6010E94C106E62FF72F20
:10216000182F309749F71F89988D191324C0103103
:1021700009F459C0110F6D897E89D701ED91FC9149
:10218000B4E01B9FA0011124C616D70609F044C075
:102190000190F081E02DBA01C7011995009709F46B
:1021A00042C020E1F601DC0101900D922A95E1F791
:1021B0009E8B8D8B188F0D891E898F8921E0280FAA
:1021C0002F8BE4E08E9FC0011124080F191F90E1AE
:1021D000B92E203111F48FE0B82EF6E0BF9EB00189
:1021E0001124D701ED91FC910190F081E02DC70100
:1021F0001995F80193838283892B09F4B12CD801B6
:10220000BC9211961C92012B71F0C6010E94C1066E
:10221000E62FF72F182F8DCF0480F581E02DC70111
:102220001995009729F681E08A8360E070E08FEFCE
:10223000DF91CF911F910F91FF90EF90DF90CF90A2
:10224000BF9008952F923F924F925F926F927F922C
:102250008F929F92AF92BF92CF92DF92EF92FF92B6
:102260000F931F93CF93DF9300D000D0CDB7DEB78D
:102270008C017B01B42E0E9416066C01892B09F09B
:102280004EC0C8010E94C805863609F4B0C154F595
:10229000873229F08B3591F1823209F0B1C1D80132
:1022A00015961C921E92149712968D919C911397DD
:1022B000892B39F48D919C910E94AD01F801938393
:1022C0008283C8010E94E2096C01892B41F5C80193
:1022D0000E94C10A25E0D70114962C9314978D9380
:1022E0009C931DC0843709F460C18B3709F47FC00B
:1022F0008E3609F085C16DE472E05EC180E4D701DD
:1023000014968C931497E114F10421F08FEF8C93C1
:1023100011968C93B1101DC025E0C22ED12CC601A0
:1023200026960FB6F894DEBF0FBECDBFDF91CF91DA
:102330001F910F91FF90EF90DF90CF90BF90AF90E3
:102340009F908F907F906F905F904F903F902F90D5
:102350000895F8011486C8010E941606009709F036
:10236000A2C06DE5C8010E94E2058111D8CFBA94E0
:10237000D8011D966D907C90C3010E948510A82EF7
:102380004B01672B21F484E0C82ED12CC8CFF70174
:1023900061816F3F39F1C30145960E949C05DC01C4
:1023A0001596AC92F701A1824B2DB401C8010E9491
:1023B0002211009709F077C0C8010E941606009705
:1023C00009F071C06DE5C8010E94E2058111A7CF37
:1023D0006CE2C8010E94E2058111CACF93E0C92EC8
:1023E000D12C9DCFD7018C9311968C93DDCF80E2B9
:1023F000F7018483E114F10419F08FEF8083818366
:10240000BB2009F489CFD8011C961C92C8010E94F8
:102410001606009709F047C06DE7C8010E94E20563
:1024200081117DCFBA94BE82F80115821482828117
:102430009381892B49F4808191810E94AD01D8015B
:1024400013969C938E931297C8010E94C8058732F9
:1024500001F18232F1F0C8010E94C805B82E0E9435
:10246000B605882309F4BACFF80114866B2DC8018C
:102470000E94A909C8010E94C805B82E0E94B6058D
:102480008111F2CFD80112968D919C91892B31F454
:102490007ACFC8010E94E209009729F4C8010E947E
:1024A0001606009711F06C013ACF6AE3C8010E944A
:1024B000E205882309F492CFD8011296ED91FC91A0
:1024C000139714968D919C911597E80FF91F14821C
:1024D0001D968D909C901E9712966D917C916C5FCD
:1024E0007F4FA401C7010E94980B5C01009709F07F
:1024F00058C0C8010E94C10A2C01F8018584968445
:10250000C4010E948510282E3B01672B09F43BCFA4
:10251000C4010E948510382E962FA92EB72EA11423
:10252000B10409F430CFE5E0D3011496EC9314978D
:1025300011965C924E9215963C92D70111966C9131
:102540006F3F59F1C40145960E949C05FC0125820C
:10255000D70111963C924E81B501C8010E9422110B
:10256000009709F0A0CFC8010E941606009709F055
:102570009ACF6DE7C8010E94E2058111D0CE6CE2CE
:10258000C8010E94E205882309F428CFC8010E94EF
:102590001606009709F448CF86CFF70120823182D2
:1025A000DACFB4010E94F508D6CF86E0F701848324
:1025B00081E0808362E572E0C80126960FB6F89448
:1025C000DEBF0FBECDBFDF91CF911F910F91FF9066
:1025D000EF90DF90CF90BF90AF909F908F907F90C3
:1025E0006F905F904F903F902F900C94F30586E092
:1025F000D70114968C9314971C9267E572E0DCCF98
:10260000C8010E94C8054801BFE08B0E911CB12C87
:10261000782CA92C803384F08A3384F4EFE3BE163F
:10262000A9F0D8011C961C92B394F40181934F0138
:10263000C8010E94C805EECF8B3281F393ED980F4D
:10264000923060F3982F9F7D953441F30B0D111D4F
:10265000D8011F961C92872D9A2D0E9432073A832B
:102660004B835C836D838A819B81AC81BD812230E9
:10267000A9F0233059F0213009F0B0CE2EE0F70157
:10268000248380839183A283B38349CE2AE0F70118
:10269000248380839183A283B38341CE2CE0F7CF40
:1026A0008F929F92AF92BF92CF92DF92EF92FF9262
:1026B0000F931F93CF93DF93FC016115710579F49C
:1026C00090E080E0DF91CF911F910F91FF90EF900C
:1026D000DF90CF90BF90AF909F908F9008958481AE
:1026E00081111AC080E28483309751F38FEF808389
:1026F00081838A017B016F01CF010E94980B0097B3
:1027000009F7C8010E948510882E5B01672B49F4E8
:10271000D0E0C0E0CE01D6CF803291F6309749F7B5
:10272000CFCFC8010E948510982E962FC92FD72F82
:10273000209771F384E0F5018483F182E082958231
:10274000F60161816F3F49F0C80145960E949C05E2
:10275000FC018582F6019182DDCF8082FCCFCF9291
:10276000DF92EF92FF920F931F93CF93DF93FC01C1
:1027700000811181C8014A9609F17B016281738150
:10278000A8010E945013EC010097C1F0F701C0802E
:10279000D180E280F380B8010E94F5088EE08C833E
:1027A000C882D982EA82FB8281E0DF91CF911F91BA
:1027B0000F91FF90EF90DF90CF90089580E0F5CFDC
:1027C0004F925F926F927F928F929F92AF92BF9241
:1027D000CF92DF92EF92FF920F931F93CF93DF93ED
:1027E000CDB7DEB7CD59D1400FB6F894DEBF0FBEDE
:1027F000CDBF0E940204882341F08091A1048C3057
:1028000009F466C038F48B30F1F060E070E080ECE1
:102810009FE741C085518230C0F710919D04612F20
:1028200070E0762F662766277F7780919E04682B5D
:1028300090E080E00E94F9192DEC3CEC4CEC5DE35B
:102840000E945A1A61C060919D0470E090E080E09F
:102850000E94F9196B017C0110919E0417FF0AC0B8
:10286000AC019B0160E070E080E89FEB0E94321BAE
:102870006B017C011F70612F70E090E080E00E948E
:10288000FB192DEC3CEC4CEC5DE30E945A1AA701BD
:1028900096010E94331BCA56DE4F688379838A8370
:1028A0009B83C659D1400E940204882351F0809135
:1028B000A1048B3030F08D3058F18551823008F40E
:1028C00081C0C12CD12C20ECE22E2FE7F22E3EC08D
:1028D00010919D04612F70E090E080E00E94F91952
:1028E0006B017C0160919E046F7070E090E080E06D
:1028F0000E94FB192DEC3CEC4CEC5DE30E945A1A53
:10290000A70196010E94331B17FFC5CF9058C3CF74
:1029100060919C0470E090E080E00E94FB192DEC37
:102920003CEC4CEC5DE30E945A1A6B017C01609117
:102930009B0470E090E080E00E94FB199B01AC01D9
:10294000C701B6010E94331B6B017C01C656DE4FE6
:10295000C882D982EA82FB82CA59D140CA56DE4F68
:10296000688179818A819B81C659D1409B01AC01E4
:102970000E944C1C811108C0A7019601C701B60135
:102980000E944C1C882381F169E672E08EEF93E08F
:102990000E947F0BC356DE4F0FB6F894DEBF0FBE0A
:1029A000CDBFDF91CF911F910F91FF90EF90DF90FE
:1029B000CF90BF90AF909F908F907F906F905F90DF
:1029C0004F90089560919B0470919C04762767272F
:1029D000762790E080E00E94F9192DEC3CEC4CEC5D
:1029E0005DE30E945A1AB0CF80E092E0C059DE4FFA
:1029F00099838883C057D140CE58DE4F1882C25782
:102A0000D140CD58DE4F19821882C357D14080E79C
:102A100091E08C0F9D1F0596CB57DE4F99838883DD
:102A2000C558D140C957DE4F1882C758D14084E0FD
:102A3000C857DE4F8883C858D1408FEFC757DE4F45
:102A40008883C958D140C257DE4F1882CE58D14032
:102A5000C157DE4F8883CF58D140AE0140595E4FF9
:102A600069E872E0CA014A960E9450138C010097EF
:102A700091F0BE0160597E4F0E94F5088CE0D801AC
:102A800014968C9382E090E0A0E0B0E0F80180839F
:102A90009183A283B38380E791E08C0F9D1F9A837B
:102AA00089838EE892E09C838B83BE016A567E4FB9
:102AB000DE0111967D01CD010E94AF13E0E7F1E048
:102AC000EC0FFD1FFA83E9838AE992E09C838B83F4
:102AD000BE0166567E4FC7010E94AF138E010F5F85
:102AE0001E4FD80111961C930E931396FC92EE92F2
:102AF000129715961C921E921497E0E7F1E0EC0FE6
:102B0000FD1F1796FC93EE931697B801CF014A96D6
:102B10000E94B20C8F3F910509F020F48E0D9F1D8D
:102B2000DC011C92B70181E693E00E947F0B63EA0F
:102B300072E08EEF93E00E942F0BB7018EEF93E0CF
:102B40000E947F0B81E693E00E949E02892B09F48C
:102B5000D9C1C057DE4F19821882C059D140CE5614
:102B6000DE4F19821882C259D140CC56DE4F1982ED
:102B70001882C459D14070E060E0CE0180579E4F6A
:102B80000E945610C057DE4F28813981C059D1406C
:102B900081114BC02115310519F0C9010E942B1D6F
:102BA000C057DE4F19821882C059D140CC56DE4F33
:102BB00019821882C459D140CE56DE4F198218822C
:102BC000C259D1400E945002CC56DE4FE880F980B5
:102BD000C459D14097FD35C08A30910591F1F80173
:102BE00080831182FFEFEF1AFF0AB701CE018057F1
:102BF0009E4F0E945610882329F3C057DE4F28812C
:102C00003981C059D140CC56DE4F88819981C45951
:102C1000D140B801820F931F0E949E1ECC56DE4FFA
:102C2000F982E882C459D140CDCFCC56DE4F19820B
:102C30001882C459D14062E472E0C9010E949E1E0C
:102C4000C1CF80E092E0C05BDE4F99838883C0559E
:102C5000D140CE5ADE4F1882C255D140CD5ADE4FF8
:102C600019821882C355D14080E591E08C0F9D1FD9
:102C70000596CB59DE4F99838883C556D140C959F3
:102C8000DE4F1882C756D14024E0C859DE4F288352
:102C9000C856D1402FEFC759DE4F2883C956D140BF
:102CA000C259DE4F1882CE56D140C159DE4F28831B
:102CB000CF56D140C057DE4FC880D980C059D140CF
:102CC00060E072E00E94ED06CE5ADE4F1882C255D7
:102CD000D140C05BDE4FA880B980C055D140CD5AED
:102CE000DE4F88819981C355D140009769F0DC019E
:102CF0002D913C91CD5ADE4F39832883C355D14065
:102D0000B5010E94EB08EBCFC259DE4F1882CE56B8
:102D1000D14080E591E08C0F9D1FF8019183808365
:102D200013821282158214821682D086C782EC0C1E
:102D3000FD1CF286E1861486968785874AE0BC01F1
:102D4000665E7F4FC8010E9422117C01892B79F4B5
:102D5000D8011B968C91882351F0C259DE4F88818F
:102D6000CE56D14083FF03C093E0E92EF12CF80149
:102D700082819381009739F00190F081E02D60818C
:102D800071810E94EB08E114F10409F0FFC0E0E555
:102D9000F1E0EC0FFD1FD8011196FC93EE9389E84A
:102DA00092E013969C938E931297C8010E940D0C8B
:102DB000FC01892B51F084818630E9F048F484309D
:102DC00009F4BBC0853009F4BEC0D12CC12C15C09C
:102DD0008C3009F4A3C08E3009F4B9C08A30A9F749
:102DE000C080D180E280F380C114F0E8DF06E10406
:102DF000F10458F702C0C080D12CE0E5F1E0EC0FFF
:102E0000FD1FD8011196FC93EE938EE892E0139685
:102E10009C938E931297C8010E941E0C4B015C017B
:102E2000E0E5F1E0EC0FFD1FD8011196FC93EE9365
:102E30008AE992E013969C938E931297C8010E94A0
:102E40001E0C2B013C0166EB72E08EEF93E00E94BA
:102E50002F0BCC56DE4F48815981C459D140C05701
:102E6000DE4F68817981C059D1408EEF93E00E9496
:102E700000026DEC72E08EEF93E00E942F0B0D2CA0
:102E8000000CEE08FF084AE0C701B601F7FE0DC0CE
:102E90006DE28EEF93E00E94E00266277727CB0178
:102EA0006C197D098E099F094AE00E94390B6AED71
:102EB00072E08EEF93E00E942F0B42E0C501B40157
:102EC0000E947A0F6BEE72E08EEF93E00E942F0B60
:102ED00042E0C301B2010E947A0F63E472E08EEF18
:102EE00093E00E942F0BCE01805B9E4F0E945D09F4
:102EF000C057DE4F88819981C059D140009711F0A9
:102F00000E942B1D64EF71E080E090E00E94D003EE
:102F1000CE0180599E4F0E945D093CCDC080D1807A
:102F2000E280F380D701C6019058AF4FBF4F0097A2
:102F3000A140B10508F049CF60CF808191810E9406
:102F400097086C015ACF808191810496F8CFC08098
:102F5000D180E280F38020E030E040E057ECC70110
:102F6000B6010E94471C87FD30CF20E03EEF4FEFB7
:102F700056E4C701B6010E94F41918160CF425CFC7
:102F8000C701B6010E94111C6B0137CF69EF72E0D7
:102F90008EEF93E00E942F0BF701EE0FFF1FEE5E06
:102FA000FD4F608171818EEF93E00E947F0B9BCF7C
:102FB000CB010C948F1C1F920F920FB60F9211240D
:102FC0000BB60F922F933F934F935F936F937F9323
:102FD0008F939F93AF93BF93EF93FF9381E693E01B
:102FE0000E94BE02FF91EF91BF91AF919F918F918F
:102FF0007F916F915F914F913F912F910F900BBEF9
:103000000F900FBE0F901F9018951F920F920FB642
:103010000F9211240BB60F922F938F939F93EF93E0
:10302000FF93E0917103F09172038081E091770347
:10303000F091780382FD1DC0908180917A038F5FAB
:103040008F7320917B03821741F0E0917A03F0E0C7
:10305000EF59FC4F958F80937A03FF91EF919F91E9
:103060008F912F910F900BBE0F900FBE0F901F905E
:1030700018958081F2CF1F920F920FB60F921124F4
:103080000BB60F922F933F934F935F936F937F9362
:103090008F939F93AF93BF93EF93FF938EEF93E044
:1030A0000E94BE02FF91EF91BF91AF919F918F91CE
:1030B0007F916F915F914F913F912F910F900BBE38
:1030C0000F900FBE0F901F9018951F920F920FB682
:1030D0000F9211240BB60F922F938F939F93EF9320
:1030E000FF93E0910E04F0910F048081E0911404AD
:1030F000F091150482FD1DC09081809117048F5FAF
:103100008F7320911804821741F0E0911704F0E0CA
:10311000E250FC4F958F80931704FF91EF919F91A0
:103120008F912F910F900BBE0F900FBE0F901F909D
:1031300018958081F2CF1F920F920FB60F92112433
:103140002F933F938F939F93AF93BF9380915D0392
:1031500090915E03A0915F03B0916003309158039A
:1031600023E0230F2D3758F50196A11DB11D2093A3
:10317000580380935D0390935E03A0935F03B09325
:1031800060038091590390915A03A0915B03B09121
:103190005C030196A11DB11D8093590390935A03BE
:1031A000A0935B03B0935C03BF91AF919F918F910C
:1031B0003F912F910F900FBE0F901F90189526E80A
:1031C000230F0296A11DB11DD2CFE1E6F3E01382D9
:1031D000128248EE53E060E070E0448355836683DA
:1031E000778382E292E0918380832DEC30E0358713
:1031F00024872CEC30E03787268728EC30E0318BB1
:10320000208B29EC30E0338B228B2AEC30E0358B9D
:10321000248B2EEC30E0378B268B118E128E138E82
:10322000148EEEEFF3E0138212824483558366839B
:1032300077839183808385EC90E09587848784EC05
:1032400090E09787868780EC90E0918B808B81EC73
:1032500090E0938B828B82EC90E0958B848B86EC54
:1032600090E0978B868B118E128E138E148EABE9A5
:10327000B4E088E015968C9315978BE016968C93A6
:103280001697E6E6F2E0E4911796EC931797E0E2E2
:10329000F2E0E4911896EC93189740E85EE360E062
:1032A00070E01D964D935D936D937C9350970895B8
:1032B000789484B5826084BD84B5816084BD85B511
:1032C000826085BD85B5816085BD80916E0081601D
:1032D00080936E00109281008091810082608093C3
:1032E00081008091810081608093810080918000C5
:1032F0008160809380008091B10084608093B100F0
:103300008091B00081608093B000809191008260D4
:1033100080939100809191008160809391008091D1
:1033200090008160809390008091A10082608093E2
:10333000A1008091A10081608093A1008091A000F4
:1033400081608093A000809121018260809321019F
:103350008091210181608093210180912001816011
:103360008093200180917A00846080937A0080911C
:103370007A00826080937A0080917A0081608093E5
:103380007A0080917A00806880937A001092C10060
:1033900081E693E00E9486018EEF93E00E94860111
:1033A00062E08091A0040E947A032FB7F894809184
:1033B0005D0390915E03A0915F03B09160032FBF06
:1033C000805D9740A109B1098093A4049093A5045E
:1033D000A093A604B093A70487E38093AD040E9452
:1033E000E0130E944D03FBCF0E94361A08F481E0DF
:1033F0000895E89409C097FB3EF4909580957095E8
:1034000061957F4F8F4F9F4F9923A9F0F92F96E930
:10341000BB279395F695879577956795B795F111A5
:10342000F8CFFAF4BB0F11F460FF1BC06F5F7F4F42
:103430008F4F9F4F16C0882311F096E911C0772354
:1034400021F09EE8872F762F05C0662371F096E85D
:10345000862F70E060E02AF09A95660F771F881F2C
:10346000DAF7880F9695879597F90895990F0008D0
:10347000550FAA0BE0E8FEEF16161706E807F90746
:10348000C0F012161306E407F50798F0621B730BE1
:10349000840B950B39F40A2661F0232B242B252B62
:1034A00021F408950A2609F4A140A6958FEF811D05
:1034B000811D08950E946D1A0C94DE1A0E94D01A84
:1034C00038F00E94D71A20F0952311F00C94C71AF7
:1034D0000C94CD1A11240C94121B0E94EF1A70F355
:1034E000959FC1F3950F50E0551F629FF001729FA9
:1034F000BB27F00DB11D639FAA27F00DB11DAA1FB8
:10350000649F6627B00DA11D661F829F2227B00D04
:10351000A11D621F739FB00DA11D621F839FA00D8F
:10352000611D221F749F3327A00D611D231F849FDF
:10353000600D211D822F762F6A2F11249F57504036
:103540009AF0F1F088234AF0EE0FFF1FBB1F661FB1
:10355000771F881F91505040A9F79E3F510580F07A
:103560000C94C71A0C94121B5F3FE4F3983ED4F3FB
:10357000869577956795B795F795E7959F5FC1F71E
:10358000FE2B880F911D9695879597F9089597F9C9
:103590009F6780E870E060E008959FEF80EC0895F9
:1035A00000240A9416161706180609060895002422
:1035B0000A9412161306140605060895092E03949C
:1035C000000C11F4882352F0BB0F40F4BF2B11F410
:1035D00060FF04C06F5F7F4F8F4F9F4F089557FD6F
:1035E0009058440F551F59F05F3F71F04795880F71
:1035F00097FB991F61F09F3F79F087950895121608
:1036000013061406551FF2CF4695F1DF08C01616B3
:1036100017061806991FF1CF869571056105089464
:103620000895E894BB2766277727CB0197F908957B
:103630000E94231BA59F900DB49F900DA49F800D09
:10364000911D11240895A29FB001B39FC001A39FB3
:10365000700D811D1124911DB29F700D811D1124CB
:10366000911D08955058BB27AA270E944A1B0C940D
:10367000DE1A0E94D01A38F00E94D71A20F039F4CE
:103680009F3F19F426F40C94CD1A0EF4E095E7FB55
:103690000C94C71AE92F0E94EF1A58F3BA17620761
:1036A00073078407950720F079F4A6F50C94111B95
:1036B0000EF4E0950B2EBA2FA02D0B01B90190014D
:1036C0000C01CA01A0011124FF27591B99F0593F91
:1036D00050F4503E68F11A16F040A22F232F342FD9
:1036E0004427585FF3CF469537952795A795F04027
:1036F0005395C9F77EF41F16BA0B620B730B840B3C
:10370000BAF09150A1F0FF0FBB1F661F771F881FF3
:10371000C2F70EC0BA0F621F731F841F48F487954B
:1037200077956795B795F7959E3F08F0B0CF93953D
:10373000880F08F09927EE0F9795879508950E94B6
:10374000B31B0C94DE1A0E94D71A58F00E94D01AAC
:1037500040F029F45F3F29F00C94C71A51110C94E2
:10376000121B0C94CD1A0E94EF1A68F39923B1F33F
:10377000552391F3951B550BBB27AA276217730797
:10378000840738F09F5F5F4F220F331F441FAA1F2B
:10379000A9F335D00E2E3AF0E0E832D091505040E7
:1037A000E695001CCAF72BD0FE2F29D0660F771F95
:1037B000881FBB1F261737074807AB07B0E809F07B
:1037C000BB0B802DBF01FF2793585F4F3AF09E3F00
:1037D000510578F00C94C71A0C94121B5F3FE4F368
:1037E000983ED4F3869577956795B795F7959F5F43
:1037F000C9F7880F911D9695879597F90895E1E08F
:10380000660F771F881FBB1F621773078407BA07ED
:1038100020F0621B730B840BBA0BEE1F88F7E09548
:1038200008950E94181C6894B1110C94121B0895FD
:103830000E94F71A88F09F5798F0B92F9927B7512F
:10384000B0F0E1F0660F771F881F991F1AF0BA9544
:10385000C9F714C0B13091F00E94111BB1E0089576
:103860000C94111B672F782F8827B85F39F0B93F68
:10387000CCF3869577956795B395D9F73EF49095F7
:103880008095709561957F4F8F4F9F4F08950E944F
:10389000361A08F48FEF08950E94361A880B990B98
:1038A0000895AA1BBB1B51E107C0AA1FBB1FA61787
:1038B000B70710F0A61BB70B881F991F5A95A9F7D9
:1038C00080959095BC01CD010895A1E21A2EAA1B06
:1038D000BB1BFD010DC0AA1FBB1FEE1FFF1FA217C0
:1038E000B307E407F50720F0A21BB30BE40BF50BBD
:1038F000661F771F881F991F1A9469F76095709546
:10390000809590959B01AC01BD01CF010895EE0F0C
:10391000FF1F881F8BBF0790F691E02D19940F931E
:103920001F93CF93DF938230910510F482E090E0F3
:10393000E091B004F091B10430E020E0B0E0A0E00C
:10394000309799F42115310509F44AC0281B390B29
:1039500024303105D8F58A819B816115710589F183
:10396000FB0193838283FE0111C04081518102815A
:10397000138148175907E0F04817590799F4109731
:1039800061F012960C93129713961C933296CF0106
:10399000DF91CF911F910F9108950093B004109380
:1039A000B104F4CF2115310551F04217530738F017
:1039B000A901DB019A01BD01DF01F801C1CFEF01CF
:1039C000F9CF9093B1048093B004CDCFFE01E20F04
:1039D000F31F819391932250310939832883D7CFE4
:1039E0002091AE043091AF04232B41F420910402C6
:1039F000309105023093AF042093AE04209102026F
:103A0000309103022115310541F42DB73EB74091A5
:103A1000060250910702241B350BE091AE04F09191
:103A2000AF04E217F307A0F42E1B3F0B281739074A
:103A300078F0AC014E5F5F4F2417350748F04E0F0A
:103A40005F1F5093AF044093AE04819391939FCF37
:103A5000F0E0E0E09CCFCF93DF930097E9F0FC012A
:103A6000329713821282A091B004B091B104ED019B
:103A700030E020E01097A1F420813181820F931F64
:103A80002091AE043091AF042817390709F061C0C6
:103A9000F093AF04E093AE04DF91CF910895EA0173
:103AA000CE17DF07E8F54A815B819E01411551057C
:103AB000B1F7E901FB83EA8349915991C40FD51FFE
:103AC000EC17FD0761F4808191810296840F951FA8
:103AD000E90199838883828193819B838A83F0E0C3
:103AE000E0E012968D919C9113970097B9F52D9176
:103AF0003C911197CD010296820F931F2091AE0445
:103B00003091AF042817390739F6309751F51092E4
:103B1000B1041092B004B093AF04A093AE04BCCF34
:103B2000D383C28340815181840F951FC817D90761
:103B300061F44E5F5F4F88819981480F591F51830F
:103B400040838A819B81938382832115310509F00B
:103B5000B0CFF093B104E093B0049ECFFD01DC013F
:103B6000C0CF13821282D7CF4F925F926F927F9213
:103B70008F929F92AF92BF92CF92DF92EF92FF927D
:103B80000F931F93CF93DF938C01009799F4CB0190
:103B9000DF91CF911F910F91FF90EF90DF90CF9029
:103BA000BF90AF909F908F907F906F905F904F905D
:103BB0000C948F1CFC01E60FF71F9C012250310969
:103BC000E217F30708F4AEC0D901CD91DC9111974B
:103BD000C617D70720F1C530D10578F0CE0104977C
:103BE0008617970750F0C61BD70B2297C193D19326
:103BF0006D937C93CF010E942B1DC801DF91CF9163
:103C00001F910F91FF90EF90DF90CF90BF90AF90FA
:103C10009F908F907F906F905F904F9008955B0181
:103C2000AC1ABD0A4C018C0E9D1EA091B004B0913F
:103C3000B104512C412CF12CE12C109731F58091DD
:103C4000AE049091AF048815990509F05CC0461642
:103C5000570608F058C08091020290910302009725
:103C600041F48DB79EB74091060250910702841B24
:103C7000950BE817F90708F055C0F093AF04E093EF
:103C8000AE04F90171836083B8CF8D919C91119737
:103C900012966C90129713967C901397A815B905FD
:103CA00059F56C0142E0C40ED11CCA14DB0420F1AA
:103CB000AC014A195B09DA011296159780F062820D
:103CC000738251834083D9016D937C93E114F10495
:103CD00071F0D7011396FC93EE9312978ECF229634
:103CE0008C0F9D1FF90191838083F301EFCFF09337
:103CF000B104E093B00481CF4816590608F42C01B2
:103D00007D01D3019ACFCB010E948F1C7C010097CB
:103D100049F0AE01B8010E94951EC8010E942B1DFA
:103D200087016BCF10E000E068CFFB01DC0102C02F
:103D300001900D9241505040D8F70895FB01DC01ED
:103D400001900D920020E1F70895F894FFCF0C0246
:103D50000000B204800000000000D81782107E101E
:103D60001C031F032A033A0347035003000000000B
:103D7000E00200022D022D039E023C0290022F2F32
:103D8000272722225C5C6208660C6E0A720D740999
:103D9000000D0A005C7530303030006E756C6C00C0
:103DA000747275650066616C7365006E616E0069A2
:103DB0006E66006F7666004661696C656420746F9C
:103DC00020726561642066726F6D204448542073D0
:103DD000656E736F7221006E6F64650074656D703F
:103DE000657261747572650068756D69646974796E
:103DF000004E6F646520322053656E74204A534F25
:103E00004E3A20004E6F64652031204A534F4E20B9
:103E100052656365697665643A2000207C204E6FA8
:103E200064652049443A2000207C2054656D70650B
:103E30007261747572653A2000207C2048756D6946
:103E4000646974793A20004661696C656420746F16
:103E5000207061727365204A534F4E2066726F6DF9
:103E6000204E6F646520313A20004F6B00456D7025
:103E70007479496E70757400496E636F6D706C650E
:103E80007465496E70757400496E76616C69644939
:103E90006E707574004E6F4D656D6F727900546F62
:063EA0006F44656570002F
:020000040003F7
:10E000000D9489F10D94B2F10D94B2F10D94B2F129
:10E010000D94B2F10D94B2F10D94B2F10D94B2F1F0
:10E020000D94B2F10D94B2F10D94B2F10D94B2F1E0
:10E030000D94B2F10D94B2F10D94B2F10D94B2F1D0
:10E040000D94B2F10D94B2F10D94B2F10D94B2F1C0
:10E050000D94B2F10D94B2F10D94B2F10D94B2F1B0
:10E060000D94B2F10D94B2F10D94B2F10D94B2F1A0
:10E070000D94B2F10D94B2F10D94B2F10D94B2F190
:10E080000D94B2F10D94B2F10D94B2F10D94B2F180
:10E090000D94B2F10D94B2F10D94B2F10D94B2F170
:10E0A0000D94B2F10D94B2F10D94B2F10D94B2F160
:10E0B0000D94B2F10D94B2F10D94B2F10D94B2F150
:10E0C0000D94B2F10D94B2F10D94B2F10D94B2F140
:10E0D0000D94B2F10D94B2F10D94B2F10D94B2F130
:10E0E0000D94B2F141546D656761323536300041AF
:10E0F000726475696E6F206578706C6F72657220DE
:10E1000073746B3530305632206279204D4C530099
:10E11000426F6F746C6F616465723E004875683F52
:10E1200000436F6D70696C6564206F6E203D200048
:10E130004350552054797065202020203D20005FF9
:10E140005F4156525F415243485F5F3D2000415658
:10E1500052204C696243205665723D20004743437C
:10E160002056657273696F6E203D20004350552024
:10E1700049442020202020203D20004C6F7720663D
:10E18000757365202020203D20004869676820665F
:10E190007573652020203D200045787420667573D6
:10E1A00065202020203D20004C6F636B2066757336
:10E1B000652020203D20004D617220203720323024
:10E1C000313300312E362E3800342E332E350056A2
:10E1D00023202020414444522020206F7020636F70
:10E1E00064652020202020696E73747275637469E1
:10E1F0006F6E2061646472202020496E74657272B3
:10E20000757074006E6F20766563746F7200726A49
:10E210006D702020006A6D70200057686174207056
:10E220006F72743A00506F7274206E6F7420737541
:10E2300070706F72746564004D7573742062652030
:10E2400061206C6574746572002000577269747483
:10E25000696E672045450052656164696E672045B7
:10E26000450045452065727220636E743D00504F35
:10E27000525400303D5A65726F2061646472003FF1
:10E280003D43505520737461747300403D454550C3
:10E29000524F4D207465737400423D426C696E6B41
:10E2A000204C454400453D44756D70204545505215
:10E2B0004F4D00463D44756D7020464C415348001B
:10E2C000483D48656C70004C3D4C69737420492F83
:10E2D0004F20506F72747300513D51756974005234
:10E2E0003D44756D702052414D00563D73686F7707
:10E2F00020696E7465727275707420566563746FF0
:10E30000727300593D506F727420626C696E6B00BD
:10E310002A0011241FBECFEFD1E2DEBFCDBF01E046
:10E320000CBF12E0A0E0B2E0EEE1FDEF03E00BBFB6
:10E3300002C007900D92A030B107D9F712E0A0E01B
:10E34000B2E001C01D92AE30B107E1F70F9460F367
:10E350000D948DFE01E20EBF0FEF0DBF11241FBE05
:10E360000D9460F30D9400F020E030E040ED57E0B4
:10E3700005C0FA013197F1F72F5F3F4F2817390792
:10E38000C0F308959C01260F311DC901A0E0B0E043
:10E390002F5F3F4FABBFFC018791882361F08093D3
:10E3A000C6008091C00086FFFCCF8091C0008064D1
:10E3B0008093C000EACF08958DE08093C6008091DD
:10E3C000C00086FFFCCF8091C00080648093C000B5
:10E3D0008AE08093C6008091C00086FFFCCF8091C8
:10E3E000C00080648093C00008950F94C2F10F9420
:10E3F000DCF10895FC019081992359F09093C600B7
:10E400008091C00086FFFCCF8091C0008064809323
:10E41000C0003196992379F70895282F982F929567
:10E420009F70892F805D8A3308F0895F8093C600D2
:10E430008091C00086FFFCCF8091C00080648093F3
:10E44000C000822F8F70982F905D9A3308F0995FEB
:10E450009093C6008091C00086FFFCCF8091C000E1
:10E4600080648093C00008959C01FB01853691056E
:10E470001CF46330710594F0C90164E670E00F94F8
:10E480002EFE605D7F4F6093C6008091C00086FFC6
:10E49000FCCF8091C00080648093C0002B30310598
:10E4A00014F43297B4F0C90164E670E00F942EFEC4
:10E4B0006AE070E00F942EFE605D7F4F6093C600AF
:10E4C0008091C00086FFFCCF8091C0008064809363
:10E4D000C000C9016AE070E00F942EFEC0968093E0
:10E4E000C6008091C00086FFFCCF8091C000806490
:10E4F0008093C00008951F93182F8EE692EE60E07F
:10E500000F94C2F11093C6008091C00086FFFCCF2B
:10E510008091C00080648093C0000F94DCF11F9153
:10E5200008952F923F924F925F926F927F928F92B7
:10E530009F92AF92BF92CF92DF92EF92FF920F9392
:10E540001F93DF93CF93CDB7DEB762970FB6F894E2
:10E55000DEBF0FBECDBF382E622ECA01DB015C01CB
:10E560006D01772420E2222E2E010894411C511CBB
:10E570008BC081E0A81680E0B80681E0C80680E084
:10E58000D80628F0C601AA27BB270F940DF2BB2797
:10E59000AD2D9C2D8B2D0F940DF28A2D0F940DF225
:10E5A0002092C6008091C00086FFFCCF8091C00001
:10E5B00080648093C0009DE29093C6008091C0006B
:10E5C00086FFFCCF8091C00080648093C0002092C1
:10E5D000C6008091C00086FFFCCF8091C00080649F
:10E5E0008093C00019828601750188249924A1E0D6
:10E5F0003A1651F03A1620F0B2E03B1661F409C029
:10E600000BBFF701779007C0C7010F9477FE782EF4
:10E6100002C0F7017080872D0F940DF22092C60082
:10E620008091C00086FFFCCF8091C0008064809301
:10E63000C000872D8052F401EF70F0708F3520F408
:10E64000E40DF51D708204C0E40DF51D8EE280839B
:10E650000894E11CF11C011D111D0894811C911CE2
:10E6600090E18916910409F0C2CF80E190E0A0E02A
:10E67000B0E0A80EB91ECA1EDB1E198AC2010F9493
:10E68000FAF10F94DCF16A94662009F072CF629679
:10E690000FB6F894DEBF0FBECDBFCF91DF911F91B3
:10E6A0000F91FF90EF90DF90CF90BF90AF909F9031
:10E6B0008F907F906F905F904F903F902F90089534
:10E6C0002F923F924F925F926F927F928F929F9282
:10E6D000AF92BF92CF92DF92EF92FF920F931F9370
:10E6E000DF93CF93CDB7DEB7CD53D1400FB6F894BB
:10E6F000DEBF0FBECDBF01E20EBF0FEF0DBF94B75F
:10E70000F894A89514BE80916000886180936000A1
:10E7100010926000789493FF05C0E0910002F091A0
:10E7200001021995279A2F9A8091C00082608093E8
:10E73000C00080E18093C40088E18093C1000000A4
:10E74000EE24FF24870144E0A42EB12CCC24DD2448
:10E7500024C0C5010197F1F70894E11CF11C011DCB
:10E76000111D21E2E2162EE4F20620E0020720E06D
:10E77000120718F031E0C32ED12CC801B70127ECE5
:10E780003BE140E050E00F9441FE611571058105C9
:10E79000910519F485B1805885B98091C00087FD35
:10E7A00003C0C114D104A9F2A6014F5F5F4FC25E3E
:10E7B000DE4F59834883CE51D140C25EDE4F8881FF
:10E7C0009981CE51D140019711F00D9410FEC05D9A
:10E7D000DE4F19821882C053D14060E0C15DDE4F28
:10E7E0001882CF52D14088249924C35DDE4F19820C
:10E7F0001882CD52D140C05EDE4F188219821A8233
:10E800001B82C052D140CE5CDE4F188219821A8220
:10E810001B82C253D140EE24FF2487010BBFF701B6
:10E8200007911691C45CDE4F19830883CC53D14005
:10E830000D940BFEC25EDE4F28813981CE51D1404E
:10E840002130310509F52091C600C25EDE4F1982E4
:10E850001882CE51D14022C02F5F3F4F4F4F5F4FA4
:10E86000213082E138078AE7480780E0580780F0C6
:10E87000C45CDE4FE881F981CC53D140EF5FFF4F9C
:10E8800019F0EE27FF27099420E030E040E050E047
:10E890008091C00087FFE0CF2091C600C35DDE4FAE
:10E8A00048815981CD52D1404F5F5F4FC35DDE4FEC
:10E8B00059834883CD52D140213209F063C64A3092
:10E8C000510508F05FC60894811C911C53E0851621
:10E8D000910409F059C600E010E018C081E280936D
:10E8E000C6008091C00086FFFCCF8091C00080648C
:10E8F0008093C0002F5F3F4F2931310579F70F9486
:10E90000DCF10F5F1F4F0530110519F020E030E0FA
:10E91000E5CF10920A0210920B0210920C02109294
:10E920000D02109206021092070210920802109235
:10E930000902109202021092030210920402109235
:10E9400005028FEE90EE60E00F94F5F180E191EE1C
:10E9500060E00F94C2F18091C00087FFFCCF9091DE
:10E96000C600903608F09F759032B8F09093C600BC
:10E970008091C00086FFFCCF8091C00080648093AE
:10E98000C000A0E2A093C6008091C00086FFFCCF2B
:10E990008091C00080648093C000983409F4D7C18E
:10E9A0009934B8F4923409F459C1933458F490333B
:10E9B00019F1903308F4E3C59F33A1F1903409F0C5
:10E9C000DEC5BDC0953409F470C1963409F0D7C5D1
:10E9D00098C1923509F42BC2933538F49C3409F46C
:10E9E000F5C1913509F0CBC518C2963509F445C279
:10E9F000993509F0C4C567C483E792EE62E00F94CD
:10EA0000F5F110920602109207021092080210927D
:10EA1000090210920A0210920B0210920C0210923C
:10EA20000D0213C18FE792EE62E00F94F5F18FEEC5
:10EA300090EE60E00F94F5F181E291EE60E00F94CA
:10EA4000C2F187EB91EE60E00F94F5F180E391EE77
:10EA500060E00F94C2F184EE90EE60E00F94F5F167
:10EA60008FE391EE60E00F94C2F186E090E061E008
:10EA700070E00F9434F20F94DCF18DE591EE60E0DC
:10EA80000F94C2F189EC91EE60E00F94F5F18EE401
:10EA900091EE60E00F94C2F183EC91EE60E00F9490
:10EAA000F5F18CE691EE60E00F94C2F18EE10F94E7
:10EAB0000DF288E90F940DF281E00F940DF20F949E
:10EAC000DCF18BE791EE60E00F94C2F119E0E0E039
:10EAD000F0E010935700E4918E2F0F940DF20F94F5
:10EAE000DCF18AE891EE60E00F94C2F1E3E0F0E03F
:10EAF00010935700E4918E2F0F940DF20F94DCF1D8
:10EB000089E991EE60E00F94C2F1E2E0F0E0109349
:10EB10005700E4918E2F0F940DF20F94DCF188EAE8
:10EB200091EE60E00F94C2F1E1E0F0E01093570045
:10EB30001491812F0F940DF20F94DCF107CF8BE825
:10EB400092EE62E00F94F5F18BE492EE60E00F94A8
:10EB5000F5F10F94DCF100E010E019C0C8016F2D51
:10EB60000F947FFEFF2031F489E492EE60E00F9471
:10EB7000C2F10BC0F092C6008091C00086FFFCCFAE
:10EB80008091C00080648093C0000F5F1F4FC80158
:10EB900081519F41A0E0B0E0ABBFFC01F790BAE229
:10EBA000FB1621F0E2E000301E07C1F60F94DCF105
:10EBB0000F94DCF187E592EE60E00F94F5F10F948D
:10EBC000DCF1CC24DD2400E010E01EC0C8010F946D
:10EBD00077FEF82E882331F489E492EE60E00F94FA
:10EBE000C2F10BC08093C6008091C00086FFFCCFAD
:10EBF0008091C00080648093C000FE1419F00894D6
:10EC0000C11CD11C0F5F1F4FC80181519F41A0E063
:10EC1000B0E0ABBFFC01E790FAE2EF1621F022E092
:10EC20000030120799F60F94DCF10F94DCF182E6C4
:10EC300092EE60E00F94C2F1C60161E070E00F94C3
:10EC400034F20F94DCF10F94DCF110920202109276
:10EC50000302109204021092050278CE89E992EE26
:10EC600062E00F94F5F1279A2F9A16C02F9880E052
:10EC700090E0E0EDF7E03197F1F7019684369105E9
:10EC8000C1F72F9A80E090E0E0EDF7E03197F1F7DF
:10EC9000019684369105C1F78091C00087FFE6CFC9
:10ECA0008091C00087FFFCCF64C485EA92EE62E0E9
:10ECB0000F94F5F140910202509103026091040219
:10ECC0007091050281E020E10F9491F2809102029F
:10ECD00090910302A0910402B091050280509F4FD1
:10ECE000AF4FBF4F8093020290930302A0930402A0
:10ECF000B093050280509041A040B04008F426CE69
:10ED0000A4CF83EB92EE62E00F94F5F140910602FE
:10ED100050910702609108027091090280E020E1A1
:10ED20000F9491F28091060290910702A09108023F
:10ED3000B091090280509F4FAF4FBF4F80930602A2
:10ED400090930702A0930802B0930902FFCD80ECD4
:10ED500092EE62E00F94F5F183E792EE60E00F949B
:10ED6000F5F18FE792EE60E00F94F5F18BE892EE0B
:10ED700060E00F94F5F189E992EE60E00F94F5F10F
:10ED800085EA92EE60E00F94F5F183EB92EE60E09D
:10ED90000F94F5F180EC92EE60E00F94F5F187ECC2
:10EDA00092EE60E00F94F5F188ED92EE60E00F9442
:10EDB000F5F18FED92EE60E00F94F5F18AEE92EEB0
:10EDC00060E00F94F5F183E093EEBDCD87EC92EE19
:10EDD00062E00F94F5F181E40F947BF282E40F94EA
:10EDE0007BF283E40F947BF284E40F947BF285E45E
:10EDF0000F947BF286E40F947BF287E40F947BF20E
:10EE000088E40F947BF28AE40F947BF28BE40F94F6
:10EE10007BF28CE40F947BF299CD88ED92EE62E068
:10EE20000F94F5F1772473948824992409C48FED05
:10EE300092EE62E00F94F5F140910A0250910B02BC
:10EE400060910C0270910D0282E020E10F9491F22A
:10EE500080910A0290910B02A0910C02B0910D02D8
:10EE600080509F4FAF4FBF4F80930A0290930B0289
:10EE7000A0930C02B0930D0269CD8AEE92EE62E08F
:10EE80000F94F5F184EE90EE60E00F94F5F18FECC5
:10EE900091EE60E00F94F5F1662477244301CC5D98
:10EEA000DE4F19821882C452D140D401C301B695F5
:10EEB000A79597958795CA5DDE4F88839983AA8326
:10EEC000BB83C652D140CC5DDE4FA881B981C4520C
:10EED000D1401196CC5DDE4FB983A883C452D14096
:10EEE000CD0162E070E00F9434F2B0E2B093C6005E
:10EEF0008091C00086FFFCCF8091C0008064809329
:10EF0000C000EDE2E093C6008091C00086FFFCCF18
:10EF10008091C00080648093C000F0E2F093C6004E
:10EF20008091C00086FFFCCF8091C00080648093F8
:10EF3000C000CA5DDE4FE880F9800A811B81C6529D
:10EF4000D140BB27A12F902F8F2D0F940DF2CA5DBA
:10EF5000DE4F8881C652D1400F940DF2B0E2FB2EF5
:10EF6000F092C6008091C00086FFFCCF8091C00067
:10EF700080648093C0000DE30093C6008091C000C0
:10EF800086FFFCCF8091C00080648093C00010E2B7
:10EF90001093C6008091C00086FFFCCF8091C00016
:10EFA00080648093C0008BBEF3012791C65DDE4F65
:10EFB0002883CA52D140A22EBB24CC24DD2408943D
:10EFC000611C711C811C911C8BBEF3018791282E42
:10EFD0003324442455240894611C711C811C911C09
:10EFE0008BBEF3013791C55DDE4F3883CB52D140E4
:10EFF0000894611C711C811C911C8BBEF30147910C
:10F00000C45DDE4F4883CC52D140ADEFEA2EAFEF66
:10F01000FA2EAFEF0A2FAFEF1A2F6E0C7F1C801E57
:10F02000911E142D032DF22CEE24EA0CFB1C0C1D5A
:10F030001D1D0F940DF220E22093C6008091C000A8
:10F0400086FFFCCF8091C00080648093C000C65DC5
:10F05000DE4F8881CA52D1400F940DF230E23093D6
:10F06000C6008091C00086FFFCCF8091C000806404
:10F070008093C000C45DDE4F8881CC52D1400F9494
:10F080000DF240E24093C6008091C00086FFFCCFA5
:10F090008091C00080648093C000C55DDE4F888190
:10F0A000CB52D1400F940DF250E25093C6008091A4
:10F0B000C00086FFFCCF8091C00080648093C000B8
:10F0C0008FEFE8168FEFF80680E0080780E018075A
:10F0D00031F484E092EE60E00F94C2F1DFC0D80119
:10F0E000C7018070907CA070B0708050904CA040A0
:10F0F000B040D1F52FEF3FE340E050E0E222F322B1
:10F1000004231523CA5DDE4FA880B980CA80DB8046
:10F11000C652D140AE0CBF1CC01ED11EAA0CBB1CD7
:10F12000CC1CDD1C8EE092EE60E00F94C2F1BB2798
:10F13000A12F902F8F2D0F940DF28E2D0F940DF285
:10F1400030E23093C6008091C00086FFFCCF8091F2
:10F15000C00080648093C0004EE34093C60080915D
:10F16000C00086FFFCCF87C08EE09EEFA0E0B0E03D
:10F17000E822F9220A231B239CE0E91694E9F90608
:10F1800090E0090790E0190709F088C0C45DDE4FE0
:10F19000A881CC52D140EA2EFF2400E010E0102FCD
:10F1A0000F2DFE2CEE24C55DDE4FB881CB52D14031
:10F1B000EB0EF11C011D111DD601C501817090706F
:10F1C000A070B070DC0199278827E80EF91E0A1F8D
:10F1D0001B1F20EF30E040E050E0A222B322C42207
:10F1E000D52241E1AA0CBB1CCC1CDD1C4A95D1F7F1
:10F1F000EA0CFB1C0C1D1D1D81E090E0A0E0B0E0BE
:10F20000282239224A225B2235E1220C331C441C7D
:10F21000551C3A95D1F7E20CF31C041D151D57013E
:10F220006801AA0CBB1CCC1CDD1C85E192EE60E0E1
:10F230000F94C2F1C801AA27BB270F940DF2BB2778
:10F24000A12F902F8F2D0F940DF28E2D0F940DF274
:10F2500090E29093C6008091C00086FFFCCF809121
:10F26000C00080648093C000AEE3A093C60080918C
:10F27000C00086FFFCCF8091C00080648093C000F6
:10F28000C601AA27BB270F940DF2BB27AD2D9C2DDD
:10F290008B2D0F940DF28A2D0F940DF20F94DCF14B
:10F2A000CC5DDE4FE881F981C452D140F99709F471
:10F2B0004DCBF4E0EF2EF12C012D112D6E0C7F1CA7
:10F2C000801E911EF2CD83E093EE62E00F94F5F183
:10F2D0008AE192EE60E00F94C2F18091C00087FF56
:10F2E000FCCF1091C6001F751093C6008091C0001E
:10F2F00086FFFCCF8091C00080648093C0000F9493
:10F30000DCF1812F81548A3108F036C1163409F4BA
:10F3100095C0173490F4133409F44EC0143430F40B
:10F320001134F1F0123409F01DC130C0143409F465
:10F3300059C0153409F016C16BC01A3409F4C4C0A1
:10F340001B3438F4173409F48FC0183409F00AC19B
:10F35000A1C01B3409F4D2C01C3409F003C1E8C0B9
:10F360008FEF81B90DC082B1809582B980E090E0C5
:10F37000E0EDF7E03197F1F70196883C9105C1F790
:10F380008091C00087FFEFCF12B8EFC08FEF84B934
:10F390000DC085B1809585B980E090E0E0EDF7E0A3
:10F3A0003197F1F70196883C9105C1F78091C00033
:10F3B00087FFEFCF15B8D9C08FEF87B90DC088B1DF
:10F3C000809588B980E090E0E0EDF7E03197F1F7C3
:10F3D0000196883C9105C1F78091C00087FFEFCF6F
:10F3E00018B8C3C08FEF8AB90DC08BB180958BB9A7
:10F3F00080E090E0E0EDF7E03197F1F70196883C8E
:10F400009105C1F78091C00087FFEFCF1BB8ADC059
:10F410008FEF8DB90DC08EB180958EB980E090E0F0
:10F42000E0EDF7E03197F1F70196883C9105C1F7DF
:10F430008091C00087FFEFCF1EB897C08FEF80BBD1
:10F440000DC081B3809581BB80E090E0E0EDF7E0F6
:10F450003197F1F70196883C9105C1F78091C00082
:10F4600087FFEFCF11BA81C08FEF83BB0DC084B38C
:10F47000809584BB80E090E0E0EDF7E03197F1F714
:10F480000196883C9105C1F78091C00087FFEFCFBE
:10F4900014BA6BC08FEF809301010FC080910201FD
:10F4A00080958093020180E090E0E0EDF7E03197F5
:10F4B000F1F70196883C9105C1F78091C00087FF64
:10F4C000EDCF1092020151C08FEF809304010FC065
:10F4D0008091050180958093050180E090E0E0ED4A
:10F4E000F7E03197F1F70196883C9105C1F78091DB
:10F4F000C00087FFEDCF1092050137C08FEF8093DA
:10F5000007010FC08091080180958093080180E079
:10F5100090E0E0EDF7E03197F1F70196883C910536
:10F52000C1F78091C00087FFEDCF109208011DC088
:10F530008FEF80930A010FC080910B01809580931B
:10F540000B0180E090E0E0EDF7E03197F1F70196F4
:10F55000883C9105C1F78091C00087FFEDCF1092E4
:10F560000B0103C085E292EEEEC98091C00087FFD7
:10F57000FCCF8091C600EAC988E392EEE4C98CE131
:10F5800091EEE1C988249924933011F1943028F444
:10F59000913089F09230B8F408C0953061F195301F
:10F5A000F0F0963009F048C043C02B3109F042C951
:10F5B00091E06BE13FC96227C15DDE4F2883CF52E6
:10F5C000D14092E037C9B22FA0E0622793E032C960
:10F5D000822F90E0A82BB92B622794E02BC92E3004
:10F5E00009F039C3622795E0C05DDE4F19821882A9
:10F5F000C053D1401FC9E1E0F0E0EC0FFD1FC05D3A
:10F60000DE4F08811981C053D140E00FF11F2083E4
:10F610000F5F1F4FC05DDE4F19830883C053D14079
:10F6200062270A171B0709F005C9D80196E002C92D
:10F63000261709F010C303C0973009F0FBC87724E0
:10F640009981933109F412C19431C8F4963009F4C8
:10F65000D8C0973050F4923009F406C1933009F4C1
:10F660006DC0913009F059C253C0913109F477C08F
:10F67000923108F0BBC0903109F04FC2F5C098310B
:10F6800009F487C0993150F4953109F4EFC09531F0
:10F6900008F4C6C1963109F040C2C2C19A3109F4DA
:10F6A0006CC09A3108F491C09B3109F45BC09D3164
:10F6B00009F033C29D81903359F48F81882311F46E
:10F6C0009EE11CC0813011F091E018C098E916C08D
:10F6D000892F807591F0903539F4E0E0F0E089E011
:10F6E0008093570094910AC0983539F4E3E0F0E034
:10F6F00089E080935700949101C090E01A821B82A8
:10F700008D818C831D829E831F8227E030E009C299
:10F710001A8288E08B8381E48C8386E58D8382E581
:10F720008E8389E48F8383E5888780E589878FE5E9
:10F730008A8782E38B872BE030E0F3C18A818139AD
:10F7400041F0823941F0803911F48FE005C080E04A
:10F7500003C082E001C08AE01A828B8344C0772410
:10F76000739482C08D81882311F48EE12CC0813086
:10F7700011F081E028C088E926C01A82E1E0F0E0BB
:10F7800089E08093570084918B831C8224E030E0D1
:10F79000C8C18B81803589F48C81883039F4E2E0EE
:10F7A000F0E089E08093570084910DC0E0E0F0E044
:10F7B00089E080935700849106C0E3E0F0E089E09F
:10F7C0008093570084911A82DFCF8D81836C99E0FA
:10F7D000E1E0F0E0082E90935700E89507B600FCB2
:10F7E000FDCF1A821B8223E030E09BC180EC8A832C
:10F7F000CE5CDE4F188219821A821B82C253D1401E
:10F800008EC18A8190E0A0E0B0E0582F44273327D2
:10F8100022278B8190E0A0E0B0E0DC0199278827C7
:10F82000282B392B4A2B5B2B8D8190E0A0E0B0E098
:10F83000282B392B4A2B5B2B8C8190E0A0E0B0E089
:10F84000BA2FA92F982F8827282B392B4A2B5B2BCF
:10F85000220F331F441F551FC05EDE4F288339839C
:10F860004A835B83C052D1401A8259C13A81C95C34
:10F87000DE4F3883C753D140CA5CDE4F1882C6536F
:10F88000D1408B81C82EDD24CA5CDE4F488159816E
:10F89000C653D140C42AD52A933109F082C0CE5C28
:10F8A000DE4F88819981AA81BB81C253D1408050AB
:10F8B000904CA340B04030F583E0CE5CDE4FE88052
:10F8C000F9800A811B81C253D140F70100935B008C
:10F8D00080935700E89507B600FCFDCFCE5CDE4F65
:10F8E000088119812A813B81C253D14000501F4FAA
:10F8F0002F4F3F4FCE5CDE4F088319832A833B8313
:10F90000C253D140C05EDE4F488159816A817B81FC
:10F91000C052D140DE011B9631E08C9111962C91A2
:10F9200011971296C75CDE4F2883C953D140C85C3B
:10F93000DE4F1882C853D14090E0C85CDE4FE881AA
:10F94000F981C853D1408E2B9F2B0C01FA01609393
:10F950005B0030935700E89511244E5F5F4F6F4F67
:10F960007F4F0EEFE02E0FEFF02ECE0CDF1CC114F8
:10F97000D10499F685E0C05EDE4F088119812A81A5
:10F980003B81C052D140F80120935B008093570027
:10F99000E89507B600FCFDCF81E180935700E8951C
:10F9A00035C0C05EDE4F88819981AA81BB81C0527B
:10F9B000D140B695A795979587957C018601ABE0D8
:10F9C000AA2EB12CAC0EBD1E0BC0D5016D915D01F0
:10F9D000C7010F947FFE0894E11CF11C01501040F8
:10F9E0000115110591F7A60160E070E0440F551F65
:10F9F000661F771FC05EDE4FE880F9800A811B8199
:10FA0000C052D1404E0D5F1D601F711F1A82C05E33
:10FA1000DE4F488359836A837B83C052D1407FC0C5
:10FA2000FA80C55CDE4FF882CB53D140C65CDE4F16
:10FA30001882CA53D1408B81C82EDD24C65CDE4FAC
:10FA400008811981CA53D140C02AD12A1A828981DA
:10FA5000BE016D5F7F4F843121F59601C05EDE4FA0
:10FA6000E880F9800A811B81C052D1400BBFF701A9
:10FA700087919691DB018C9311969C936E5F7F4FDB
:10FA8000D801C7010296A11DB11DC05EDE4F88835B
:10FA90009983AA83BB83C052D14022503040F1F6F3
:10FAA00036C0C05EDE4F288139814A815B81C052F9
:10FAB000D1400894C108D108760100E010E0089414
:10FAC000C11CD11C0894E11CF11C011D111DE20E8A
:10FAD000F31E041F151F21BDBB27A52F942F832FB5
:10FAE00082BD2F5F3F4F4F4F5F4FF89A80B5DB01CC
:10FAF0008D93BD012E153F054007510761F7C05E8C
:10FB0000DE4F288339834A835B83C052D1409601FC
:10FB10002D5F3F4FFB01108204C080EC8A8322E0FE
:10FB200030E08BE18093C6008091C00086FFFCCF5F
:10FB30008091C00080648093C000C15DDE4FF88179
:10FB4000CF52D140F093C6008091C00086FFFCCF19
:10FB50008091C00080648093C000432F3093C60022
:10FB60008091C00086FFFCCF8091C00080648093AC
:10FB7000C000922F2093C6008091C00086FFFCCF6A
:10FB80008091C00080648093C0008EE08093C600A6
:10FB90008091C00086FFFCCF8091C000806480937C
:10FBA000C00065E1C15DDE4FE880CF52D1406E25D7
:10FBB00069276427FE01319610C090819093C6009A
:10FBC0008091C00086FFFCCF31968091C000806498
:10FBD0008093C0006927215030402115310569F715
:10FBE0006093C6008091C00086FFFCCF8091C0006A
:10FBF00080648093C00085B1805885B9772081F4F6
:10FC0000C15DDE4F0881CF52D1400F5FC15DDE4F35
:10FC10000883CF52D14090E0A0E0B0E00D941AF4F8
:10FC200027982F9880E090E020ED37E0F901319798
