:020000040000FA
:100000000C9453010C9484010C9484010C9484018D
:100010000C9484010C9484010C9484010C9484014C
:100020000C9484010C9484010C9484010C9484013C
:100030000C9484010C9484010C9484010C9484012C
:100040000C9484010C94571C0C9484010C9484012E
:100050000C9484010C9484010C9484010C94C31AB4
:100060000C9484010C94971B0C946D1B0C948401CC
:100070000C9484010C9484010C9484010C948401EC
:100080000C94291C0C9484010C9484010C9484011C
:100090000C94371B0C940D1B0C9484010C9484015C
:1000A0000C9484010C9484010C94FB1B0C9484012B
:1000B0000C9484010C9484010C9484010C94CD1B49
:1000C0000C9484010C9484010C9484010C9484019C
:1000D0000C9484010C9484010C9484010C9484018C
:1000E0000C9484010C9436020C94C01A0C944402B3
:1000F0000C943A040C9418020C9414120C944802B8
:100100000C9430020C9415020C943A020C9467057E
:100110000C941A050C9467040C9403020C94851C2F
:100120000C941E020C943E020C94CA040C942802F7
:100130000C9476040C9443020C9422020C940D024D
:100140000C9409020C9410120C9411020C942C02C1
:100150000C94D80400002100240027002A002D0060
:100160003000330001010000040107010A01000012
:100170002200250028002B002E003100340002014F
:100180000000050108010B0100000A0B02090C0D1B
:100190000E0807030401000000000000000000003A
:1001A000000000000000000000000000000000004F
:1001B000000000001211100000000000000000000C
:1001C000000000000000000000000000000000002F
:1001D00020002300260029002C002F0032000001FF
:1001E0000000030106010901CDCCCC3D0AD7233C18
:1001F00017B7D13877CC2B329595E6241FB14F0A2B
:10020000000020410000C84200401C4620BCBE4CFB
:10021000CA1B0E5AAEC59D740505050507050808DD
:100220000808020202020A0A080804040404010180
:100230000101010101010303030303030303040795
:1002400007070C0C0C0C0C0C0C0C0202020206062C
:100250000606060606060B0B0B0B0B0B0B0B01021F
:1002600010202008081020401020408002010201C8
:100270000804020101020408102040808040201080
:1002800008040201800402018040201008040201D9
:100290000804020101020408102040800102040841
:1002A00010204080851C11241FBECFEFD1E2DEBF9D
:1002B000CDBF00E00CBF13E0A0E0B2E0EAE9F6E455
:1002C00000E00BBF02C007900D92AA38B107D9F722
:1002D00025E0AAE8B3E001C01D92AC37B207E1F710
:1002E00011E0C3E5D1E000E006C021970109802FAD
:1002F000FE010E942621C235D10780E00807A9F738
:100300000E943A1D0C944B230C940000FC01A08920
:10031000B18982E08C93A485B5851C92A685B785AA
:100320008FEC8C93108EA489B58986E08C93A2897A
:10033000B3898C9180618C93A289B3898C918860F8
:100340008C93A289B3898C9180688C930288F389FD
:10035000E02D80818F7D80830895CF92DF92EF9290
:10036000FF92CF93DF93B0916C05A0E08111AB2F8A
:1003700080916D0590E0880F991FAC0142535E4F4C
:10038000C0907205D0907305E0907405F0907505EB
:1003900030E020E0FA01C591D491E881B90190E004
:1003A00080E0EB23EA130AC02F5F3F4F6C157D05F9
:1003B0008E059F0578F36FEF7FEFCB01DF91CF9133
:1003C000FF90EF90DF90CF9008958150823108F038
:1003D0005AC0E82FF0E08827EF50FE4F8F4F0C9463
:1003E000262111021502030209020D02430218021E
:1003F0001E02220228022C02300236023A02430276
:100400003E0244024802809180008F7780938000F2
:100410000895809180008F7DF9CF80918000877F43
:10042000F5CF84B58F7784BD089584B58F7DFBCFDC
:100430008091B0008F778093B00008958091B000D4
:100440008F7DF9CF809190008F77809390000895F1
:10045000809190008F7DF9CF80919000877FF5CFBC
:100460008091A0008F778093A00008958091A000D4
:100470008F7DF9CF8091A000877FF5CF80912001FB
:100480008F77809320010895809120018F7DF9CF8F
:1004900080912001877FF5CFCF93DF93282F30E025
:1004A000F901E857FE4F8491F901E25AFD4FD491CA
:1004B000F901E85EFD4FC491CC23A1F081110E94A7
:1004C000E501EC2FF0E0EE0FFF1FE253FE4FA59188
:1004D000B491EC91ED2381E090E009F480E0DF91AC
:1004E000CF91089580E090E0FACF1F93CF93DF93F0
:1004F000282F30E0F901E857FE4F8491F901E25AC4
:10050000FD4FD491F901E85EFD4FC491CC23A9F0D1
:10051000162F81110E94E501EC2FF0E0EE0FFF1F76
:10052000E259FE4FA591B4918FB7F894EC91111157
:1005300008C0D095DE23DC938FBFDF91CF911F9150
:100540000895DE2BF8CFCF93DF9390E0FC01E25AC1
:10055000FD4F2491885E9D4FFC0184918823D1F04A
:1005600090E0880F991FFC01EC5AFE4FA591B491C1
:10057000FC01E259FE4FC591D491623071F49FB7EE
:10058000F8943C91822F809583238C93E8812E2BC5
:1005900028839FBFDF91CF9108958FB7F894EC9196
:1005A0002E2B2C938FBFF6CF3FB7F89480918F03FB
:1005B00090919003A0919103B091920326B5A89BCE
:1005C00005C02F3F19F00196A11DB11D3FBFBA2FE5
:1005D000A92F982F8827BC01CD01620F711D811DA5
:1005E000911D42E0660F771F881F991F4A95D1F72A
:1005F00008958F929F92AF92BF92CF92DF92EF9227
:10060000FF924B015C010E94D4026B017C010E94AD
:10061000D4026C197D098E099F09683E73408105DB
:100620009105A8F321E0821A9108A108B10888EE8B
:10063000C80E83E0D81EE11CF11C81149104A104B2
:10064000B10429F7FF90EF90DF90CF90BF90AF906B
:100650009F908F900895CF92DF92EF92FF920F9329
:100660001F93CF93DF93CDB7DEB7C054D1400FB601
:10067000F894DEBF0FBECDBF2FB7F89480919303DF
:1006800090919403A0919503B09196032FBF409150
:100690006E0550916F0560917005709171058C0128
:1006A0009D01041B150B260B370BB901A801403D1A
:1006B00057406105710590F480917605C05CDE4F6E
:1006C0000FB6F894DEBF0FBECDBFDF91CF911F9163
:1006D0000F91FF90EF90DF90CF90089580936E057B
:1006E00090936F05A0937005B09371051092690502
:1006F00010926805109267051092660510926505C4
:1007000062E080916A050E94A30261E070E080E0EF
:1007100090E00E94F90261E080916A050E94A302C4
:1007200060E080916A050E94750280916B05855199
:10073000823020F58BE291E10197F1F762E0809140
:100740006A050E94A3028091770590E082309105AE
:1007500038F0880F991F880F991F05970197F1F7B7
:10076000F89480E00E94AD016F3F7F4F8F4F9F4F05
:1007700061F410927605789480E0A0CF64E170E097
:1007800080E090E00E94F902D9CF81E00E94AD01A3
:100790006F3F7F4F8F4F9F4F61F38E010F5F1F4F52
:1007A0006E018FEBC81A8EEFD80A780180E00E94A4
:1007B000AD01F701608371838283938381E00E949E
:1007C000AD01F7016483758386839783F8E0EF0EAC
:1007D000F11CEC14FD0451F7789430E020E0F801AE
:1007E000C080D180E280F380448155816681778129
:1007F000FFEFCF16DF06EF06FF0631F04F3F8FEF1A
:1008000058076807780719F410927605B5CFF901F3
:1008100083E0F595E7958A95E1F7EB59FA4F8081EA
:10082000880FC416D506E606F70610F180832F5F01
:100830003F4F085F1F4F2832310589F64091690507
:100840002091650580916605280F3327331F80911D
:100850006705280F311D80916805820F932F911D28
:1008600099274817190681F681E08093760526CFEF
:100870008160DCCFAF92BF92CF92DF92EF92FF9276
:100880000F931F93CF93DF936C017B018B01040FB8
:10089000151FEB015E01AE18BF08C017D10759F054
:1008A0006991D601ED91FC910190F081E02DC60196
:1008B0001995892B79F7C501DF91CF911F910F9180
:1008C000FF90EF90DF90CF90BF90AF900895FC0124
:1008D000538D448D252F30E0842F90E0821B930BA5
:1008E000541710F0CF96089501970895FC01918D4B
:1008F000828D981761F0A28DAE0FBF2FB11D5D964E
:100900008C91928D9F5F9F73928F90E008958FEFEF
:100910009FEF08952FB7F8948091930390919403DB
:10092000A0919503B09196032FBF80939F0390935E
:10093000A003A093A103B093A20387E993E00E94D0
:10094000760497FF26C02FB7F89480919303909177
:100950009403A0919503B09196032FBF40919F03FC
:100960005091A0036091A1037091A203841B950B89
:10097000A60BB70B40919B0350919C0360919D0384
:1009800070919E0384179507A607B707B0F28FEF03
:100990009FEF0895FC01918D828D981731F0828D23
:1009A000E80FF11D858D90E008958FEF9FEF08957A
:1009B000FC01918D228D892F90E0805C9F4F821BDE
:1009C00091098F739927089587E993E00E94D804CD
:1009D00021E0892B09F420E0822F089584E394E03C
:1009E0000E94D80421E0892B09F420E0822F089589
:1009F000FC01A48DA80FB92FB11DA35ABF4F2C9194
:100A0000848D90E001968F739927848FA689B7898A
:100A10002C93A089B1898C91837080648C93938D81
:100A2000848D981306C00288F389E02D80818F7D24
:100A300080830895EF92FF920F931F93CF93DF93DC
:100A4000EC0181E0888F9B8D8C8D98131AC0E8890A
:100A5000F989808185FF15C09FB7F894EE89FF89D9
:100A60006083E889F98980818370806480839FBF77
:100A700081E090E0DF91CF911F910F91FF90EF9077
:100A80000895F62E0B8D10E00F5F1F4F0F73112787
:100A9000E02E8C8D8E110CC00FB607FCFACFE889C2
:100AA000F989808185FFF5CFCE010E94F804F1CF4E
:100AB000EB8DEC0FFD2FF11DE35AFF4FF0829FB736
:100AC000F8940B8FEA89FB8980818062CFCFCF9326
:100AD000DF93EC01888D8823B9F0AA89BB89E88966
:100AE000F9898C9185FD03C0808186FD0DC00FB60C
:100AF00007FCF7CF8C9185FFF2CF808185FFEDCF8A
:100B0000CE010E94F804E9CFDF91CF91089580E0F3
:100B100090E0892B29F00E94EE0481110E940000D0
:100B200080E090E0892B29F00E94E40481110E946A
:100B3000000080E090E0892B49F080E090E0892B74
:100B400029F00E94000081110E94000080E090E0E6
:100B5000892B49F080E090E0892B29F00E94000069
:100B600081110C9400000895AF92BF92CF92DF9252
:100B7000EF92FF920F931F93CF93DF936B017A0154
:100B8000EC01C657DC4F28813CE0389F8001399F3B
:100B9000100D1124A0906105B12C27FF1FC0FB018F
:100BA0001182108288818F5F888388819801280F45
:100BB000311D87FD3A95F6012A153B051CF4888105
:100BC0008C30C4F180819181049680349C4908F472
:100BD00073C0F60180819181049670C0888198016C
:100BE000280F311D87FD3A952A153B05DCF68881D3
:100BF000A801480F511D87FD5A95FA01EE0FFF1FFE
:100C0000E40FF51FEF52FB4F808186FFCBCF888129
:100C1000F801E80FF11D87FDFA95CF01EE0FFF1FD8
:100C2000E80FF91FEF52FB4F808160E08F730E9445
:100C30007502B8CF808191812881A801420F511D92
:100C400027FD5A959A01FA01EE0FFF1FE20FF31FDD
:100C5000EF52FB4F21813281820F931FF701918365
:100C6000808388819801280F311D87FD3A95F9010D
:100C7000EE0FFF1FE20FF31FEF52FB4F808186FF45
:100C800022C08881080F111D87FD1A95F801EE0F0B
:100C9000FF1FE00FF11FEF52FB4F808161E08F7368
:100CA000DF91CF911F910F91FF90EF90DF90CF9048
:100CB000BF90AF900C94750280E49CE9F70191839A
:100CC00080838FEF8883DF91CF911F910F91FF90E9
:100CD000EF90DF90CF90BF90AF9008956F3FA9F055
:100CE000E62FE295EF7044E0E49F90011124DC01CF
:100CF000ED91FC91E20FF31F6F7082819381B6E05A
:100D00006B9F800D911D1124089590E080E008955F
:100D1000982F80336CF08A3324F08F3524F08B3792
:100D200024F481E0089581341CF081E09B350CF0BF
:100D300080E00895FC018485811114C0A781B085ED
:100D4000818592852FEF3FEFA817B90730F4CD01C9
:100D50000196908787832C9130E037FD20E0238730
:100D600081E08487838508951F93CF93DF93EC01FF
:100D7000162F0E949A06811306C01C8681E0DF911F
:100D8000CF911F91089580E0FACF0F931F93CF93D7
:100D9000DF938C01EB018991882369F0C8010E94DF
:100DA0009A06882379F0FE013197908198130DC03F
:100DB000F8011486F0CF90E080E0DF91CF911F9191
:100DC0000F91089582E090E0F8CF83E090E0F5CFB6
:100DD000CF93DF93EC01CE010E949A068B304CF446
:100DE00089305CF4882359F081E08E8390E080E0C4
:100DF0000BC08D3011F08032B9F71C86ECCF8E819C
:100E0000811105C081E090E0DF91CF91089582E0EB
:100E100090E0FACFFC01A281B3818081918130E022
:100E200020E0A817B90738F4CD0101969383828397
:100E30006C9321E030E084819581820F931F95832C
:100E400084830895CF93DF93FC0182819381EB012A
:100E5000460F571FA281B38120813181A217B307AA
:100E600058F4C417D50741F02991BD016F5F7F4F3A
:100E7000738362832C93EECFA81BB90B8481958179
:100E8000A80FB91FB583A483DF91CF9108958F92E6
:100E90009F92AF92BF92CF92DF92EF92FF920F9309
:100EA0001F93CF93DF93CDB7DEB766970FB6F89455
:100EB000DEBF0FBECDBF6C018E01095E1F4F7801F2
:100EC0008AE0882E912CA12CB12CCB01BA01A5016E
:100ED00094010E94B61F942F852F605DF8016293E4
:100EE0008F01A901692F782F411551056105710501
:100EF00061F7A7014E1B5F0BBF01C6010E942207CD
:100F000066960FB6F894DEBF0FBECDBFDF91CF91CE
:100F10001F910F91FF90EF90DF90CF90BF90AF9017
:100F20009F908F900895CF93DF93DB01FC01808128
:100F300091810097E1F012962C91129713964C91A3
:100F40001397342F3F77FC0143814217130671F743
:100F5000ED91FC911197EC0124962E0F3F1FE217A3
:100F6000F30729F0519149915417C9F3DFCFDF916D
:100F7000CF910895DC0152969C915297915084E054
:100F8000989F900111245096ED91FC91E20FF31F70
:100F9000228133812115310579F041818081481703
:100FA00058F481E0840F818386E0489F200D311D35
:100FB00011242115310521F460E070E08FEF0895D0
:100FC000B901892F8295807F840F0895DF92EF9277
:100FD000FF920F931F93CF93DF93EC017B01D12CF2
:100FE000688979898A89D816E0F484E0D89E8001DE
:100FF0001124060F171FD80112966D917C9161156F
:10100000710541F0D701ED91FC910280F381E02D53
:10101000C7011995F8011382128210821182D394AC
:10102000DFCF1A8A8FEF8C8BC617D70761F0D701F5
:10103000ED91FC910280F381E02DC7011995D98BC8
:10104000C88B84E08B8BDF91CF911F910F91FF9024
:10105000EF90DF9008954F925F926F927F928F9200
:101060009F92AF92BF92CF92DF92EF92FF920F9337
:101070001F93CF93DF9300D01F921F92CDB7DEB79F
:10108000DC012C912B32E1F12D32D9F50196EE24C1
:10109000E394FC01208130ED320F3A3010F02E3213
:1010A00091F58C0160E070E0CB01F801219130ED09
:1010B000832E820E39E0381508F444C06A3949E9B4
:1010C0007407840749E1940708F046C0AAE0B0E03D
:1010D0009B01AC010E94A31F912CB12CA12C2401D7
:1010E00035014094509460947094461657066806F3
:1010F000790690F1680D791D8A1D9B1D8F01D5CF52
:101100000196E12CC6CF198229813A814B815C81FD
:101110006D8170E080E090E00F900F900F900F9045
:101120000F90DF91CF911F910F91FF90EF90DF9083
:10113000CF90BF90AF909F908F907F906F905F9077
:101140004F900895211108C0EE2051F161307105D2
:10115000810550E89507A0F0F12CBAE08B2E912C78
:10116000A12CB12C6115710530E883079105F8F0C9
:10117000A50194010E94B61FCA01B901F394F2CFF0
:1011800022E029839B01AC0188279927DC01821B7F
:10119000930BA40BB50B8A839B83AC83BD83B4CF25
:1011A00023E029836A837B838C839D83ADCFF80101
:1011B000D8012D918D0130ED320F3A3010F4F394B7
:1011C000F6CF2E3201F58F010F5F1F4FF8010F5F31
:1011D0001F4F2081A0EDDA2ED20EB9E0BD1598F098
:1011E0006C3CECEC7E07ECE08E07910578F7AAE00A
:1011F000B0E09B01AC010E94A31F6D0D711D811D0C
:10120000911DFA94E3CF20812F7D10E000E025347A
:1012100009F050C021812D32B1F53296CC24C3940F
:10122000DF0110E000E02F2D0F2C000C330B5AE0F3
:10123000B52EFD01DD9040ED4D0D4A30B0F5B09E6C
:10124000A001B19E500D11240D2DDD0C110B00538A
:101250001109040F151FA801420F531F47325105F2
:1012600044F3CC20B9F080E090E0A0E0B0E8E110D9
:1012700003C080E090E0DC0121E029838A839B8326
:10128000AC83BD8341CF2B3219F03196C12CC8CF2E
:101290003296FCCF80E090E0A0E8BFEFE110ECCF09
:1012A00080E090E0A0E8BFE7E7CFCC2019F01195EF
:1012B000019511092081211126CF0F0D111DF7FC79
:1012C0001A950E94651E30E0C32E32E0D32E101610
:1012D00011063CF011950195110948EEC42E41E02C
:1012E000D42EF12C0115110591F000FF0CC024E063
:1012F000F29EF0011124EC0DFD1D259135914591D3
:1013000054910E94C61E15950795F394EBCFE110FA
:10131000905821E029836A837B838C839D83F4CE5C
:10132000DB01ED91FC9111970280F381E02DBC016E
:10133000CD011994AF92BF92CF92DF92EF92FF92BC
:101340000F931F93CF93DF93EC018B018C8180FF70
:1013500024C0A881B981FB018381948130E020E021
:101360000097D9F0A817B907D1F5F801608171810C
:1013700012968C911297815012968C93129781112C
:101380000CC08D919C9111972115310529F1F9011E
:1013900091838083CD010E9490098C81807631F108
:1013A000209721F1F8805801F5E1AF0EB11C8FEFC5
:1013B000F816D1F06F2DC5010E946E066C01FC017C
:1013C000E580B8010E949A09F801818DF6018083B9
:1013D000F801F18EFE2CEBCF94838383DBCF9C014D
:1013E000FC0180819181BCCFF882F9821C82DF915F
:1013F000CF911F910F91FF90EF90DF90CF90BF9012
:10140000AF9008950F931F93CF93DF93EC01088162
:1014100019818B819C81009749F0FC0120813181E9
:101420003C832B83B8010E949009F3CF68817981B6
:10143000CE010596DF91CF911F910F910C94E60795
:10144000EF92FF920F931F93CF93DF937C018B0159
:10145000EA016F3F710509F0B0F4E881F981048079
:10146000F581E02DAB014B5F5F4FBC01CE011995BB
:10147000009749F0FC010383DF91CF911F910F91F9
:10148000FF90EF900895E881F9810280F381E02DCB
:10149000B701CE01199590E080E0EECFFF920F9357
:1014A0001F93CF93DF93EC01F62E8A819B810097E7
:1014B000C9F06C817D81FC0123812617170691F408
:1014C00008811981F80140815181660F771F6F5F94
:1014D0007F4F0E94200A009719F421E0F80122832F
:1014E0009B838A838A819B81009759F02C813D815F
:1014F000A9014F5F5F4F5D834C83820F931FFC01F7
:10150000F482DF91CF911F910F91FF9008959F92E8
:10151000AF92BF92CF92DF92EF92FF920F931F9301
:10152000CF93DF9300D01F921F92CDB7DEB78C010F
:101530000E949A06D82EF8011486F12CE12C60EF57
:10154000C62EC8010E949A06F8011486D81609F41E
:10155000B3C0811113C082E090E00F900F900F9004
:101560000F900F90DF91CF911F910F91FF90EF900F
:10157000DF90CF90BF90AF909F9008958C3509F089
:1015800099C0C8010E949A06882329F3E0E3F2E09B
:10159000853709F083C0F801148654E0952EB12CEC
:1015A000A12CC8010E949A068823A9F2813434F440
:1015B0008053803130F083E090E0CFCF8F7D875330
:1015C000F8CF44E0AA0CBB1C4A95E1F7A82AF80121
:1015D00014869A949110E5CFC501985D81159440C9
:1015E00020F47501F3E0FF22ACCFC5019C5D8115AD
:1015F0009440A8F483E0B822B701762F6627770FCE
:10160000770F6A297B2990E080E0019660387105A8
:101610008105910540F4C8010E944E0A92CFB501A0
:1016200090E080E0F3CF1982262F2F7320682A8361
:1016300026E096958795779567952A95D1F760323C
:10164000710580F4606C6B835E01E4E0AE0EB11C4A
:10165000F50162915F01662309F473CFC8010E940E
:101660004E0AF6CF262F2F7320682B8386E07695BF
:1016700067958A95E1F76031710538F4606E6C8387
:101680005E01F5E0AF0EB11CE3CF60686C83CD82E4
:101690005E0126E0A20EB11CDBCF32969081992329
:1016A00009F489CF8913F9CF8181882309F483CF85
:1016B000F8011486682FAFCF82819381892B19F4AA
:1016C00084E090E04ACF90E080E047CFAF92BF92B5
:1016D000CF92DF92EF92FF920F931F93CF93DF93FE
:1016E00000D01F92CDB7DEB78C01DC011296ED91D0
:1016F000FC91139714968D919C911597E80FF91F03
:101700001482ED90FC9011971496AC901497159656
:10171000BC9015971296CD90DC90C60104969A83E2
:101720008983AB828B2D8F778C83BE016F5F7F4F58
:10173000C70103960E949307009749F5F70140817E
:101740005181B501C6010E94200A009721F421E0D1
:10175000D70112962C93D801ED91FC91238134810D
:10176000DC012D933C9394838383F80113821282CE
:101770000F900F900F900F90DF91CF911F910F91CD
:10178000FF90EF90DF90CF90BF90AF900895DC0175
:1017900012962C9112972F5F12962C93E9CFCF932C
:1017A000DF93EC01CB01CF3FD10509F0B0F4BE01CE
:1017B0006B5F7F4F6C177D0780F0DC01ED91FC9132
:1017C0000190F081E02D1995009721F0FC01C38371
:1017D00021E02283DF91CF91089590E080E0FACF5D
:1017E000FB0101900020E9F73197AF01461B570B31
:1017F0000C943A048F929F92AF92BF920F931F93D3
:10180000CF93DF93CDB7DEB7A1970FB6F894DEBFC5
:101810000FBECDBF19A2423008F44AE08E010F5D21
:101820001F4F842E912CB12CA12CA50194010E9454
:10183000B61FE62FB901CA01EA3004F5E05DD80110
:10184000EE938D01232B242B252B79F790E080E05C
:10185000109729F0BD0184E394E00E94F00BA1965B
:101860000FB6F894DEBF0FBECDBFDF91CF911F91B1
:101870000F91BF90AF909F908F900895E95CDFCF5C
:10188000CF92DF92EF92FF92CF93DF936B017C01B7
:101890006DE284E394E00E941A05EC016627772745
:1018A000CB016C197D098E099F094AE00E94FA0B51
:1018B0008C0F9D1FDF91CF91FF90EF90DF90CF9025
:1018C00008950F931F93CF93DF938C01D0E0C0E076
:1018D0006115710519F00E94F00BEC0163E472E0F0
:1018E000C8010E94F00B8C0F9D1FDF91CF911F91BB
:1018F0000F910895FB0101900020E9F73197AF01A6
:10190000461B570B0C942207CF92DF92EF92FF9267
:101910000F931F93CF93DF938C016B017A0162E2E7
:101920000E940A07E601EC0CFD1CEC16FD0699F07E
:101930006991E0E3F2E0D480DD20C9F03296838142
:101940006813F9CF6CE5C8010E940A076D2DC80124
:101950000E940A07EACF62E2C801DF91CF911F918E
:101960000F91FF90EF90DF90CF900C940A076111D8
:10197000EECF66E472E0C8010E947A0CD6CF2F92B7
:101980003F924F925F926F927F928F929F92AF920F
:10199000BF92CF92DF92EF92FF920F931F93CF935C
:1019A000DF93CDB7DEB76B970FB6F894DEBF0FBEEF
:1019B000CDBF7C018B01DC0114968C9114978A3089
:1019C00009F4A0C2F0F4843009F479C268F48330D9
:1019D00009F490C26DE472E0C8010E947A0CD8014B
:1019E00014968D919C9129C2853009F47BC2863072
:1019F00089F78C9162E572E0811155C067E572E06C
:101A000052C08E3009F440C0C8F48C3019F7CD9024
:101A1000DD90ED90FC90B701A601F7FE0BC06DE2E2
:101A2000C8010E940A0744275527BA014C195D09CD
:101A30006E097F09C8010E944707FCC1803209F482
:101A400015C2803439F66BE5C8010E940A07D70138
:101A5000FC90BFEFFB1609F4E9C1F801868197817C
:101A60006F2D45960E946E067C01B8010E94BF0C46
:101A7000D7011596FC90BFEFFB1609F4D7C16CE2B5
:101A8000C8010E940A07E5CFF70180809180A280FB
:101A9000B380A5019401C501B4010E94601E882392
:101AA00031F06DE472E0C8010E947A0CC3C120E0FD
:101AB00030E0A901C501B4010E94601E882371F0C5
:101AC000A5019401C501B4010E94E81F9B01AC016E
:101AD000C501B4010E94601E882319F320E030E0A4
:101AE000A901C501B4010E94601E87FF08C06DE214
:101AF000C8010E940A07B7FAB094B7F8B09420E87A
:101B000036E948E15BE4C501B4010E94FC2087FD91
:101B100083C074E1C72ED12CE0E2EE2EF12C312CE3
:101B2000212CF601E050FE4F6591759185919491BD
:101B3000A50194010E94601E18167CF0F601E85180
:101B4000FE4F2591359145915491C501B4010E94F4
:101B5000C61E4B015C012E0C3F1CF594E794F4E08B
:101B6000CF1AD1082CEFC2162FEFD206D1F63FEFD5
:101B70003F8B20E030E0A901C501B4010E94FC20A8
:101B800018160CF051C02CEA35EC47E257E3C501BA
:101B9000B4010E94601E18160CF446C0AF89B4E070
:101BA000AB02C0011124D12CC12CFC01E851FE4F25
:101BB0002F019C0120503E4F39013F893F3F09F4DE
:101BC00033C0F201EC0DFD1D6591759185919491E5
:101BD00020E030E040E251E40E94C61EA5019401DD
:101BE0000E94FC2018167CF4F301EC0DFD1D2591DC
:101BF000359145915491C501B4010E94C61E4B0117
:101C00005C012E183F08F594E7948F8981508F8BE3
:101C100094E0C91AD108D1CF50E2E52EF12C85E02D
:101C20008F8B312C212CA5CFC501B4010E94CD2072
:101C30006B017C012B013C0180E492E4AFE0B0E059
:101C4000888F998FAA8FBB8F96E09F8BAAE04A1648
:101C5000510461047104E0F0688D798D8A8D9B8D4B
:101C60002AE030E040E050E00E94B61F288F398F14
:101C70004A8F5B8FBF89B150BF8BC301B2012AE08D
:101C800030E040E050E00E94B61F29013A01DECF6B
:101C9000C701B6010E94651E9B01AC01C501B401DC
:101CA0000E94E71F4B015C01688D798D8A8D9B8DA9
:101CB0000E94651E9B01AC01C501B4010E94C61EB5
:101CC0002B013C010E94CD204B015C010E94651E4E
:101CD0009B01AC01C301B2010E94E71F9B01AC0153
:101CE0000E94E81F0E94CD20860E971EA81EB91ED6
:101CF000888D998DAA8DBB8D88169906AA06BB067C
:101D0000C0F09FEFC91AD90AE90AF90A211431046F
:101D100039F1AAE0CA16D104E104F10408F1BFEFD9
:101D20002B1A3B0A812C912C5401C12CD12C760109
:101D3000C3942AE0422E512C612C712CC501B401B0
:101D4000A30192010E94B61F672B682B692B61F4D7
:101D5000EF891E164CF449015A01E150EF8BEECF8A
:101D6000812C912C5401E5CFB701A601C8010E9436
:101D70004707FF89FF2391F16E0121E1C20ED11CBB
:101D8000F88F76019AE0492E512C612C712C388DF8
:101D90003150388F3F3F69F0C501B401A301920172
:101DA0000E94B61F605DD6016E936D0149015A0114
:101DB000EECFBF898B2F90E0BC0160957095F70145
:101DC000E81BF90B31978EE2808344275527461B89
:101DD000570B6E0D7F1DC8010E942207211431048C
:101DE00049F165E6C8010E940A07710137FE07C084
:101DF0006DE2C8010E940A07F194E194F108FE0126
:101E000077969F018AE0C82ED12CC701B6010E94A7
:101E10001221805D82937B01672BB9F7A9014E1BCC
:101E20005F0BBF01C8010E94220704C06DE5C80115
:101E30000E940A07F801848195816B960FB6F89489
:101E4000DEBF0FBECDBFDF91CF911F910F91FF90ED
:101E5000EF90DF90CF90BF90AF909F908F907F904A
:101E60006F905F904F903F902F9008956BE7C8015F
:101E70000E940A07D701FC90EE24E394BB24B3949C
:101E8000BFEFFB16D1F0F801868197816F2D459643
:101E90000E946E066C01B8010E94BF0CD601159617
:101EA000FC90BFEFFB1639F06AE3E11001C06CE271
:101EB000C8010E940A07EB24E3CF6DE7B8CF6D910C
:101EC0007C9150E040E06115710541F0FB0101900B
:101ED0000020E9F73197AF01461B570BC8010E945C
:101EE000840CA8CFED91FC91438150E0BF016C5F61
:101EF0007F4FF4CFED91FC91438150E0BF016C5FC7
:101F00007F4F90CF4D915D916D917C9193CD9F923C
:101F1000AF92BF92CF92DF92EF92FF920F931F93F7
:101F2000CF93DF938A01452B09F463C0E9016B016C
:101F30006596FC016081CE010E946E06FC01BB2407
:101F4000BA94892B09F0B5807601E894F7F8AA24B1
:101F5000A3946701C00ED11E99249394309709F47D
:101F600048C0AA20D9F18481843039F0853051F1FC
:101F700090E080E0B0E0A0E00FC0A081B18190E0EF
:101F800080E0109741F0FD0101900020E9F73197C2
:101F9000CF018A1B9B0B9F77E816F906F9F4F8012D
:101FA000EC15FD05B9F46B2DCE01DF91CF911F919A
:101FB0000F91FF90EF90DF90CF90BF90AF909F90E8
:101FC0000C946E060190F081E02DDF011496838160
:101FD00090E0E2CF91918D91981711F3A9246B2D88
:101FE000CE010E946E06FC01892B09F4B7CFB580A3
:101FF000B5CF90E080E0DF91CF911F910F91FF90DE
:10200000EF90DF90CF90BF90AF909F900895FC012C
:1020100020813181C9014A96428153816481758151
:10202000009759F0D9015E96EC91E03211F090E002
:1020300080E0009711F00C94870F90E080E0089505
:10204000CF93DF9300D01F921F92CDB7DEB70E94CF
:102050000710FC01892B41F084818630A1F040F407
:102060008430F9F0853081F160E070E0CB0134C05C
:102070008C3081F08E3061F18A30B1F760817181EE
:102080008281938104C0608170E090E080E00E94D2
:10209000651E22C060817181828193810E94671ECA
:1020A0001BC0808191810E942B083A834B835C8303
:1020B0006D836A817B818C819D81223079F323300D
:1020C00031F3213089F608C0808191810496EBCFED
:1020D00060817181828193810F900F900F900F909A
:1020E0000F90DF91CF910895CF92DF92EF92FF9200
:1020F000CF93DF9300D01F921F92CDB7DEB70E941F
:102100000710FC01892B49F084818630E1F040F40E
:102110008430C9F1853009F44AC070E060E015C030
:102120008C3001F18E3009F446C08A30B1F78081DD
:102130009181A281B381811520E89207A105B105A3
:1021400060F7BC0102C0608170E0CB010F900F907E
:102150000F900F900F90DF91CF91FF90EF90DF9055
:10216000CF90089580819181A281B3816C017D011E
:1021700020E8D20EE11CF11CC114D10421E0E206DA
:10218000F10458F6DECF808191810E942B083A83BA
:102190004B835C836D83CA80DB80EC80FD802230C2
:1021A00041F1233091F1213009F0B7CF08C080818F
:1021B00091810496EACFC080D180E280F38020E054
:1021C00030E040E057ECC701B6010E94FC2087FDDB
:1021D000A4CF20E03EEF4FEF56E4C701B6010E94C6
:1021E000601E18160CF499CFC701B6010E94C620D4
:1021F000ACCFD701C6019058AF4FBF4F0097A14059
:10220000B10508F08ACFB601A0CFC11480E8D80686
:10221000E104F104C0F381CF4F925F926F927F92FD
:102220008F929F92AF92BF92CF92DF92EF92FF92E6
:102230000F931F93CF936B017C01742EAC019B0114
:102240000E9401216DE572E0811126C0460157010F
:10225000E894B7F82FEF3FEF4FE75FE7C501B40110
:102260000E94012181110CC02FEF3FEF4FE75FE784
:10227000C501B4010E94601E61E672E0181664F0A8
:102280002FEF3FEF4FE75FE4C701B6010E94FC204C
:102290001816ACF465E672E084E394E0CF911F91E8
:1022A0000F91FF90EF90DF90CF90BF90AF909F90F5
:1022B0008F907F906F905F904F900C94F00B2FEF6A
:1022C0003FEF4FE75FECC701B6010E94601E87FD3C
:1022D000E1CF20E030E0A901C701B6010E94601EF5
:1022E00010E000E087FF0AC06DE284E394E00E9402
:1022F0001A058C01F7FAF094F7F8F094C0E060E06A
:1023000070E080E09FE37C1641F020E030E040E2A6
:1023100051E40E945420CF5FF6CFA70196010E949E
:10232000E81F2B013C010E94CD204B015C014AE0DB
:102330000E94FA0B7C01E00EF11ECC23C1F1C50115
:10234000B4010E94651E9B01AC01C301B2010E9451
:10235000E71F4B015C016EE284E394E00E941A05E2
:10236000E80EF91EC15018F120E030E040E251E4DF
:10237000C501B4010E94C61E2B013C010E94CD2064
:102380004B01B12CA12C4AE0C501B4010E94FA0B0B
:10239000E80EF91EC501B4010E94651E9B01AC0147
:1023A000C301B2010E94E71F4B015C01DBCFC701F3
:1023B000CF911F910F91FF90EF90DF90CF90BF9042
:1023C000AF909F908F907F906F905F904F90089507
:1023D0000F931F93CF93DF93EC018881998100972E
:1023E00059F02A813B812617370730F081E0DF91D1
:1023F000CF911F910F9108958B016F5F7F4F0E94C6
:102400005A22009759F0998388831B830A832C8171
:102410003D81232B59F7FC011082E8CF80E0E7CF04
:10242000CB01BA010C945A22CB010C94D121BF925A
:10243000CF92DF92EF92FF920F931F93CF93DF9390
:10244000EC01198D1F3F81F0612F45960E946E06A9
:10245000FC018081898F309709F477C014828FEF57
:102460008583BF01812F76C06C0135E0C30ED11C7E
:10247000E880F9808F89882341F0C6010E94BA075D
:10248000E62FF72F182F309749F71F89988D1913CA
:1024900024C0103109F459C0110F6D897E89D7010C
:1024A000ED91FC91B4E01B9FA0011124C616D70644
:1024B00009F044C00190F081E02DBA01C7011995DF
:1024C000009709F442C020E1F601DC0101900D9271
:1024D0002A95E1F79E8B8D8B188F0D891E898F8928
:1024E00021E0280F2F8BE4E08E9FC0011124080FFC
:1024F000191F90E1B92E203111F48FE0B82EF6E0CB
:10250000BF9EB0011124D701ED91FC910190F081A3
:10251000E02DC7011995F80193838283892B09F473
:10252000B12CD801BC9211961C92012B71F0C601FE
:102530000E94BA07E62FF72F182F8DCF0480F58160
:10254000E02DC7011995009729F681E08A8360E0A4
:1025500070E08FEFDF91CF911F910F91FF90EF907F
:10256000DF90CF90BF9008952F923F924F925F924D
:102570006F927F928F929F92AF92BF92CF92DF9293
:10258000EF92FF920F931F93CF93DF9300D01F9290
:102590001F92CDB7DEB78C017B01542E0E94E80656
:1025A0006C01892B09F059C0C8010E949A06863631
:1025B00009F4D3C1ACF5873229F08B35E9F18232C9
:1025C00009F0D4C1D80115961C921E921497129648
:1025D0008D919C911397892B91F4CD90DC90F6010D
:1025E000608171818FE190E00E94CF0B009721F410
:1025F00021E0D60112962C93F80193838283C801BF
:102600000E94870A6C01892B41F5C8010E94660B64
:1026100025E0D70114962C9314978D939C931DC09D
:10262000843709F479C18B3709F47DC08E3609F0FF
:102630009DC16DE472E077C180E4D70114968C935C
:102640001497E114F10421F08FEF8C9311968C9381
:1026500051101CC025E0C22ED12CC6010F900F9046
:102660000F900F900F90DF91CF911F910F91FF90DE
:10267000EF90DF90CF90BF90AF909F908F907F9022
:102680006F905F904F903F902F900895F8011486BF
:10269000C8010E94E806009751F56DE5C8010E9447
:1026A000B4068111DACF5A94D8011D968D909C9072
:1026B000C4010E941712782E5B01672B21F494E06D
:1026C000C92ED12CCACFF70161816F3F91F0C401AF
:1026D00045960E946E06DC0115967C92F701718288
:1026E000452DB501C8010E94B412009739F06C0164
:1026F000B4CFD7018C9311968C93F2CFC8010E946E
:10270000E8060097A1F76DE5C8010E94B4068111A3
:10271000A4CF6CE2C8010E94B4068111C5CF83E04A
:10272000C82ED12C9ACF80E2F7018483E114F10402
:1027300019F08FEF80838183552009F48BCFD80166
:102740001C961C92C8010E94E806009781F66DE76E
:10275000C8010E94B406811180CF5A94F8011582F5
:10276000148282819381892B99F4C080D180D60113
:102770006D917C918FE190E00E94CF0B009719F44E
:1027800021E0F6012283D80113969C938E93129731
:10279000C8010E949A06873201F18232F1F0C80125
:1027A0000E949A06D82E0E948806882309F4B7CF83
:1027B000F80114866D2DC8010E944E0AC8010E94BE
:1027C0009A06D82E0E9488068111F2CFD80112965F
:1027D0008D919C91892B41F472CFC8010E94870A88
:1027E0006C01892B09F039CFC8010E94E8066C0101
:1027F000892B09F032CF6AE3C8010E94B40688230E
:1028000009F48DCFD8011296ED91FC91139714968F
:102810008D919C911597E80FF91F148214966D9174
:102820007C9115977F771D96AD90BC901E97129660
:102830008D919C910496272F2F77B42DB0784B2E35
:10284000422AE89447F89501AC01742DC7010E9413
:10285000870F6C01009709F05BC0C8010E94660BEE
:102860003C01F80185849684C4010E941712282E29
:102870005B01672B09F423CFC4010E941712382E85
:10288000962FC92ED72EC114D10409F418CFE5E034
:10289000D5011496EC93149711967C926E9215962E
:1028A0003C92D70111966C916F3F71F1C40145962E
:1028B0000E946E06FC012582D70111963C92452D9F
:1028C000B601C8010E94B4126C01892B09F0C5CE73
:1028D000C8010E94E8066C01892B09F0BECE6DE7A5
:1028E000C8010E94B4068111B8CE6CE2C8010E94F2
:1028F000B406882309F413CFC8010E94E8066C01CE
:10290000892B09F42BCFA9CEF70120823182D7CFB2
:10291000B5010E949A09D3CF86E0F701848381E054
:10292000808362E572E0C8010F900F900F900F90C6
:102930000F90DF91CF911F910F91FF90EF90DF905B
:10294000CF90BF90AF909F908F907F906F905F904F
:102950004F903F902F900C94C50686E0D7011496B7
:102960008C9314971C9267E572E0DDCFC8010E943A
:102970009A064801BFE08B0E911CB12C782CA92C33
:10298000803384F08A3384F4EFE3BE16A9F0D801D3
:102990001C961C92B394F40181934F01C8010E94CC
:1029A0009A06EECF8B3281F393ED980F923060F35D
:1029B000982F9F7D953441F30B0D111DD8011F9663
:1029C0001C92872D9A2D0E942B083A834B835C839F
:1029D0006D838A819B81AC81BD812230A9F0233037
:1029E00059F0213009F09BCE2EE0F701248380833B
:1029F0009183A283B38331CE2AE0F70124838083BD
:102A00009183A283B38329CE2CE0F7CF2F923F92FC
:102A10004F925F926F927F928F929F92AF92BF92EE
:102A2000CF92DF92EF92FF920F931F93CF93DF939A
:102A300000D000D000D0CDB7DEB7FC014115510564
:102A4000E1F4912C812CC40129960FB6F894DEBFD5
:102A50000FBECDBFDF91CF911F910F91FF90EF90EF
:102A6000DF90CF90BF90AF909F908F907F906F90AE
:102A70005F904F903F902F9008958481811139C0CD
:102A800080E284833097E9F28FEF8083818379013C
:102A90002A013B018F01CF010E94870F4C01892B36
:102AA00091F6C7010E9417128F836B01672B59F2B1
:102AB000C7010E941712282E5B01672B21F2372CC9
:102AC00077FE1DC084E0F601848351824082F601C6
:102AD0002582F80161816F3F09F45DC0C701459609
:102AE0000E946E062F81FC012583F8012182450199
:102AF000AACF803209F0A5CF309749F6A2CFE8944B
:102B000037F8F7010190F081E02DF987E8874982D5
:102B10005A826B823C82BE016F5F7F4FC701039672
:102B20000E949307009751F0FC0122812F5F2283BE
:102B300025E0F601248391838083C9CF6D82E894D8
:102B400037F83E82688579858D819E810E94CF0B02
:102B5000009721F481E0F701828375CFE981FA8142
:102B6000DC0114962D813E812E0F3F1F2E173F074B
:102B700019F041914D93FACFED81FE81E80FF91FD5
:102B80001482F70123813481FC0131832083F70112
:102B900094838383CDCF2F812083A8CFCF92DF92E0
:102BA000EF92FF920F931F93CF93DF93FC0100816D
:102BB0001181C8014A9619F17B01428153816481D8
:102BC000758198010E940615EC010097C1F0F7018C
:102BD000C080D180E280F380B8010E949A098EE023
:102BE0008C83C882D982EA82FB8281E0DF91CF9117
:102BF0001F910F91FF90EF90DF90CF90089580E0AC
:102C0000F5CFEF92FF920F931F93CF93DF93FC01C9
:102C1000E080F180C7014A9641F480E0DF91CF91D6
:102C20001F910F91FF90EF9008958B014281538186
:102C30006481758197010E940615EC01009769F384
:102C4000F80100811181B7010E949A098CE08C8300
:102C5000012E000C220B330B088319832A833B833C
:102C600081E0DCCF2F923F924F925F926F927F92E2
:102C70008F929F92AF92BF92CF92DF92EF92FF928C
:102C80000F931F93CF93DF93CDB7DEB7C55AD140D3
:102C90000FB6F894DEBF0FBECDBF0E942B03882372
:102CA00041F080916B058C3009F464C038F48B30AE
:102CB000F1F060E070E080EC9FE741C08551823028
:102CC000C0F710916705612F70E0762F66276627A1
:102CD0007F7780916805682B90E080E00E94651EF8
:102CE0002DEC3CEC4CEC5DE30E94C61E5FC0609195
:102CF000670570E090E080E00E94651E6B017C013A
:102D00001091680517FF0AC0AC019B0160E070E0FC
:102D100080E89FEB0E94E71F6B017C011F70612F11
:102D200070E090E080E00E94671E2DEC3CEC4CECE3
:102D30005DE30E94C61EA70196010E94E81FCA56C5
:102D4000DE4F688379838A839B83C659D1400E9472
:102D50002B03882351F080916B058B3030F08D3040
:102D600048F18551823008F4B2C060E070E080EC38
:102D70009FE73CC010916705612F70E090E080E014
:102D80000E94651E6B017C01609168056F7070E0A8
:102D900090E080E00E94671E2DEC3CEC4CEC5DE383
:102DA0000E94C61EA70196010E94E81F17FFC7CF09
:102DB0009058C5CF6091660570E090E080E00E9479
:102DC000671E2DEC3CEC4CEC5DE30E94C61E6B01D3
:102DD0007C016091650570E090E080E00E94671ED4
:102DE0009B01AC01C701B6010E94E81FC656DE4F29
:102DF000688379838A839B83CA59D14082E00E9489
:102E00004C02C256DE4F99838883CE59D14083E06D
:102E10000E944C02C056DE4F99838883C05AD1402D
:102E200080917B00877F80937B0082E480937C008D
:102E300080917A00806480937A0080917A0086FD88
:102E4000FCCF8091780090917900CE55DE4F998328
:102E50008883C25AD140CA56DE4F688179818A81FF
:102E60009B81C659D1409B01AC010E940121811177
:102E70000EC0C656DE4F688179818A819B81CA590E
:102E8000D1409B01AC010E940121882391F169E6A8
:102E900072E084E394E00E94610CCB55DE4F0FB6E4
:102EA000F894DEBF0FBECDBFDF91CF911F910F9180
:102EB000FF90EF90DF90CF90BF90AF909F908F905A
:102EC0007F906F905F904F903F902F90089560910A
:102ED00065057091660576276727762790E080E084
:102EE0000E94651E2DEC3CEC4CEC5DE30E94C61E7E
:102EF0007DCF6E0120E9C21A2EEFD20A80E092E067
:102F0000D60111969C938E9312961C92129714964A
:102F10001C921E921397C601059656969C938E930B
:102F2000559757961C92579784E058968C935897CC
:102F30009FEF59969C9359975E961C925E975F9669
:102F40009C938E010F5F1E4F21E030E0F80131832A
:102F50002083DA82C98229E832E03C832B838D8387
:102F60008E81807880688E83B8019E012F5F3F4FED
:102F70007901C9010E940116DA82C9828EE892E0C5
:102F80009C838B838BE0A82EAD828E8180788068B5
:102F90008E83BE016A567E4FC7010E94CE15DA822B
:102FA000C9828AE992E09C838B8398E0B92EBD8226
:102FB0008E81807880688E83BE0166567E4FC70101
:102FC0000E94CE15DA82C98283EA92E09C838B83C9
:102FD00089E08D838E81807880688E83BE01625601
:102FE0007E4FC7010E940116DA82C9828DEA92E003
:102FF0009C838B83AD828E81807880688E83BE01B6
:1030000060567E4FC7010E940116DA82C98289EBA1
:1030100092E09C838B83BD828E81807880688E83D2
:10302000BE016E557E4FC7010E940116D801119650
:103030001C930E931396FC92EE92129715961C9287
:103040001E9214971796DC92CE921697B801C6017D
:103050004A960E94BF0C8F3F910509F020F48E0D17
:103060009F1DFC011082B70187E993E00E94610C6B
:1030700062EC72E084E394E00E94F00BB70184E319
:1030800094E00E94610C87E993E00E94D804892BA8
:1030900009F452C2C057DE4F19821882C059D1407C
:1030A000CE56DE4F19821882C259D140CC56DE4F1F
:1030B00019821882C459D14070E060E0CE01805777
:1030C0009E4F0E94E811C057DE4F28813981C059B8
:1030D000D14081114CC02115310519F0C9010E9460
:1030E000D121C057DE4F19821882C059D140CC5629
:1030F000DE4F19821882C459D140CE56DE4F198254
:103100001882C259D1400E948A04CC56DE4FA88052
:10311000B980C459D14097FD36C08A30910599F1E4
:10312000D8018C9311961C92BFEFAB1ABB0AB50164
:10313000CE0180579E4F0E94E811882321F3C0578B
:10314000DE4F28813981C059D140CC56DE4F88816D
:103150009981C459D140B801820F931F0E94442322
:10316000CC56DE4FB982A882C459D140CCCFCC56C0
:10317000DE4F19821882C459D14062E472E0C9015D
:103180000E944423C0CF7E01E0EBEE1AEEEFFE0A70
:1031900080E092E0D70111969C938E9312961C9238
:1031A000129714961C921E921397C7010596569675
:1031B0009C938E93559757961C92579724E0589658
:1031C0002C9358972FEF59962C9359975E961C92F3
:1031D0005E975F962C93C057DE4F88809980C059C8
:1031E000D14060E072E00E94E607F7011282608041
:1031F0007180D70113968D919C911497009759F087
:10320000FC012081318114963C932E931397B301D6
:103210000E949009EECF5E961C92F801F182E08246
:103220001382128215821482168290868782A80CDD
:10323000B91CB286A1861486F686E5864AE0B701F7
:10324000665E7F4FC8010E94B4125C01892B61F455
:10325000D8011B968C91882339F0F701868D83FF66
:1032600003C0B3E0AB2EB12CD80112968D919C9186
:103270001397009731F0ED91FC91608171810E946C
:103280009009A114B10409F069C1F801F182E0824A
:1032900089E892E09383828384E0848385818078C7
:1032A00080688583C8010E9474101C01D8011196A2
:1032B000FC92EE928EE892E013969C938E93129776
:1032C0008BE014968C93149715968C9115978078B3
:1032D000806815968C93C8010E9420102B013C0138
:1032E000F801F182E0828AE992E09383828328E008
:1032F00024838581807880688583C8010E9420109E
:103300004B015C01D8011196FC92EE9285ED92E0A2
:1033100013969C938E93129783E014968C93149734
:1033200015968C9115978078806815968C93C801B6
:103330000E947410CC55DE4F99838883C45AD140C3
:10334000F801F182E08289EB92E09383828328E0A6
:1033500024838581807880688583C8010E947410E9
:103360008C0169ED72E084E394E00E94F00BCC568E
:10337000DE4F48815981C459D140C057DE4F688122
:103380007981C059D14084E394E00E943A0460EF0F
:1033900072E084E394E00E94F00BB101330C880BDF
:1033A000990B97FFD3C00E94400C6DEF72E084E34D
:1033B00094E00E94F00B42E0C301B2010E940C11A4
:1033C0006EE073E084E394E00E94F00B42E0C501FC
:1033D000B4010E940C1163E472E084E394E00E9463
:1033E000F00B6CE173E084E394E00E94F00BCC55A9
:1033F000DE4FA881B981C45AD140BD01BB0F880BF3
:10340000990B97FFA7C00E94400C63E472E084E32D
:1034100094E00E94F00B24EB30E0D8010E942E21B2
:103420002FEF33E040E050E00E94841FC901A90162
:10343000203232400CF03FC020916305E8E88E2E28
:10344000912C821A910827FD9394880C991C880C62
:10345000991C092C000CAA08BB082091640508E5FA
:1034600012E0021B110927FD1395000F111F000F19
:10347000111F012E000C220B330BA90198012819F2
:1034800039094A095B09DC01853B910514F0A4EB7D
:10349000B0E0B7FF02C0B0E0A0E00E94AE1F24EB96
:1034A00030E040E050E00E94841FBA01A901480DBD
:1034B000591D6A1D7B1DE0916205E03380F5209166
:1034C000630588E890E0821B910927FD9395880F9A
:1034D000991F880F991F4817590784F02091640598
:1034E00088E592E0821B910927FD9395880F991F2B
:1034F000880F991F481759070CF4CA010297880FC3
:10350000991F4FB7F8942E2F30E0F901EE0FFF1FEF
:10351000E20FF31FEF52FB4F928381834FBFC7012E
:103520000E94020AC057DE4F88819981C059D1405C
:10353000009711F00E94D12164EF71E080E090E0EB
:103540000E94F902C6010E94020AA7CC4AE00E942A
:10355000FA0B2BCF4AE00E94FA0B57CF6BE273E0D5
:1035600084E394E00E94F00BF501EE0FFF1FEE5E86
:10357000FD4F6081718184E394E00E94610CCFCFA4
:10358000CB010C9435211F920F920FB60F9211248C
:103590002F933F938F939F93AF93BF938091930308
:1035A00090919403A0919503B091960330918E036E
:1035B00023E0230F2D3758F50196A11DB11D20934F
:1035C0008E038093930390939403A0939503B093F9
:1035D000960380918F0390919003A0919103B091F5
:1035E00092030196A11DB11D80938F0390939003C8
:1035F000A0939103B0939203BF91AF919F918F914C
:103600003F912F910F900FBE0F901F90189526E8B5
:10361000230F0296A11DB11DD2CF1F920F920FB69C
:103620000F9211240BB60F922F933F934F935F93FA
:103630006F937F938F939F93AF93BF93EF93FF937A
:1036400087E993E00E94F804FF91EF91BF91AF9159
:103650009F918F917F916F915F914F913F912F91AA
:103660000F900BBE0F900FBE0F901F9018951F92DA
:103670000F920FB60F9211240BB60F922F938F93C8
:103680009F93EF93FF93E091A703F091A8038081AC
:10369000E091AD03F091AE0382FD1DC09081809159
:1036A000B0038F5F8F732091B103821741F0E091D7
:1036B000B003F0E0E956FC4F958F8093B003FF9183
:1036C000EF919F918F912F910F900BBE0F900FBE96
:1036D0000F901F9018958081F2CF1F920F920FB616
:1036E0000F9211240BB60F922F933F934F935F933A
:1036F0006F937F938F939F93AF93BF93EF93FF93BA
:1037000084E394E00E94F804FF91EF91BF91AF91A0
:103710009F918F917F916F915F914F913F912F91E9
:103720000F900BBE0F900FBE0F901F9018951F9219
:103730000F920FB60F9211240BB60F922F938F9307
:103740009F93EF93FF93E0914404F09145048081AF
:10375000E0914A04F0914B0482FD1DC0908180915C
:103760004D048F5F8F7320914E04821741F0E091DA
:103770004D04F0E0EC5CFB4F958F80934D04FF917E
:10378000EF919F918F912F910F900BBE0F900FBED5
:103790000F901F9018958081F2CF1F920F920FB655
:1037A0000F9211240BB60F922F933F934F935F9379
:1037B0006F937F938F939F93AF93BF93EF93FF93F9
:1037C00048E251E064E271E090E080E00E94B405DC
:1037D000FF91EF91BF91AF919F918F917F916F91E9
:1037E0005F914F913F912F910F900BBE0F900FBEA5
:1037F0000F901F9018951F920F920FB60F921124E1
:103800000BB60F922F933F934F935F936F937F93DA
:103810008F939F93AF93BF93EF93FF9348EA50E04A
:1038200064EA70E083E090E00E94B405FF91EF91BC
:10383000BF91AF919F918F917F916F915F914F91C8
:103840003F912F910F900BBE0F900FBE0F901F90C6
:1038500018951F920F920FB60F9211240BB60F926C
:103860002F933F934F935F936F937F938F939F9388
:10387000AF93BF93EF93FF9348E950E064E970E0A2
:1038800082E090E00E94B405FF91EF91BF91AF916B
:103890009F918F917F916F915F914F913F912F9168
:1038A0000F900BBE0F900FBE0F901F9018951F9298
:1038B0000F920FB60F9211240BB60F922F933F93D6
:1038C0004F935F936F937F938F939F93AF93BF9328
:1038D000EF93FF9348E850E064E870E081E090E007
:1038E0000E94B405FF91EF91BF91AF919F918F918D
:1038F0007F916F915F914F913F912F910F900BBEF0
:103900000F900FBE0F901F90189510929A0310926F
:10391000990348EE53E060E070E040939B035093BE
:103920009C0360939D0370939E0382E292E09093C8
:103930009803809397032DEC30E03093A4032093F9
:10394000A3032CEC30E03093A6032093A50328ECCE
:1039500030E03093A8032093A70329EC30E03093A4
:10396000AA032093A9032AEC30E03093AC03209300
:10397000AB032EEC30E03093AE032093AD031092F6
:10398000B0031092B1031092B2031092B3031092DD
:1039900037041092360440933804509339046093EE
:1039A0003A0470933B04909335048093340485EC7F
:1039B00090E0909341048093400484EC90E09093D5
:1039C00043048093420480EC90E0909345048093FC
:1039D000440481EC90E0909347048093460482EC89
:1039E00090E0909349048093480486EC90E0909393
:1039F0004B0480934A0410924D0410924E0410928E
:103A00004F041092500485E180936A058BE0809307
:103A10006B05E3E7F2E0E491E0936C05EDE2F2E0A0
:103A2000E491E0936D0580E89EE3A0E0B0E0809330
:103A3000720590937305A0937405B09375058091FA
:103A40006105803398F491E0980F9093610580931D
:103A5000620590E0FC01EE0FFF1FE80FF91FEF5227
:103A6000FB4F88EB9BE09283818308958FEF8093D7
:103A700062050895789484B5826084BD84B58160C0
:103A800084BD85B5826085BD85B5816085BD809129
:103A90006E00816080936E001092810080918100A1
:103AA0008260809381008091810081608093810099
:103AB000809180008160809380008091B10084605B
:103AC0008093B1008091B00081608093B0008091BC
:103AD0009100826080939100809191008160809339
:103AE0009100809190008160809390008091A1006E
:103AF00082608093A1008091A10081608093A100E9
:103B00008091A00081608093A0008091210182605B
:103B10008093210180912101816080932101809116
:103B2000200181608093200180917A0084608093DD
:103B30007A0080917A00826080937A0080917A0086
:103B4000816080937A0080917A00806880937A0007
:103B50001092C10087E993E00E94860184E394E01B
:103B60000E94860162E080916A050E94A3022FB73D
:103B7000F8948091930390919403A0919503B09150
:103B800096032FBF805D9740A109B10980936E0510
:103B900090936F05A0937005B093710587E38093B0
:103BA000770562E082E00E94A30262E083E00E9467
:103BB000A30280916205803308F051C061E089E082
:103BC0000E94A30280916205282F30E0F901EE0FD8
:103BD000FF1FE20FF31FEF52FB4F9081907C996023
:103BE000908310926305109264052CE0622F0E946E
:103BF0000621829FB001112430E020E0AB01420F8A
:103C0000531FFA01EE0FFF1FE40FF51FEF52FB4F9A
:103C1000908196FD16C02F5F3F4F2C30310571F714
:103C2000813011F51092800082E080938100109223
:103C3000850010928400B19A80916F008260809319
:103C40006F00E09162058E2F90E0FC01EE0FFF1FE8
:103C5000E80FF91FEF52FB4F8081806480830E9440
:103C600032160E948705FBCF823061F410929000DB
:103C700080939100109295001092940088BB8093DD
:103C80007100DFCF833069F41092A00082E080934E
:103C9000A1001092A5001092A40089BB809372002D
:103CA000D0CF8111CECF1092200182E080932101EC
:103CB00010922501109224018ABB80937300C1CF1A
:103CC0000E94A21E08F481E00895E89409C097FBC1
:103CD0003EF490958095709561957F4F8F4F9F4FE3
:103CE0009923A9F0F92F96E9BB279395F695879527
:103CF00077956795B795F111F8CFFAF4BB0F11F4EA
:103D000060FF1BC06F5F7F4F8F4F9F4F16C0882390
:103D100011F096E911C0772321F09EE8872F762FC6
:103D200005C0662371F096E8862F70E060E02AF007
:103D30009A95660F771F881FDAF7880F96958795F3
:103D400097F90895990F0008550FAA0BE0E8FEEFC8
:103D500016161706E807F907C0F012161306E4074F
:103D6000F50798F0621B730B840B950B39F40A2648
:103D700061F0232B242B252B21F408950A2609F426
:103D8000A140A6958FEF811D811D08950E94D91E27
:103D90000C944A1F0E943C1F38F00E94431F20F0E1
:103DA000952311F00C94331F0C94391F11240C949B
:103DB0007E1F0E945B1F70F3959FC1F3950F50E02B
:103DC000551F629FF001729FBB27F00DB11D639FCD
:103DD000AA27F00DB11DAA1F649F6627B00DA11D73
:103DE000661F829F2227B00DA11D621F739FB00D19
:103DF000A11D621F839FA00D611D221F749F332789
:103E0000A00D611D231F849F600D211D822F762F21
:103E10006A2F11249F5750409AF0F1F088234AF0FE
:103E2000EE0FFF1FBB1F661F771F881F915050406A
:103E3000A9F79E3F510580F00C94331F0C947E1F10
:103E40005F3FE4F3983ED4F3869577956795B795F1
:103E5000F795E7959F5FC1F7FE2B880F911D96950B
:103E6000879597F9089597F99F6780E870E060E07B
:103E700008959FEF80EC089500240A941616170603
:103E800018060906089500240A941216130614064B
:103E900005060895092E0394000C11F4882352F0AE
:103EA000BB0F40F4BF2B11F460FF04C06F5F7F4F66
:103EB0008F4F9F4F089557FD9058440F551F59F04D
:103EC0005F3F71F04795880F97FB991F61F09F3F07
:103ED00079F087950895121613061406551FF2CF30
:103EE0004695F1DF08C0161617061806991FF1CF80
:103EF00086957105610508940895E894BB276627A7
:103F00007727CB0197F90895052E97FB1EF40094AF
:103F10000E949B1F57FD07D00E94B61F07FC03D0CD
:103F20004EF40C949B1F50954095309521953F4F32
:103F30004F4F5F4F089590958095709561957F4F95
:103F40008F4F9F4F08950E94D81FA59F900DB49F3B
:103F5000900DA49F800D911D11240895B7FF0C941E
:103F6000A31F0E94A31F821B930B0895A1E21A2E88
:103F7000AA1BBB1BFD010DC0AA1FBB1FEE1FFF1F0D
:103F8000A217B307E407F50720F0A21BB30BE40B5D
:103F9000F50B661F771F881F991F1A9469F76095A4
:103FA0007095809590959B01AC01BD01CF0108955E
:103FB000A29FB001B39FC001A39F700D811D11246A
:103FC000911DB29F700D811D1124911D08955058AF
:103FD000BB27AA270E94FF1F0C944A1F0E943C1F68
:103FE00038F00E94431F20F039F49F3F19F426F463
:103FF0000C94391F0EF4E095E7FB0C94331FE92F66
:104000000E945B1F58F3BA1762077307840795076E
:1040100020F079F4A6F50C947D1F0EF4E0950B2E9C
:10402000BA2FA02D0B01B90190010C01CA01A0010A
:104030001124FF27591B99F0593F50F4503E68F165
:104040001A16F040A22F232F342F4427585FF3CFA6
:10405000469537952795A795F0405395C9F77EF477
:104060001F16BA0B620B730B840BBAF09150A1F0C0
:10407000FF0FBB1F661F771F881FC2F70EC0BA0F46
:10408000621F731F841F48F4879577956795B795CE
:10409000F7959E3F08F0B0CF9395880F08F09927C9
:1040A000EE0F9795879508950E9468200C944A1FFB
:1040B0000E94431F58F00E943C1F40F029F45F3FCC
:1040C00029F00C94331F51110C947E1F0C94391F4E
:1040D0000E945B1F68F39923B1F3552391F3951B5D
:1040E000550BBB27AA2762177307840738F09F5F19
:1040F0005F4F220F331F441FAA1FA9F335D00E2E86
:104100003AF0E0E832D091505040E695001CCAF7F2
:104110002BD0FE2F29D0660F771F881FBB1F2617B5
:1041200037074807AB07B0E809F0BB0B802DBF018C
:10413000FF2793585F4F3AF09E3F510578F00C945B
:10414000331F0C947E1F5F3FE4F3983ED4F38695B3
:1041500077956795B795F7959F5FC9F7880F911D7C
:104160009695879597F90895E1E0660F771F881F68
:10417000BB1F621773078407BA0720F0621B730B1B
:10418000840BBA0BEE1F88F7E09508950E94CD20AE
:104190006894B1110C947E1F08950E94631F88F0EB
:1041A0009F5798F0B92F9927B751B0F0E1F0660FFB
:1041B000771F881F991F1AF0BA95C9F714C0B1303C
:1041C00091F00E947D1FB1E008950C947D1F672F30
:1041D000782F8827B85F39F0B93FCCF3869577956B
:1041E0006795B395D9F73EF4909580957095619554
:1041F0007F4F8F4F9F4F08950E94A21E08F48FEFAC
:1042000008950E94A21E880B990B0895991B79E0CE
:1042100004C0991F961708F0961B881F7A95C9F756
:1042200080950895AA1BBB1B51E107C0AA1FBB1FA5
:10423000A617B70710F0A61BB70B881F991F5A9532
:10424000A9F780959095BC01CD010895EE0FFF1F51
:10425000881F8BBF0790F691E02D19940E94D81FFC
:10426000B7FF0895821B930B08950F931F93CF936D
:10427000DF938230910510F482E090E0E0917A05BE
:10428000F0917B0530E020E0B0E0A0E0309799F4B9
:104290002115310509F44AC0281B390B243031059A
:1042A000D8F58A819B816115710589F1FB019383A2
:1042B0008283FE0111C04081518102811381481720
:1042C0005907E0F04817590799F4109761F01296D2
:1042D0000C93129713961C933296CF01DF91CF91D6
:1042E0001F910F91089500937A0510937B05F4CFE9
:1042F0002115310551F04217530738F0A901DB01B0
:104300009A01BD01DF01F801C1CFEF01F9CF909310
:104310007B0580937A05CDCFFE01E20FF31F8193D9
:1043200091932250310939832883D7CF2091780582
:1043300030917905232B41F420910402309105023C
:104340003093790520937805209102023091030281
:104350002115310541F42DB73EB740910602509129
:104360000702241B350BE0917805F0917905E217DF
:10437000F307A0F42E1B3F0B2817390778F0AC0188
:104380004E5F5F4F2417350748F04E0F5F1F509365
:10439000790540937805819391939FCFF0E0E0E019
:1043A0009CCFCF93DF930097E9F0FC013297138203
:1043B0001282A0917A05B0917B05ED0130E020E0FA
:1043C0001097A1F420813181820F931F20917805ED
:1043D000309179052817390709F061C0F093790504
:1043E000E0937805DF91CF910895EA01CE17DF07BA
:1043F000E8F54A815B819E0141155105B1F7E9015C
:10440000FB83EA8349915991C40FD51FEC17FD072F
:1044100061F4808191810296840F951FE90199834F
:104420008883828193819B838A83F0E0E0E0129607
:104430008D919C9113970097B9F52D913C9111970F
:10444000CD010296820F931F209178053091790556
:104450002817390739F6309751F510927B051092DD
:104460007A05B0937905A0937805BCCFD383C28336
:1044700040815181840F951FC817D90761F44E5FA1
:104480005F4F88819981480F591F518340838A81EA
:104490009B81938382832115310509F0B0CFF0937E
:1044A0007B05E0937A059ECFFD01DC01C0CF13822E
:1044B0001282D7CF4F925F926F927F928F929F928C
:1044C000AF92BF92CF92DF92EF92FF920F931F9322
:1044D000CF93DF938C01009799F4CB01DF91CF91BB
:1044E0001F910F91FF90EF90DF90CF90BF90AF9012
:1044F0009F908F907F906F905F904F900C9435219C
:10450000FC01E60FF71F9C0122503109E217F30767
:1045100008F4AEC0D901CD91DC911197C617D70729
:1045200020F1C530D10578F0CE01049786179707A2
:1045300050F0C61BD70B2297C193D1936D937C93F8
:10454000CF010E94D121C801DF91CF911F910F911E
:10455000FF90EF90DF90CF90BF90AF909F908F90A3
:104560007F906F905F904F9008955B01AC1ABD0AE9
:104570004C018C0E9D1EA0917A05B0917B05512CAB
:10458000412CF12CE12C109731F580917805909118
:1045900079058815990509F05CC04616570608F09C
:1045A00058C08091020290910302009741F48DB7A8
:1045B0009EB74091060250910702841B950BE817A5
:1045C000F90708F055C0F0937905E0937805F901F3
:1045D00071836083B8CF8D919C91119712966C90E6
:1045E000129713967C901397A815B90559F56C018D
:1045F00042E0C40ED11CCA14DB0420F1AC014A19FC
:104600005B09DA011296159780F0628273825183FA
:104610004083D9016D937C93E114F10471F0D701CB
:104620001396FC93EE9312978ECF22968C0F9D1FBC
:10463000F90191838083F301EFCFF0937B05E09341
:104640007A0581CF4816590608F42C017D01D30163
:104650009ACFCB010E9435217C01009749F0AE0131
:10466000B8010E943B23C8010E94D12187016BCF72
:1046700010E000E068CFFB01DC0102C001900D9268
:1046800041505040D8F70895FB01DC0101900D9294
:104690000020E1F70895F894FFCF0C0200007C059C
:1046A000800000000000C01A141210124E035103C3
:1046B0005C036C0379038203000000001A053A04CE
:1046C00067046705D8047604CA042F2F27272222FF
:1046D0005C5C6208660C6E0A720D7409000D0A00BB
:1046E0005C7530303030006E756C6C0074727565BE
:1046F0000066616C7365006E616E00696E66006FC6
:104700007666004661696C656420746F207265612D
:10471000642066726F6D204448542073656E736F19
:104720007221006E6F64650074656D7065726174EE
:104730007572650068756D6964697479007377696D
:104740007463684469720073776974636853746151
:10475000727400706F7456616C7565004E6F64659D
:1047600020312053656E74204A534F4E3A20006C1E
:104770006472004E6F64652032204A534F4E2052BF
:10478000656365697665643A2000207C204E6F641D
:10479000652049443A2000207C2054656D70657284
:1047A00061747572653A2000207C2048756D6964DB
:1047B0006974793A2000207C204C44522056616C68
:1047C00075653A20004661696C656420746F2070DD
:1047D00061727365204A534F4E2066726F6D204E92
:1047E0006F646520323A20004F6B00456D7074791C
:1047F000496E70757400496E636F6D706C65746599
:10480000496E70757400496E76616C6964496E70AA
:104810007574004E6F4D656D6F727900546F6F4403
:04482000656570005A
:020000040003F7
:10E000000D9489F10D94B2F10D94B2F10D94B2F129
:10E010000D94B2F10D94B2F10D94B2F10D94B2F1F0
:10E020000D94B2F10D94B2F10D94B2F10D94B2F1E0
:10E030000D94B2F10D94B2F10D94B2F10D94B2F1D0
:10E040000D94B2F10D94B2F10D94B2F10D94B2F1C0
:10E050000D94B2F10D94B2F10D94B2F10D94B2F1B0
:10E060000D94B2F10D94B2F10D94B2F10D94B2F1A0
:10E070000D94B2F10D94B2F10D94B2F10D94B2F190
:10E080000D94B2F10D94B2F10D94B2F10D94B2F180
:10E090000D94B2F10D94B2F10D94B2F10D94B2F170
:10E0A0000D94B2F10D94B2F10D94B2F10D94B2F160
:10E0B0000D94B2F10D94B2F10D94B2F10D94B2F150
:10E0C0000D94B2F10D94B2F10D94B2F10D94B2F140
:10E0D0000D94B2F10D94B2F10D94B2F10D94B2F130
:10E0E0000D94B2F141546D656761323536300041AF
:10E0F000726475696E6F206578706C6F72657220DE
:10E1000073746B3530305632206279204D4C530099
:10E11000426F6F746C6F616465723E004875683F52
:10E1200000436F6D70696C6564206F6E203D200048
:10E130004350552054797065202020203D20005FF9
:10E140005F4156525F415243485F5F3D2000415658
:10E1500052204C696243205665723D20004743437C
:10E160002056657273696F6E203D20004350552024
:10E1700049442020202020203D20004C6F7720663D
:10E18000757365202020203D20004869676820665F
:10E190007573652020203D200045787420667573D6
:10E1A00065202020203D20004C6F636B2066757336
:10E1B000652020203D20004D617220203720323024
:10E1C000313300312E362E3800342E332E350056A2
:10E1D00023202020414444522020206F7020636F70
:10E1E00064652020202020696E73747275637469E1
:10E1F0006F6E2061646472202020496E74657272B3
:10E20000757074006E6F20766563746F7200726A49
:10E210006D702020006A6D70200057686174207056
:10E220006F72743A00506F7274206E6F7420737541
:10E2300070706F72746564004D7573742062652030
:10E2400061206C6574746572002000577269747483
:10E25000696E672045450052656164696E672045B7
:10E26000450045452065727220636E743D00504F35
:10E27000525400303D5A65726F2061646472003FF1
:10E280003D43505520737461747300403D454550C3
:10E29000524F4D207465737400423D426C696E6B41
:10E2A000204C454400453D44756D70204545505215
:10E2B0004F4D00463D44756D7020464C415348001B
:10E2C000483D48656C70004C3D4C69737420492F83
:10E2D0004F20506F72747300513D51756974005234
:10E2E0003D44756D702052414D00563D73686F7707
:10E2F00020696E7465727275707420566563746FF0
:10E30000727300593D506F727420626C696E6B00BD
:10E310002A0011241FBECFEFD1E2DEBFCDBF01E046
:10E320000CBF12E0A0E0B2E0EEE1FDEF03E00BBFB6
:10E3300002C007900D92A030B107D9F712E0A0E01B
:10E34000B2E001C01D92AE30B107E1F70F9460F367
:10E350000D948DFE01E20EBF0FEF0DBF11241FBE05
:10E360000D9460F30D9400F020E030E040ED57E0B4
:10E3700005C0FA013197F1F72F5F3F4F2817390792
:10E38000C0F308959C01260F311DC901A0E0B0E043
:10E390002F5F3F4FABBFFC018791882361F08093D3
:10E3A000C6008091C00086FFFCCF8091C0008064D1
:10E3B0008093C000EACF08958DE08093C6008091DD
:10E3C000C00086FFFCCF8091C00080648093C000B5
:10E3D0008AE08093C6008091C00086FFFCCF8091C8
:10E3E000C00080648093C00008950F94C2F10F9420
:10E3F000DCF10895FC019081992359F09093C600B7
:10E400008091C00086FFFCCF8091C0008064809323
:10E41000C0003196992379F70895282F982F929567
:10E420009F70892F805D8A3308F0895F8093C600D2
:10E430008091C00086FFFCCF8091C00080648093F3
:10E44000C000822F8F70982F905D9A3308F0995FEB
:10E450009093C6008091C00086FFFCCF8091C000E1
:10E4600080648093C00008959C01FB01853691056E
:10E470001CF46330710594F0C90164E670E00F94F8
:10E480002EFE605D7F4F6093C6008091C00086FFC6
:10E49000FCCF8091C00080648093C0002B30310598
:10E4A00014F43297B4F0C90164E670E00F942EFEC4
:10E4B0006AE070E00F942EFE605D7F4F6093C600AF
:10E4C0008091C00086FFFCCF8091C0008064809363
:10E4D000C000C9016AE070E00F942EFEC0968093E0
:10E4E000C6008091C00086FFFCCF8091C000806490
:10E4F0008093C00008951F93182F8EE692EE60E07F
:10E500000F94C2F11093C6008091C00086FFFCCF2B
:10E510008091C00080648093C0000F94DCF11F9153
:10E5200008952F923F924F925F926F927F928F92B7
:10E530009F92AF92BF92CF92DF92EF92FF920F9392
:10E540001F93DF93CF93CDB7DEB762970FB6F894E2
:10E55000DEBF0FBECDBF382E622ECA01DB015C01CB
:10E560006D01772420E2222E2E010894411C511CBB
:10E570008BC081E0A81680E0B80681E0C80680E084
:10E58000D80628F0C601AA27BB270F940DF2BB2797
:10E59000AD2D9C2D8B2D0F940DF28A2D0F940DF225
:10E5A0002092C6008091C00086FFFCCF8091C00001
:10E5B00080648093C0009DE29093C6008091C0006B
:10E5C00086FFFCCF8091C00080648093C0002092C1
:10E5D000C6008091C00086FFFCCF8091C00080649F
:10E5E0008093C00019828601750188249924A1E0D6
:10E5F0003A1651F03A1620F0B2E03B1661F409C029
:10E600000BBFF701779007C0C7010F9477FE782EF4
:10E6100002C0F7017080872D0F940DF22092C60082
:10E620008091C00086FFFCCF8091C0008064809301
:10E63000C000872D8052F401EF70F0708F3520F408
:10E64000E40DF51D708204C0E40DF51D8EE280839B
:10E650000894E11CF11C011D111D0894811C911CE2
:10E6600090E18916910409F0C2CF80E190E0A0E02A
:10E67000B0E0A80EB91ECA1EDB1E198AC2010F9493
:10E68000FAF10F94DCF16A94662009F072CF629679
:10E690000FB6F894DEBF0FBECDBFCF91DF911F91B3
:10E6A0000F91FF90EF90DF90CF90BF90AF909F9031
:10E6B0008F907F906F905F904F903F902F90089534
:10E6C0002F923F924F925F926F927F928F929F9282
:10E6D000AF92BF92CF92DF92EF92FF920F931F9370
:10E6E000DF93CF93CDB7DEB7CD53D1400FB6F894BB
:10E6F000DEBF0FBECDBF01E20EBF0FEF0DBF94B75F
:10E70000F894A89514BE80916000886180936000A1
:10E7100010926000789493FF05C0E0910002F091A0
:10E7200001021995279A2F9A8091C00082608093E8
:10E73000C00080E18093C40088E18093C1000000A4
:10E74000EE24FF24870144E0A42EB12CCC24DD2448
:10E7500024C0C5010197F1F70894E11CF11C011DCB
:10E76000111D21E2E2162EE4F20620E0020720E06D
:10E77000120718F031E0C32ED12CC801B70127ECE5
:10E780003BE140E050E00F9441FE611571058105C9
:10E79000910519F485B1805885B98091C00087FD35
:10E7A00003C0C114D104A9F2A6014F5F5F4FC25E3E
:10E7B000DE4F59834883CE51D140C25EDE4F8881FF
:10E7C0009981CE51D140019711F00D9410FEC05D9A
:10E7D000DE4F19821882C053D14060E0C15DDE4F28
:10E7E0001882CF52D14088249924C35DDE4F19820C
:10E7F0001882CD52D140C05EDE4F188219821A8233
:10E800001B82C052D140CE5CDE4F188219821A8220
:10E810001B82C253D140EE24FF2487010BBFF701B6
:10E8200007911691C45CDE4F19830883CC53D14005
:10E830000D940BFEC25EDE4F28813981CE51D1404E
:10E840002130310509F52091C600C25EDE4F1982E4
:10E850001882CE51D14022C02F5F3F4F4F4F5F4FA4
:10E86000213082E138078AE7480780E0580780F0C6
:10E87000C45CDE4FE881F981CC53D140EF5FFF4F9C
:10E8800019F0EE27FF27099420E030E040E050E047
:10E890008091C00087FFE0CF2091C600C35DDE4FAE
:10E8A00048815981CD52D1404F5F5F4FC35DDE4FEC
:10E8B00059834883CD52D140213209F063C64A3092
:10E8C000510508F05FC60894811C911C53E0851621
:10E8D000910409F059C600E010E018C081E280936D
:10E8E000C6008091C00086FFFCCF8091C00080648C
:10E8F0008093C0002F5F3F4F2931310579F70F9486
:10E90000DCF10F5F1F4F0530110519F020E030E0FA
:10E91000E5CF10920A0210920B0210920C02109294
:10E920000D02109206021092070210920802109235
:10E930000902109202021092030210920402109235
:10E9400005028FEE90EE60E00F94F5F180E191EE1C
:10E9500060E00F94C2F18091C00087FFFCCF9091DE
:10E96000C600903608F09F759032B8F09093C600BC
:10E970008091C00086FFFCCF8091C00080648093AE
:10E98000C000A0E2A093C6008091C00086FFFCCF2B
:10E990008091C00080648093C000983409F4D7C18E
:10E9A0009934B8F4923409F459C1933458F490333B
:10E9B00019F1903308F4E3C59F33A1F1903409F0C5
:10E9C000DEC5BDC0953409F470C1963409F0D7C5D1
:10E9D00098C1923509F42BC2933538F49C3409F46C
:10E9E000F5C1913509F0CBC518C2963509F445C279
:10E9F000993509F0C4C567C483E792EE62E00F94CD
:10EA0000F5F110920602109207021092080210927D
:10EA1000090210920A0210920B0210920C0210923C
:10EA20000D0213C18FE792EE62E00F94F5F18FEEC5
:10EA300090EE60E00F94F5F181E291EE60E00F94CA
:10EA4000C2F187EB91EE60E00F94F5F180E391EE77
:10EA500060E00F94C2F184EE90EE60E00F94F5F167
:10EA60008FE391EE60E00F94C2F186E090E061E008
:10EA700070E00F9434F20F94DCF18DE591EE60E0DC
:10EA80000F94C2F189EC91EE60E00F94F5F18EE401
:10EA900091EE60E00F94C2F183EC91EE60E00F9490
:10EAA000F5F18CE691EE60E00F94C2F18EE10F94E7
:10EAB0000DF288E90F940DF281E00F940DF20F949E
:10EAC000DCF18BE791EE60E00F94C2F119E0E0E039
:10EAD000F0E010935700E4918E2F0F940DF20F94F5
:10EAE000DCF18AE891EE60E00F94C2F1E3E0F0E03F
:10EAF00010935700E4918E2F0F940DF20F94DCF1D8
:10EB000089E991EE60E00F94C2F1E2E0F0E0109349
:10EB10005700E4918E2F0F940DF20F94DCF188EAE8
:10EB200091EE60E00F94C2F1E1E0F0E01093570045
:10EB30001491812F0F940DF20F94DCF107CF8BE825
:10EB400092EE62E00F94F5F18BE492EE60E00F94A8
:10EB5000F5F10F94DCF100E010E019C0C8016F2D51
:10EB60000F947FFEFF2031F489E492EE60E00F9471
:10EB7000C2F10BC0F092C6008091C00086FFFCCFAE
:10EB80008091C00080648093C0000F5F1F4FC80158
:10EB900081519F41A0E0B0E0ABBFFC01F790BAE229
:10EBA000FB1621F0E2E000301E07C1F60F94DCF105
:10EBB0000F94DCF187E592EE60E00F94F5F10F948D
:10EBC000DCF1CC24DD2400E010E01EC0C8010F946D
:10EBD00077FEF82E882331F489E492EE60E00F94FA
:10EBE000C2F10BC08093C6008091C00086FFFCCFAD
:10EBF0008091C00080648093C000FE1419F00894D6
:10EC0000C11CD11C0F5F1F4FC80181519F41A0E063
:10EC1000B0E0ABBFFC01E790FAE2EF1621F022E092
:10EC20000030120799F60F94DCF10F94DCF182E6C4
:10EC300092EE60E00F94C2F1C60161E070E00F94C3
:10EC400034F20F94DCF10F94DCF110920202109276
:10EC50000302109204021092050278CE89E992EE26
:10EC600062E00F94F5F1279A2F9A16C02F9880E052
:10EC700090E0E0EDF7E03197F1F7019684369105E9
:10EC8000C1F72F9A80E090E0E0EDF7E03197F1F7DF
:10EC9000019684369105C1F78091C00087FFE6CFC9
:10ECA0008091C00087FFFCCF64C485EA92EE62E0E9
:10ECB0000F94F5F140910202509103026091040219
:10ECC0007091050281E020E10F9491F2809102029F
:10ECD00090910302A0910402B091050280509F4FD1
:10ECE000AF4FBF4F8093020290930302A0930402A0
:10ECF000B093050280509041A040B04008F426CE69
:10ED0000A4CF83EB92EE62E00F94F5F140910602FE
:10ED100050910702609108027091090280E020E1A1
:10ED20000F9491F28091060290910702A09108023F
:10ED3000B091090280509F4FAF4FBF4F80930602A2
:10ED400090930702A0930802B0930902FFCD80ECD4
:10ED500092EE62E00F94F5F183E792EE60E00F949B
:10ED6000F5F18FE792EE60E00F94F5F18BE892EE0B
:10ED700060E00F94F5F189E992EE60E00F94F5F10F
:10ED800085EA92EE60E00F94F5F183EB92EE60E09D
:10ED90000F94F5F180EC92EE60E00F94F5F187ECC2
:10EDA00092EE60E00F94F5F188ED92EE60E00F9442
:10EDB000F5F18FED92EE60E00F94F5F18AEE92EEB0
:10EDC00060E00F94F5F183E093EEBDCD87EC92EE19
:10EDD00062E00F94F5F181E40F947BF282E40F94EA
:10EDE0007BF283E40F947BF284E40F947BF285E45E
:10EDF0000F947BF286E40F947BF287E40F947BF20E
:10EE000088E40F947BF28AE40F947BF28BE40F94F6
:10EE10007BF28CE40F947BF299CD88ED92EE62E068
:10EE20000F94F5F1772473948824992409C48FED05
:10EE300092EE62E00F94F5F140910A0250910B02BC
:10EE400060910C0270910D0282E020E10F9491F22A
:10EE500080910A0290910B02A0910C02B0910D02D8
:10EE600080509F4FAF4FBF4F80930A0290930B0289
:10EE7000A0930C02B0930D0269CD8AEE92EE62E08F
:10EE80000F94F5F184EE90EE60E00F94F5F18FECC5
:10EE900091EE60E00F94F5F1662477244301CC5D98
:10EEA000DE4F19821882C452D140D401C301B695F5
:10EEB000A79597958795CA5DDE4F88839983AA8326
:10EEC000BB83C652D140CC5DDE4FA881B981C4520C
:10EED000D1401196CC5DDE4FB983A883C452D14096
:10EEE000CD0162E070E00F9434F2B0E2B093C6005E
:10EEF0008091C00086FFFCCF8091C0008064809329
:10EF0000C000EDE2E093C6008091C00086FFFCCF18
:10EF10008091C00080648093C000F0E2F093C6004E
:10EF20008091C00086FFFCCF8091C00080648093F8
:10EF3000C000CA5DDE4FE880F9800A811B81C6529D
:10EF4000D140BB27A12F902F8F2D0F940DF2CA5DBA
:10EF5000DE4F8881C652D1400F940DF2B0E2FB2EF5
:10EF6000F092C6008091C00086FFFCCF8091C00067
:10EF700080648093C0000DE30093C6008091C000C0
:10EF800086FFFCCF8091C00080648093C00010E2B7
:10EF90001093C6008091C00086FFFCCF8091C00016
:10EFA00080648093C0008BBEF3012791C65DDE4F65
:10EFB0002883CA52D140A22EBB24CC24DD2408943D
:10EFC000611C711C811C911C8BBEF3018791282E42
:10EFD0003324442455240894611C711C811C911C09
:10EFE0008BBEF3013791C55DDE4F3883CB52D140E4
:10EFF0000894611C711C811C911C8BBEF30147910C
:10F00000C45DDE4F4883CC52D140ADEFEA2EAFEF66
:10F01000FA2EAFEF0A2FAFEF1A2F6E0C7F1C801E57
:10F02000911E142D032DF22CEE24EA0CFB1C0C1D5A
:10F030001D1D0F940DF220E22093C6008091C000A8
:10F0400086FFFCCF8091C00080648093C000C65DC5
:10F05000DE4F8881CA52D1400F940DF230E23093D6
:10F06000C6008091C00086FFFCCF8091C000806404
:10F070008093C000C45DDE4F8881CC52D1400F9494
:10F080000DF240E24093C6008091C00086FFFCCFA5
:10F090008091C00080648093C000C55DDE4F888190
:10F0A000CB52D1400F940DF250E25093C6008091A4
:10F0B000C00086FFFCCF8091C00080648093C000B8
:10F0C0008FEFE8168FEFF80680E0080780E018075A
:10F0D00031F484E092EE60E00F94C2F1DFC0D80119
:10F0E000C7018070907CA070B0708050904CA040A0
:10F0F000B040D1F52FEF3FE340E050E0E222F322B1
:10F1000004231523CA5DDE4FA880B980CA80DB8046
:10F11000C652D140AE0CBF1CC01ED11EAA0CBB1CD7
:10F12000CC1CDD1C8EE092EE60E00F94C2F1BB2798
:10F13000A12F902F8F2D0F940DF28E2D0F940DF285
:10F1400030E23093C6008091C00086FFFCCF8091F2
:10F15000C00080648093C0004EE34093C60080915D
:10F16000C00086FFFCCF87C08EE09EEFA0E0B0E03D
:10F17000E822F9220A231B239CE0E91694E9F90608
:10F1800090E0090790E0190709F088C0C45DDE4FE0
:10F19000A881CC52D140EA2EFF2400E010E0102FCD
:10F1A0000F2DFE2CEE24C55DDE4FB881CB52D14031
:10F1B000EB0EF11C011D111DD601C501817090706F
:10F1C000A070B070DC0199278827E80EF91E0A1F8D
:10F1D0001B1F20EF30E040E050E0A222B322C42207
:10F1E000D52241E1AA0CBB1CCC1CDD1C4A95D1F7F1
:10F1F000EA0CFB1C0C1D1D1D81E090E0A0E0B0E0BE
:10F20000282239224A225B2235E1220C331C441C7D
:10F21000551C3A95D1F7E20CF31C041D151D57013E
:10F220006801AA0CBB1CCC1CDD1C85E192EE60E0E1
:10F230000F94C2F1C801AA27BB270F940DF2BB2778
:10F24000A12F902F8F2D0F940DF28E2D0F940DF274
:10F2500090E29093C6008091C00086FFFCCF809121
:10F26000C00080648093C000AEE3A093C60080918C
:10F27000C00086FFFCCF8091C00080648093C000F6
:10F28000C601AA27BB270F940DF2BB27AD2D9C2DDD
:10F290008B2D0F940DF28A2D0F940DF20F94DCF14B
:10F2A000CC5DDE4FE881F981C452D140F99709F471
