:100000000C9453010C9484010C9484010C9484018D
:100010000C9484010C9484010C9484010C9484014C
:100020000C9484010C9484010C9484010C9484013C
:100030000C9484010C9484010C9484010C9484012C
:100040000C9484010C9484010C9484010C9484011C
:100050000C9484010C9484010C9484010C949B18DE
:100060000C9484010C9465180C943B180C94840136
:100070000C9484010C9484010C9484010C948401EC
:100080000C9484010C9484010C9484010C948401DC
:100090000C9405180C94DB170C9484010C948401C7
:1000A0000C9484010C9484010C9484010C948401BC
:1000B0000C9484010C9484010C9484010C948401AC
:1000C0000C9484010C9484010C9484010C9484019C
:1000D0000C9484010C9484010C9484010C9484018C
:1000E0000C9484010C942D030C94A1040C94DF0453
:1000F0000C9482100C947E100C941A050C9400023F
:100100000C94E5180C94F0040C9416050C94EA0475
:100110000C94F4040C94D8170C943C020C949C049A
:100120000C94E0020C94E7040C9490020C940805E3
:100130000C94FA040C949E020C942D020C940C0561
:100140000C94E3040C9410050C9402050C94DB044D
:100150000C94FE0400002100240027002A002D003A
:100160003000330001010000040107010A01000012
:100170002200250028002B002E003100340002014F
:100180000000050108010B0100000A0B02090C0D1B
:100190000E0807030401000000000000000000003A
:1001A000000000000000000000000000000000004F
:1001B000000000001211100000000000000000000C
:1001C000000000000000000000000000000000002F
:1001D00020002300260029002C002F0032000001FF
:1001E0000000030106010901CDCCCC3D0AD7233C18
:1001F00017B7D13877CC2B329595E6241FB14F0A2B
:10020000000020410000C84200401C4620BCBE4CFB
:10021000CA1B0E5AAEC59D740505050507050808DD
:100220000808020202020A0A080804040404010180
:100230000101010101010303030303030303040795
:1002400007070C0C0C0C0C0C0C0C0202020206062C
:100250000606060606060B0B0B0B0B0B0B0B01021F
:1002600010202008081020401020408002010201C8
:100270000804020101020408102040808040201080
:1002800008040201800402018040201008040201D9
:100290000804020101020408102040800102040841
:1002A00010204080E51811241FBECFEFD1E2DEBF41
:1002B000CDBF00E00CBF24E0A8E5B3E001C01D9273
:1002C000A23BB207E1F713E0A0E0B2E0EEE4FDE309
:1002D00000E00BBF02C007900D92A835B107D9F717
:1002E00011E0C3E5D1E000E006C021970109802FAD
:1002F000FE010E94871CC235D10780E00807A9F7DC
:100300000E9458190C94A51E0C940000FC01A089B1
:10031000B18982E08C93A485B5851C92A685B785AA
:100320008FEC8C93108EA489B58986E08C93A2897A
:10033000B3898C9180618C93A289B3898C918860F8
:100340008C93A289B3898C9180688C930288F389FD
:10035000E02D80818F7D80830895CF93DF93EC0122
:1003600088819981DC01ED91FC910190F081E02D73
:1003700064E270E01995009741F02FE1FC012383BE
:1003800021E02283DF91CF91089521E02A83FACFE3
:10039000CF92DF92EF92FF92CF93DF93B091A204BE
:1003A000A0E08111AB2F8091A30490E0880F991FEA
:1003B000AC0142535E4FC090A804D090A904E090D5
:1003C000AA04F090AB0430E020E0FA01C591D4918A
:1003D000E881B90190E080E0EB23EA130AC02F5FC7
:1003E0003F4F6C157D058E059F0578F36FEF7FEF0E
:1003F000CB01DF91CF91FF90EF90DF90CF900895E8
:10040000AF92BF92CF92DF92EF92FF920F931F9322
:10041000CF93DF936C017B018B01040F151FEB0160
:100420005E01AE18BF08C017D10759F06991D60117
:10043000ED91FC910190F081E02DC6011995892B79
:1004400079F7C501DF91CF911F910F91FF90EF9048
:10045000DF90CF90BF90AF900895FC01538D448DF5
:10046000252F30E0842F90E0821B930B541710F05F
:10047000CF96089501970895FC01918D828D98176C
:1004800061F0A28DAE0FBF2FB11D5D968C91928D44
:100490009F5F9F73928F90E008958FEF9FEF089575
:1004A0002FB7F89480915D0390915E03A0915F0354
:1004B000B09160032FBF8093690390936A03A09368
:1004C0006B03B0936C0381E693E00E943C0297FFBC
:1004D00026C02FB7F89480915D0390915E03A091A0
:1004E0005F03B09160032FBF4091690350916A038D
:1004F00060916B0370916C03841B950BA60BB70B7B
:1005000040916503509166036091670370916803A1
:1005100084179507A607B707B0F28FEF9FEF0895EE
:10052000FC01918D828D981731F0828DE80FF11DBD
:10053000858D90E008958FEF9FEF0895FC01918DD8
:10054000228D892F90E0805C9F4F821B91098F73D1
:100550009927089581E693E00E949E0221E0892B6D
:1005600009F420E0822F08958EEF93E00E949E020E
:1005700021E0892B09F420E0822F0895FC01A48D4D
:10058000A80FB92FB11DA35ABF4F2C91848D90E0B5
:1005900001968F739927848FA689B7892C93A08998
:1005A000B1898C91837080648C93938D848D981322
:1005B00006C00288F389E02D80818F7D80830895B5
:1005C000EF92FF920F931F93CF93DF93EC0181E0A3
:1005D000888F9B8D8C8D98131AC0E889F98980814A
:1005E00085FF15C09FB7F894EE89FF896083E8897D
:1005F000F98980818370806480839FBF81E090E06F
:10060000DF91CF911F910F91FF90EF900895F62EFB
:100610000B8D10E00F5F1F4F0F731127E02E8C8D95
:100620008E110CC00FB607FCFACFE889F9898081DA
:1006300085FFF5CFCE010E94BE02F1CFEB8DEC0F0E
:10064000FD2FF11DE35AFF4FF0829FB7F8940B8FF7
:10065000EA89FB8980818062CFCFCF93DF93EC0161
:10066000888D8823B9F0AA89BB89E889F9898C919A
:1006700085FD03C0808186FD0DC00FB607FCF7CF56
:100680008C9185FFF2CF808185FFEDCFCE010E9456
:10069000BE02E9CFDF91CF91089580E090E0892BF1
:1006A00029F00E94B40281110E94000080E090E0D5
:1006B000892B29F00E94AA0281110E94000080E08B
:1006C00090E0892B49F080E090E0892B29F00E948E
:1006D000000081110E94000080E090E0892B49F029
:1006E00080E090E0892B29F00E94000081110C9499
:1006F00000000895CF93DF9390E0FC01E25AFD4F94
:100700002491885E9D4FFC0184918823D1F090E074
:10071000880F991FFC01EC5AFE4FA591B491FC0182
:10072000E259FE4FC591D491623071F49FB7F894AD
:100730003C91822F809583238C93E8812E2B2883F4
:100740009FBFDF91CF9108958FB7F894EC912E2B36
:100750002C938FBFF6CF3FB7F894809159039091B7
:100760005A03A0915B03B0915C0326B5A89B05C01A
:100770002F3F19F00196A11DB11D3FBFBA2FA92F20
:10078000982F8827BC01CD01620F711D811D911D1D
:1007900042E0660F771F881F991F4A95D1F7089589
:1007A0008F929F92AF92BF92CF92DF92EF92FF9281
:1007B0004B015C010E94AB036B017C010E94AB0307
:1007C0006C197D098E099F09683E7340810591056A
:1007D000A8F321E0821A9108A108B10888EEC80E9A
:1007E00083E0D81EE11CF11C81149104A104B10422
:1007F00029F7FF90EF90DF90CF90BF90AF909F9040
:100800008F9008958F929F92AF92BF92EF92FF9236
:100810000F931F93CF93DF93CDB7DEB7C054D14072
:100820000FB6F894DEBF0FBECDBF2FB7F8948091FE
:100830005D0390915E03A0915F03B09160032FBFB1
:100840004091A4045091A5046091A6047091A7045E
:100850008C019D01041B150B260B370BB901A80158
:10086000403D574061057105A0F48091AC04C05C27
:10087000DE4F0FB6F894DEBF0FBECDBFDF91CF9134
:100880001F910F91FF90EF90BF90AF909F908F902E
:1008900008958093A4049093A504A093A604B09314
:1008A000A70410929F0410929E0410929D0410922F
:1008B0009C0410929B0462E08091A0040E947A0341
:1008C00061E070E080E090E00E94D00361E0809100
:1008D000A0040E947A032091A00430E0F901E857B7
:1008E000FE4F8491F901E25AFD4F9491285E3D4FED
:1008F000F9012491222309F433C0882311F1815096
:100900008231F8F4E82FF0E08827E657FB4F8F4F4D
:100910000C94871CE304E7049C04DB04DF04A104BB
:10092000EA04F004F404FA04FE04020508050C05C8
:10093000A104100516051A05809180008F77809319
:100940008000E22FF0E0EE0FFF1FE259FE4FA5916D
:10095000B4918FB7F894EC9190959E239C938FBFA0
:100960008091A1048551823008F068C08BE291E14A
:100970000197F1F762E08091A0040E947A038091D0
:10098000AD0490E08230910538F0880F991F880FF0
:10099000991F05970197F1F7F89480E00E94C8012C
:1009A0006F3F7F4F8F4F9F4F09F04FC01092AC04A5
:1009B000789480E05CCF809180008F7DC0CF809163
:1009C0008000877FBCCF84B58F7784BDBACF84B5D4
:1009D0008F7DFBCF8091B0008F778093B000B1CF37
:1009E0008091B0008F7DF9CF809190008F778093B8
:1009F0009000A7CF809190008F7DF9CF80919000DB
:100A0000877FF5CF8091A0008F778093A00099CF4A
:100A10008091A0008F7DF9CF8091A000877FF5CFD6
:100A2000809120018F77809320018BCF80912001CE
:100A30008F7DF9CF80912001877FF5CF64E170E051
:100A400080E090E00E94D00395CF81E00E94C80131
:100A50006F3F7F4F8F4F9F4F09F4A8CF9E012F5FAD
:100A60003F4F79015E013FEBA31A3EEFB30A8701C6
:100A700080E00E94C801F8016083718382839383C0
:100A800081E00E94C801F80164837583868397839F
:100A9000085F1F4FA016B10659F7789430E020E0A8
:100AA000F70180809180A280B38044815581668166
:100AB0007781FFEF8F169F06AF06BF0631F04F3FDD
:100AC0000FEF50076007700719F41092AC0471CF54
:100AD000F90183E0F595E7958A95E1F7E556FB4F37
:100AE0008081880F84169506A606B70618F18083C4
:100AF0002F5F3F4F18E0E10EF11C2832310581F6DF
:100B000040919F0420919B0480919C04280F3327DF
:100B1000331F80919D04280F311D80919E04820F08
:100B2000932F911D99274817190679F681E0809334
:100B3000AC049DCE8160DBCF6F3FA9F0E62FE2953C
:100B4000EF7044E0E49F90011124DC01ED91FC91F1
:100B5000E20FF31F6F7082819381B6E06B9F800D6F
:100B6000911D1124089590E080E00895982F80331E
:100B70006CF08A3324F08F3524F08B3724F481E035
:100B8000089581341CF081E09B350CF080E00895DD
:100B9000FC018485811114C0A781B085818592856F
:100BA0002FEF3FEFA817B90730F4CD0101969087DA
:100BB00087832C9130E037FD20E0238781E0848714
:100BC000838508951F93CF93DF93EC01162F0E9426
:100BD000C805811306C01C8681E0DF91CF911F916B
:100BE000089580E0FACF0F931F93CF93DF938C018A
:100BF000EB018991882369F0C8010E94C805882308
:100C000079F0FE013197908198130DC0F801148698
:100C1000F0CF90E080E0DF91CF911F910F91089588
:100C200082E090E0F8CF83E090E0F5CFCF93DF93C0
:100C3000EC01CE010E94C8058B304CF489305CF485
:100C4000882359F081E08E8390E080E00BC08D30E6
:100C500011F08032B9F71C86ECCF8E81811105C06E
:100C600081E090E0DF91CF91089582E090E0FACFAB
:100C7000FC01A281B3818081918130E020E0A8173E
:100C8000B90738F4CD010196938382836C9321E0F8
:100C900030E084819581820F931F9583848308952A
:100CA000CF93DF93FC0182819381EB01460F571FA5
:100CB000A281B38120813181A217B30758F4C417F0
:100CC000D50741F02991BD016F5F7F4F7383628328
:100CD0002C93EECFA81BB90B84819581A80FB91F67
:100CE000B583A483DF91CF9108958F929F92AF92A5
:100CF000BF92CF92DF92EF92FF920F931F93CF9309
:100D0000DF93CDB7DEB766970FB6F894DEBF0FBEA0
:100D1000CDBF6C018E01095E1F4F78018AE0882EDD
:100D2000912CA12CB12CCB01BA01A50194010E94F8
:100D3000651C942F852F605DF80162938F01A901D6
:100D4000692F782F411551056105710561F7A701DC
:100D50004E1B5F0BBF01C6010E94500666960FB680
:100D6000F894DEBF0FBECDBFDF91CF911F910F91E1
:100D7000FF90EF90DF90CF90BF90AF909F908F90BB
:100D80000895DC0152969C915297915084E0989F6F
:100D9000900111245096ED91FC91E20FF31F2281F6
:100DA00033812115310579F041818081481758F44C
:100DB00081E0840F818386E0489F200D311D11243E
:100DC0002115310521F460E070E08FEF0895B9013D
:100DD000892F8295807F840F0895DF92EF92FF9292
:100DE0000F931F93CF93DF93EC017B01D12C688984
:100DF00079898A89D816E0F484E0D89E800111248C
:100E0000060F171FD80112966D917C91611571051F
:100E100041F0D701ED91FC910280F381E02DC701F3
:100E20001995F8011382128210821182D394DFCFB8
:100E30001A8A8FEF8C8BC617D70761F0D701ED9117
:100E4000FC910280F381E02DC7011995D98BC88BE5
:100E500084E08B8BDF91CF911F910F91FF90EF90EA
:100E6000DF9008954F925F926F927F928F929F9240
:100E7000AF92BF92CF92DF92EF92FF920F931F93A8
:100E8000CF93DF9300D01F921F92CDB7DEB7DC0166
:100E90002C912B32E1F12D32D9F50196EE24E39419
:100EA000FC01208130ED320F3A3010F02E3291F5F6
:100EB0008C0160E070E0CB01F801219130ED832ED0
:100EC000820E39E0381508F444C06A3949E97407DC
:100ED000840749E1940708F046C0AAE0B0E09B010E
:100EE000AC010E94181B912CB12CA12C24013501BE
:100EF000409450946094709446165706680679069C
:100F000090F1680D791D8A1D9B1D8F01D5CF01962B
:100F1000E12CC6CF198229813A814B815C816D8198
:100F200070E080E090E00F900F900F900F900F9086
:100F3000DF91CF911F910F91FF90EF90DF90CF90B5
:100F4000BF90AF909F908F907F906F905F904F90E9
:100F50000895211108C0EE2051F16130710581051D
:100F600050E89507A0F0F12CBAE08B2E912CA12C23
:100F7000B12C6115710530E883079105F8F0A501E2
:100F800094010E94651CCA01B901F394F2CF22E0DA
:100F900029839B01AC0188279927DC01821B930BD5
:100FA000A40BB50B8A839B83AC83BD83B4CF23E0B2
:100FB00029836A837B838C839D83ADCFF801D8011D
:100FC0002D918D0130ED320F3A3010F4F394F6CFBD
:100FD0002E3201F58F010F5F1F4FF8010F5F1F4F7A
:100FE0002081A0EDDA2ED20EB9E0BD1598F06C3C50
:100FF000ECEC7E07ECE08E07910578F7AAE0B0E014
:101000009B01AC010E94181B6D0D711D811D911D6E
:10101000FA94E3CF20812F7D10E000E0253409F021
:1010200050C021812D32B1F53296CC24C394DF011A
:1010300010E000E02F2D0F2C000C330B5AE0B52EE2
:10104000FD01DD9040ED4D0D4A30B0F5B09EA001A0
:10105000B19E500D11240D2DDD0C110B0053110903
:10106000040F151FA801420F531F4732510544F3C7
:10107000CC20B9F080E090E0A0E0B0E8E11003C03F
:1010800080E090E0DC0121E029838A839B83AC83AC
:10109000BD8341CF2B3219F03196C12CC8CF329687
:1010A000FCCF80E090E0A0E8BFEFE110ECCF80E063
:1010B00090E0A0E8BFE7E7CFCC2019F011950195AB
:1010C00011092081211126CF0F0D111DF7FC1A9552
:1010D0000E94F91930E0C32E32E0D32E101611060B
:1010E0003CF011950195110948EEC42E41E0D42E33
:1010F000F12C0115110591F000FF0CC024E0F29EC7
:10110000F0011124EC0DFD1D25913591459154916F
:101110000E945A1A15950795F394EBCFE110905859
:1011200021E029836A837B838C839D83F4CECF92D5
:10113000DF92EF92FF92CF93DF9300D01F921F9226
:10114000CDB7DEB70E9432073A834B835C836D8351
:10115000CA80DB80EC80FD80223051F12330A1F188
:10116000213079F520E030E040E057ECC701B601CE
:101170000E94471C87FD25C020E03EEF4FEF56E45C
:10118000C701B6010E94F4191816DCF0C701B601B8
:101190000E94111C6B01C6010F900F900F900F90D1
:1011A0000F90DF91CF91FF90EF90DF90CF90089557
:1011B000D701C6019058AF4FBF4F0097A140B1056E
:1011C00050F3D12CC12CE7CFC11480E8D806E1043C
:1011D000F10408F3F6CFDB01ED91FC911197028049
:1011E000F381E02DBC01CD011994AF92BF92CF9253
:1011F000DF92EF92FF920F931F93CF93DF93EC0157
:101200008B018C8180FF24C0A881B981FB0183817F
:10121000948130E020E00097D9F0A817B907D1F504
:10122000F8016081718112968C911297815012960B
:101230008C93129781110CC08D919C91119721155F
:10124000310529F1F90191838083CD010E94EB08DA
:101250008C81807631F1209721F1F8805801F5E1F9
:10126000AF0EB11C8FEFF816D1F06F2DC5010E94A3
:101270009C056C01FC01E580B8010E94F508F801AD
:10128000818DF6018083F801F18EFE2CEBCF9483E3
:101290008383DBCF9C01FC0180819181BCCFF882EC
:1012A000F9821C82DF91CF911F910F91FF90EF90F7
:1012B000DF90CF90BF90AF9008950F931F93CF937F
:1012C000DF93EC01088119818B819C81009749F0A3
:1012D000FC01208131813C832B83B8010E94EB0803
:1012E000F3CF68817981CE010596DF91CF911F916F
:1012F0000F910C94ED06EF92FF920F931F93CF93F3
:10130000DF937C018B01EA016F3F710509F0B0F4B6
:10131000E881F9810480F581E02DAB014B5F5F4FDF
:10132000BC01CE011995009749F0FC010383DF91C0
:10133000CF911F910F91FF90EF900895E881F9816F
:101340000280F381E02DB701CE01199590E080E095
:10135000EECFFF920F931F93CF93DF93EC01F62E06
:101360008A819B810097C9F06C817D81FC0123817A
:101370002617170691F408811981F80140815181DF
:10138000660F771F6F5F7F4F0E947B09009719F4EC
:1013900021E0F80122839B838A838A819B810097C5
:1013A00059F02C813D81A9014F5F5F4F5D834C83D4
:1013B000820F931FFC01F482DF91CF911F910F9157
:1013C000FF9008959F92AF92BF92CF92DF92EF92DB
:1013D000FF920F931F93CF93DF9300D01F921F9222
:1013E000CDB7DEB78C010E94C805D82EF80114864F
:1013F000F12CE12C60EFC62EC8010E94C805F8014F
:101400001486D81609F4B3C0811113C082E090E0AD
:101410000F900F900F900F900F90DF91CF911F9131
:101420000F91FF90EF90DF90CF90BF90AF909F9083
:1014300008958C3509F099C0C8010E94C805882319
:1014400029F3E0E3F2E0853709F083C0F801148660
:1014500054E0952EB12CA12CC8010E94C805882308
:10146000A9F2813434F48053803130F083E090E08D
:10147000CFCF8F7D8753F8CF44E0AA0CBB1C4A9591
:10148000E1F7A82AF80114869A949110E5CFC501D6
:10149000985D8115944020F47501F3E0FF22ACCFF4
:1014A000C5019C5D81159440A8F483E0B822B70182
:1014B000762F6627770F770F6A297B2990E080E0E7
:1014C0000196603871058105910540F4C8010E94BC
:1014D000A90992CFB50190E080E0F3CF1982262FC1
:1014E0002F7320682A8326E09695879577956795D0
:1014F0002A95D1F76032710580F4606C6B835E01D0
:10150000E4E0AE0EB11CF50162915F01662309F4BF
:1015100073CFC8010E94A909F6CF262F2F73206828
:101520002B8386E0769567958A95E1F760317105A2
:1015300038F4606E6C835E01F5E0AF0EB11CE3CF52
:1015400060686C83CD825E0126E0A20EB11CDBCF09
:1015500032969081992309F489CF8913F9CF81813B
:10156000882309F483CFF8011486682FAFCF8281D6
:101570009381892B19F484E090E04ACF90E080E0D9
:1015800047CFAF92BF92CF92DF92EF92FF920F932D
:101590001F93CF93DF93DC011296ED91FC9113978B
:1015A00014968D919C911597E80FF91F14820D9157
:1015B0001C91119714966D917C91159712968D91AF
:1015C0009C9113979C012C5F3F4FE801EB81FC81BC
:1015D0007B01E20EF31E3097B9F0438146171706E0
:1015E00079F45901AF014C5F5F4FEA14FB0499F1A4
:1015F000E501C9905E01EA01D990AE01CD14A9F3CD
:101600000190F081E02DE7CFED01F801408151819B
:101610000E947B09FC01892B21F481E0D8011296FC
:101620008C93A881B98113968D919C911497918385
:1016300080831496FC93EE9313971B821A82CF013A
:10164000DF91CF911F910F91FF90EF90DF90CF909E
:10165000BF90AF90089582818F5F8283F0CFFB01AE
:1016600001900020E9F73197AF01461B570B0C940E
:1016700000028F929F92AF92BF920F931F93CF93CE
:10168000DF93CDB7DEB7A1970FB6F894DEBF0FBEDC
:10169000CDBF19A2423008F44AE08E010F5D1F4F02
:1016A000842E912CB12CA12CA50194010E94651CC3
:1016B000E62FB901CA01EA3004F5E05DD801EE93E6
:1016C0008D01232B242B252B79F790E080E01097B8
:1016D00029F0BD018EEF93E00E942F0BA1960FB66B
:1016E000F894DEBF0FBECDBFDF91CF911F910F9158
:1016F000BF90AF909F908F900895E95CDFCF0F93DC
:101700001F93CF93DF938C01D0E0C0E0611571058A
:1017100019F00E942F0BEC0163E472E0C8010E94F3
:101720002F0B8C0F9D1FDF91CF911F910F9108956B
:10173000DF92EF92FF920F931F93CF93DF93611588
:10174000710509F460C0EA018B016596DC016C91BA
:10175000CE010E949C05FC01FF24FA94892B09F01C
:10176000F580EE24E394DD24D394309709F44BC044
:10177000EE2069F18481843039F0853091F190E078
:1017800080E0F0E0E0E00FC00190F081E02D90E01B
:1017900080E0309741F0DF010D900020E9F7CD01A6
:1017A00001978E1B9F0BD8010D900020E9F7119730
:1017B000A01BB10BA817B90751F4D8018E0F9F1FBA
:1017C000E817F907A9F031912D913217C9F3ED24EB
:1017D0006F2DCE010E949C05FC01892B31F2F58012
:1017E000C4CF0190F081E02D838190E03496DBCF6F
:1017F0006F2DCE01DF91CF911F910F91FF90EF9050
:10180000DF900C949C0590E080E0DF91CF911F91D8
:101810000F91FF90EF90DF900895FC01408151817E
:1018200062817381CA014A9631F0FA01268D203215
:1018300011F40C94980B90E080E00895CF93DF931F
:1018400000D01F921F92CDB7DEB70E940D0CFC0195
:10185000892B31F08481863091F030F4843020F58A
:1018600060E070E0CB0111C08C30B9F08E3081F1B6
:101870008A30B1F7608171818281938104C0608177
:1018800070E090E080E00E94F9190F900F900F90A7
:101890000F900F90DF91CF910895608171818281C7
:1018A00093810E94FB19F1CF8081918104960E945F
:1018B00032073A834B835C836D836A817B818C81A1
:1018C0009D81223071F32330F1F2213049F6DDCFD2
:1018D0006081718182819381D8CFFB0101900020CA
:1018E000E9F73197AF01461B570B0C945006CF9286
:1018F000DF92EF92FF920F931F93CF93DF938C01B0
:101900006B017A0162E20E943806E601EC0CFD1CD4
:10191000EC16FD0699F06991E0E3F2E0D480DD2059
:10192000C9F0329683816813F9CF6CE5C8010E9433
:1019300038066D2DC8010E943806EACF62E2C80160
:10194000DF91CF911F910F91FF90EF90DF90CF909B
:101950000C9438066111EECF66E472E0C8010E9473
:101960006D0CD6CF2F923F924F925F926F927F92E3
:101970008F929F92AF92BF92CF92DF92EF92FF929F
:101980000F931F93CF93DF93CDB7DEB76B970FB64F
:10199000F894DEBF0FBECDBF7C018B01DC01149635
:1019A0008C9114978A3009F4A0C2F0F4843009F4C1
:1019B00079C268F4833009F490C26DE472E0C80122
:1019C0000E946D0CD80114968D919C9129C285308E
:1019D00009F47BC2863089F78C9162E572E081114F
:1019E00055C067E572E052C08E3009F440C0C8F4BB
:1019F0008C3019F7CD90DD90ED90FC90B701A601E9
:101A0000F7FE0BC06DE2C8010E9438064427552737
:101A1000BA014C195D096E097F09C8010E9475065B
:101A2000FCC1803209F415C2803439F66BE5C80177
:101A30000E943806D701FC90BFEFFB1609F4E9C1FC
:101A4000F801868197816F2D45960E949C057C0147
:101A5000B8010E94B20CD7011596FC90BFEFFB169F
:101A600009F4D7C16CE2C8010E943806E5CFF7013E
:101A700080809180A280B380A5019401C501B4014A
:101A80000E94F419882331F06DE472E0C8010E94CD
:101A90006D0CC3C120E030E0A901C501B4010E9472
:101AA000F419882371F0A5019401C501B4010E94C5
:101AB000331B9B01AC01C501B4010E94F4198823BA
:101AC00019F320E030E0A901C501B4010E94F41926
:101AD00087FF08C06DE2C8010E943806B7FAB094CB
:101AE000B7F8B09420E836E948E15BE4C501B401F9
:101AF0000E94471C87FD83C074E1C72ED12CE0E211
:101B0000EE2EF12C312C212CF601E050FE4F659188
:101B1000759185919491A50194010E94F41918166C
:101B20007CF0F601E851FE4F259135914591549195
:101B3000C501B4010E945A1A4B015C012E0C3F1CD6
:101B4000F594E794F4E0CF1AD1082CEFC2162FEFEA
:101B5000D206D1F63FEF3F8B20E030E0A901C5016E
:101B6000B4010E94471C18160CF051C02CEA35EC49
:101B700047E257E3C501B4010E94F41918160CF4AA
:101B800046C0AF89B4E0AB02C0011124D12CC12CF6
:101B9000FC01E851FE4F2F019C0120503E4F3901BE
:101BA0003F893F3F09F433C0F201EC0DFD1D659103
:101BB00075918591949120E030E040E251E40E94DB
:101BC0005A1AA50194010E94471C18167CF4F301CF
:101BD000EC0DFD1D2591359145915491C501B40140
:101BE0000E945A1A4B015C012E183F08F594E794A5
:101BF0008F8981508F8B94E0C91AD108D1CF50E2E0
:101C0000E52EF12C85E08F8B312C212CA5CFC50141
:101C1000B4010E94181C6B017C012B013C0180E483
:101C200092E4AFE0B0E0888F998FAA8FBB8F96E0E7
:101C30009F8BAAE04A16510461047104E0F0688D9C
:101C4000798D8A8D9B8D2AE030E040E050E00E9443
:101C5000651C288F398F4A8F5B8FBF89B150BF8B2E
:101C6000C301B2012AE030E040E050E00E94651C70
:101C700029013A01DECFC701B6010E94F9199B0183
:101C8000AC01C501B4010E94321B4B015C01688D9F
:101C9000798D8A8D9B8D0E94F9199B01AC01C5013C
:101CA000B4010E945A1A2B013C010E94181C4B01DE
:101CB0005C010E94F9199B01AC01C301B2010E94B1
:101CC000321B9B01AC010E94331B0E94181C860E24
:101CD000971EA81EB91E888D998DAA8DBB8D88165A
:101CE0009906AA06BB06C0F09FEFC91AD90AE90AED
:101CF000F90A2114310439F1AAE0CA16D104E10429
:101D0000F10408F1BFEF2B1A3B0A812C912C5401EE
:101D1000C12CD12C7601C3942AE0422E512C612C87
:101D2000712CC501B401A30192010E94651C672BAF
:101D3000682B692B61F4EF891E164CF449015A0196
:101D4000E150EF8BEECF812C912C5401E5CFB70100
:101D5000A601C8010E947506FF89FF2391F16E015B
:101D600021E1C20ED11CF88F76019AE0492E512C48
:101D7000612C712C388D3150388F3F3F69F0C5018F
:101D8000B401A30192010E94651C605DD6016E93AF
:101D90006D0149015A01EECFBF898B2F90E0BC0144
:101DA00060957095F701E81BF90B31978EE28083FF
:101DB00044275527461B570B6E0D7F1DC8010E94F7
:101DC00050062114310449F165E6C8010E94380625
:101DD000710137FE07C06DE2C8010E943806F19418
:101DE000E194F108FE0177969F018AE0C82ED12C7C
:101DF000C701B6010E94511C805D82937B01672B55
:101E0000B9F7A9014E1B5F0BBF01C8010E94500624
:101E100004C06DE5C8010E943806F80184819581EF
:101E20006B960FB6F894DEBF0FBECDBFDF91CF919A
:101E30001F910F91FF90EF90DF90CF90BF90AF90E8
:101E40009F908F907F906F905F904F903F902F90DA
:101E500008956BE7C8010E943806D701FC90EE2474
:101E6000E394BB24B394BFEFFB16D1F0F801868155
:101E700097816F2D45960E949C056C01B8010E94C8
:101E8000B20CD6011596FC90BFEFFB1639F06AE351
:101E9000E11001C06CE2C8010E943806EB24E3CFD8
:101EA0006DE7B8CF6D917C9150E040E06115710510
:101EB00041F0FB0101900020E9F73197AF01461B8B
:101EC000570BC8010E94770CA8CFED91FC9143817C
:101ED00050E0BF016C5F7F4FF4CFED91FC914381E7
:101EE00050E0BF016C5F7F4F90CF4D915D916D9140
:101EF0007C9193CD4F925F926F927F928F929F923F
:101F0000AF92BF92CF92DF92EF92FF920F931F9307
:101F1000CF936B017C01742EAC019B010E944C1C81
:101F20006DE572E0811126C046015701E894B7F8CB
:101F30002FEF3FEF4FE75FE7C501B4010E944C1C54
:101F400081110CC02FEF3FEF4FE75FE7C501B401F0
:101F50000E94F41961E672E0181664F02FEF3FEF6B
:101F60004FE75FE4C701B6010E94471C1816ACF4A6
:101F700065E672E08EEF93E0CF911F910F91FF9095
:101F8000EF90DF90CF90BF90AF909F908F907F9019
:101F90006F905F904F900C942F0B2FEF3FEF4FE718
:101FA0005FECC701B6010E94F41987FDE1CF20E084
:101FB00030E0A901C701B6010E94F41910E000E069
:101FC00087FF0AC06DE28EEF93E00E94E0028C0171
:101FD000F7FAF094F7F8F094C0E060E070E080E089
:101FE0009FE37C1641F020E030E040E251E40E94A3
:101FF0009F1BCF5FF6CFA70196010E94331B2B01D9
:102000003C010E94181C4B015C014AE00E94390B04
:102010007C01E00EF11ECC23C1F1C501B4010E9488
:10202000F9199B01AC01C301B2010E94321B4B01A3
:102030005C016EE28EEF93E00E94E002E80EF91E72
:10204000C15018F120E030E040E251E4C501B40194
:102050000E945A1A2B013C010E94181C4B01B12C02
:10206000A12C4AE0C501B4010E94390BE80EF91E0B
:10207000C501B4010E94F9199B01AC01C301B20171
:102080000E94321B4B015C01DBCFC701CF911F9136
:102090000F91FF90EF90DF90CF90BF90AF909F9007
:1020A0008F907F906F905F904F9008950F931F9344
:1020B000CF93DF93EC0188819981009759F02A81B1
:1020C0003B812617370730F081E0DF91CF911F91D8
:1020D0000F9108958B016F5F7F4F0E94B41D009791
:1020E00059F0998388831B830A832C813D81232B9C
:1020F00059F7FC011082E8CF80E0E7CFCB01BA01AD
:102100000C94B41DCB010C942B1DBF92CF92DF9287
:10211000EF92FF920F931F93CF93DF93EC01198DF2
:102120001F3F81F0612F45960E949C05FC01808134
:10213000898F309709F477C014828FEF8583BF01B0
:10214000812F76C06C0135E0C30ED11CE880F98088
:102150008F89882341F0C6010E94C106E62FF72F20
:10216000182F309749F71F89988D191324C0103103
:1021700009F459C0110F6D897E89D701ED91FC9149
:10218000B4E01B9FA0011124C616D70609F044C075
:102190000190F081E02DBA01C7011995009709F46B
:1021A00042C020E1F601DC0101900D922A95E1F791
:1021B0009E8B8D8B188F0D891E898F8921E0280FAA
:1021C0002F8BE4E08E9FC0011124080F191F90E1AE
:1021D000B92E203111F48FE0B82EF6E0BF9EB00189
:1021E0001124D701ED91FC910190F081E02DC70100
:1021F0001995F80193838283892B09F4B12CD801B6
:10220000BC9211961C92012B71F0C6010E94C1066E
:10221000E62FF72F182F8DCF0480F581E02DC70111
:102220001995009729F681E08A8360E070E08FEFCE
:10223000DF91CF911F910F91FF90EF90DF90CF90A2
:10224000BF9008952F923F924F925F926F927F922C
:102250008F929F92AF92BF92CF92DF92EF92FF92B6
:102260000F931F93CF93DF9300D000D0CDB7DEB78D
:102270008C017B01B42E0E9416066C01892B09F09B
:102280004EC0C8010E94C805863609F4B0C154F595
:10229000873229F08B3591F1823209F0B1C1D80132
:1022A00015961C921E92149712968D919C911397DD
:1022B000892B39F48D919C910E94AD01F801938393
:1022C0008283C8010E94E2096C01892B41F5C80193
:1022D0000E94C10A25E0D70114962C9314978D9380
:1022E0009C931DC0843709F460C18B3709F47FC00B
:1022F0008E3609F085C16DE472E05EC180E4D701DD
:1023000014968C931497E114F10421F08FEF8C93C1
:1023100011968C93B1101DC025E0C22ED12CC601A0
:1023200026960FB6F894DEBF0FBECDBFDF91CF91DA
:102330001F910F91FF90EF90DF90CF90BF90AF90E3
:102340009F908F907F906F905F904F903F902F90D5
:102350000895F8011486C8010E941606009709F036
:10236000A2C06DE5C8010E94E2058111D8CFBA94E0
:10237000D8011D966D907C90C3010E948510A82EF7
:102380004B01672B21F484E0C82ED12CC8CFF70174
:1023900061816F3F39F1C30145960E949C05DC01C4
:1023A0001596AC92F701A1824B2DB401C8010E9491
:1023B0002211009709F077C0C8010E941606009705
:1023C00009F071C06DE5C8010E94E2058111A7CF37
:1023D0006CE2C8010E94E2058111CACF93E0C92EC8
:1023E000D12C9DCFD7018C9311968C93DDCF80E2B9
:1023F000F7018483E114F10419F08FEF8083818366
:10240000BB2009F489CFD8011C961C92C8010E94F8
:102410001606009709F047C06DE7C8010E94E20563
:1024200081117DCFBA94BE82F80115821482828117
:102430009381892B49F4808191810E94AD01D8015B
:1024400013969C938E931297C8010E94C8058732F9
:1024500001F18232F1F0C8010E94C805B82E0E9435
:10246000B605882309F4BACFF80114866B2DC8018C
:102470000E94A909C8010E94C805B82E0E94B6058D
:102480008111F2CFD80112968D919C91892B31F454
:102490007ACFC8010E94E209009729F4C8010E947E
:1024A0001606009711F06C013ACF6AE3C8010E944A
:1024B000E205882309F492CFD8011296ED91FC91A0
:1024C000139714968D919C911597E80FF91F14821C
:1024D0001D968D909C901E9712966D917C916C5FCD
:1024E0007F4FA401C7010E94980B5C01009709F07F
:1024F00058C0C8010E94C10A2C01F8018584968445
:10250000C4010E948510282E3B01672B09F43BCFA4
:10251000C4010E948510382E962FA92EB72EA11423
:10252000B10409F430CFE5E0D3011496EC9314978D
:1025300011965C924E9215963C92D70111966C9131
:102540006F3F59F1C40145960E949C05FC0125820C
:10255000D70111963C924E81B501C8010E9422110B
:10256000009709F0A0CFC8010E941606009709F055
:102570009ACF6DE7C8010E94E2058111D0CE6CE2CE
:10258000C8010E94E205882309F428CFC8010E94EF
:102590001606009709F448CF86CFF70120823182D2
:1025A000DACFB4010E94F508D6CF86E0F701848324
:1025B00081E0808362E572E0C80126960FB6F89448
:1025C000DEBF0FBECDBFDF91CF911F910F91FF9066
:1025D000EF90DF90CF90BF90AF909F908F907F90C3
:1025E0006F905F904F903F902F900C94F30586E092
:1025F000D70114968C9314971C9267E572E0DCCF98
:10260000C8010E94C8054801BFE08B0E911CB12C87
:10261000782CA92C803384F08A3384F4EFE3BE163F
:10262000A9F0D8011C961C92B394F40181934F0138
:10263000C8010E94C805EECF8B3281F393ED980F4D
:10264000923060F3982F9F7D953441F30B0D111D4F
:10265000D8011F961C92872D9A2D0E9432073A832B
:102660004B835C836D838A819B81AC81BD812230E9
:10267000A9F0233059F0213009F0B0CE2EE0F70157
:10268000248380839183A283B38349CE2AE0F70118
:10269000248380839183A283B38341CE2CE0F7CF40
:1026A0008F929F92AF92BF92CF92DF92EF92FF9262
:1026B0000F931F93CF93DF93FC016115710579F49C
:1026C00090E080E0DF91CF911F910F91FF90EF900C
:1026D000DF90CF90BF90AF909F908F9008958481AE
:1026E00081111AC080E28483309751F38FEF808389
:1026F00081838A017B016F01CF010E94980B0097B3
:1027000009F7C8010E948510882E5B01672B49F4E8
:10271000D0E0C0E0CE01D6CF803291F6309749F7B5
:10272000CFCFC8010E948510982E962FC92FD72F82
:10273000209771F384E0F5018483F182E082958231
:10274000F60161816F3F49F0C80145960E949C05E2
:10275000FC018582F6019182DDCF8082FCCFCF9291
:10276000DF92EF92FF920F931F93CF93DF93FC01C1
:1027700000811181C8014A9609F17B016281738150
:10278000A8010E945013EC010097C1F0F701C0802E
:10279000D180E280F380B8010E94F5088EE08C833E
:1027A000C882D982EA82FB8281E0DF91CF911F91BA
:1027B0000F91FF90EF90DF90CF90089580E0F5CFDC
:1027C0004F925F926F927F928F929F92AF92BF9241
:1027D000CF92DF92EF92FF920F931F93CF93DF93ED
:1027E000CDB7DEB7CD59D1400FB6F894DEBF0FBEDE
:1027F000CDBF0E940204882341F08091A1048C3057
:1028000009F466C038F48B30F1F060E070E080ECE1
:102810009FE741C085518230C0F710919D04612F20
:1028200070E0762F662766277F7780919E04682B5D
:1028300090E080E00E94F9192DEC3CEC4CEC5DE35B
:102840000E945A1A61C060919D0470E090E080E09F
:102850000E94F9196B017C0110919E0417FF0AC0B8
:10286000AC019B0160E070E080E89FEB0E94321BAE
:102870006B017C011F70612F70E090E080E00E948E
:10288000FB192DEC3CEC4CEC5DE30E945A1AA701BD
:1028900096010E94331BCA56DE4F688379838A8370
:1028A0009B83C659D1400E940204882351F0809135
:1028B000A1048B3030F08D3058F18551823008F40E
:1028C00081C0C12CD12C20ECE22E2FE7F22E3EC08D
:1028D00010919D04612F70E090E080E00E94F91952
:1028E0006B017C0160919E046F7070E090E080E06D
:1028F0000E94FB192DEC3CEC4CEC5DE30E945A1A53
:10290000A70196010E94331B17FFC5CF9058C3CF74
:1029100060919C0470E090E080E00E94FB192DEC37
:102920003CEC4CEC5DE30E945A1A6B017C01609117
:102930009B0470E090E080E00E94FB199B01AC01D9
:10294000C701B6010E94331B6B017C01C656DE4FE6
:10295000C882D982EA82FB82CA59D140CA56DE4F68
:10296000688179818A819B81C659D1409B01AC01E4
:102970000E944C1C811108C0A7019601C701B60135
:102980000E944C1C882381F169E672E08EEF93E08F
:102990000E947F0BC356DE4F0FB6F894DEBF0FBE0A
:1029A000CDBFDF91CF911F910F91FF90EF90DF90FE
:1029B000CF90BF90AF909F908F907F906F905F90DF
:1029C0004F90089560919B0470919C04762767272F
:1029D000762790E080E00E94F9192DEC3CEC4CEC5D
:1029E0005DE30E945A1AB0CF80E092E0C059DE4FFA
:1029F00099838883C057D140CE58DE4F1882C25782
:102A0000D140CD58DE4F19821882C357D14080E79C
:102A100091E08C0F9D1F0596CB57DE4F99838883DD
:102A2000C558D140C957DE4F1882C758D14084E0FD
:102A3000C857DE4F8883C858D1408FEFC757DE4F45
:102A40008883C958D140C257DE4F1882CE58D14032
:102A5000C157DE4F8883CF58D140AE0140595E4FF9
:102A600069E872E0CA014A960E9450138C010097EF
:102A700091F0BE0160597E4F0E94F5088CE0D801AC
:102A800014968C9381E090E0A0E0B0E0F8018083A0
:102A90009183A283B38380E791E08C0F9D1F9A837B
:102AA00089838EE892E09C838B83BE016A567E4FB9
:102AB000DE0111967D01CD010E94AF13E0E7F1E048
:102AC000EC0FFD1FFA83E9838AE992E09C838B83F4
:102AD000BE0166567E4FC7010E94AF138E010F5F85
:102AE0001E4FD80111961C930E931396FC92EE92F2
:102AF000129715961C921E921497E0E7F1E0EC0FE6
:102B0000FD1F1796FC93EE931697B801CF014A96D6
:102B10000E94B20C8F3F910509F020F48E0D9F1D8D
:102B2000DC011C92B70181E693E00E947F0B63EA0F
:102B300072E08EEF93E00E942F0BB7018EEF93E0CF
:102B40000E947F0B81E693E00E949E02892B09F48C
:102B5000D9C1C057DE4F19821882C059D140CE5614
:102B6000DE4F19821882C259D140CC56DE4F1982ED
:102B70001882C459D14070E060E0CE0180579E4F6A
:102B80000E945610C057DE4F28813981C059D1406C
:102B900081114BC02115310519F0C9010E942B1D6F
:102BA000C057DE4F19821882C059D140CC56DE4F33
:102BB00019821882C459D140CE56DE4F198218822C
:102BC000C259D1400E945002CC56DE4FE880F980B5
:102BD000C459D14097FD35C08A30910591F1F80173
:102BE00080831182FFEFEF1AFF0AB701CE018057F1
:102BF0009E4F0E945610882329F3C057DE4F28812C
:102C00003981C059D140CC56DE4F88819981C45951
:102C1000D140B801820F931F0E949E1ECC56DE4FFA
:102C2000F982E882C459D140CDCFCC56DE4F19820B
:102C30001882C459D14062E472E0C9010E949E1E0C
:102C4000C1CF80E092E0C05BDE4F99838883C0559E
:102C5000D140CE5ADE4F1882C255D140CD5ADE4FF8
:102C600019821882C355D14080E591E08C0F9D1FD9
:102C70000596CB59DE4F99838883C556D140C959F3
:102C8000DE4F1882C756D14024E0C859DE4F288352
:102C9000C856D1402FEFC759DE4F2883C956D140BF
:102CA000C259DE4F1882CE56D140C159DE4F28831B
:102CB000CF56D140C057DE4FC880D980C059D140CF
:102CC00060E072E00E94ED06CE5ADE4F1882C255D7
:102CD000D140C05BDE4FA880B980C055D140CD5AED
:102CE000DE4F88819981C355D140009769F0DC019E
:102CF0002D913C91CD5ADE4F39832883C355D14065
:102D0000B5010E94EB08EBCFC259DE4F1882CE56B8
:102D1000D14080E591E08C0F9D1FF8019183808365
:102D200013821282158214821682D086C782EC0C1E
:102D3000FD1CF286E1861486968785874AE0BC01F1
:102D4000665E7F4FC8010E9422117C01892B79F4B5
:102D5000D8011B968C91882351F0C259DE4F88818F
:102D6000CE56D14083FF03C093E0E92EF12CF80149
:102D700082819381009739F00190F081E02D60818C
:102D800071810E94EB08E114F10409F0FFC0E0E555
:102D9000F1E0EC0FFD1FD8011196FC93EE9389E84A
:102DA00092E013969C938E931297C8010E940D0C8B
:102DB000FC01892B51F084818630E9F048F484309D
:102DC00009F4BBC0853009F4BEC0D12CC12C15C09C
:102DD0008C3009F4A3C08E3009F4B9C08A30A9F749
:102DE000C080D180E280F380C114F0E8DF06E10406
:102DF000F10458F702C0C080D12CE0E5F1E0EC0FFF
:102E0000FD1FD8011196FC93EE938EE892E0139685
:102E10009C938E931297C8010E941E0C4B015C017B
:102E2000E0E5F1E0EC0FFD1FD8011196FC93EE9365
:102E30008AE992E013969C938E931297C8010E94A0
:102E40001E0C2B013C0166EB72E08EEF93E00E94BA
:102E50002F0BCC56DE4F48815981C459D140C05701
:102E6000DE4F68817981C059D1408EEF93E00E9496
:102E700000026DEC72E08EEF93E00E942F0B0D2CA0
:102E8000000CEE08FF084AE0C701B601F7FE0DC0CE
:102E90006DE28EEF93E00E94E00266277727CB0178
:102EA0006C197D098E099F094AE00E94390B6AED71
:102EB00072E08EEF93E00E942F0B42E0C501B40157
:102EC0000E947A0F6BEE72E08EEF93E00E942F0B60
:102ED00042E0C301B2010E947A0F63E472E08EEF18
:102EE00093E00E942F0BCE01805B9E4F0E945D09F4
:102EF000C057DE4F88819981C059D140009711F0A9
:102F00000E942B1D64EF71E080E090E00E94D003EE
:102F1000CE0180599E4F0E945D093CCDC080D1807A
:102F2000E280F380D701C6019058AF4FBF4F0097A2
:102F3000A140B10508F049CF60CF808191810E9406
:102F400097086C015ACF808191810496F8CFC08098
:102F5000D180E280F38020E030E040E057ECC70110
:102F6000B6010E94471C87FD30CF20E03EEF4FEFB7
:102F700056E4C701B6010E94F41918160CF425CFC7
:102F8000C701B6010E94111C6B0137CF69EF72E0D7
:102F90008EEF93E00E942F0BF701EE0FFF1FEE5E06
:102FA000FD4F608171818EEF93E00E947F0B9BCF7C
:102FB000CB010C948F1C1F920F920FB60F9211240D
:102FC0000BB60F922F933F934F935F936F937F9323
:102FD0008F939F93AF93BF93EF93FF9381E693E01B
:102FE0000E94BE02FF91EF91BF91AF919F918F918F
:102FF0007F916F915F914F913F912F910F900BBEF9
:103000000F900FBE0F901F9018951F920F920FB642
:103010000F9211240BB60F922F938F939F93EF93E0
:10302000FF93E0917103F09172038081E091770347
:10303000F091780382FD1DC0908180917A038F5FAB
:103040008F7320917B03821741F0E0917A03F0E0C7
:10305000EF59FC4F958F80937A03FF91EF919F91E9
:103060008F912F910F900BBE0F900FBE0F901F905E
:1030700018958081F2CF1F920F920FB60F921124F4
:103080000BB60F922F933F934F935F936F937F9362
:103090008F939F93AF93BF93EF93FF938EEF93E044
:1030A0000E94BE02FF91EF91BF91AF919F918F91CE
:1030B0007F916F915F914F913F912F910F900BBE38
:1030C0000F900FBE0F901F9018951F920F920FB682
:1030D0000F9211240BB60F922F938F939F93EF9320
:1030E000FF93E0910E04F0910F048081E0911404AD
:1030F000F091150482FD1DC09081809117048F5FAF
:103100008F7320911804821741F0E0911704F0E0CA
:10311000E250FC4F958F80931704FF91EF919F91A0
:103120008F912F910F900BBE0F900FBE0F901F909D
:1031300018958081F2CF1F920F920FB60F92112433
:103140002F933F938F939F93AF93BF9380915D0392
:1031500090915E03A0915F03B0916003309158039A
:1031600023E0230F2D3758F50196A11DB11D2093A3
:10317000580380935D0390935E03A0935F03B09325
:1031800060038091590390915A03A0915B03B09121
:103190005C030196A11DB11D8093590390935A03BE
:1031A000A0935B03B0935C03BF91AF919F918F910C
:1031B0003F912F910F900FBE0F901F90189526E80A
:1031C000230F0296A11DB11DD2CFE1E6F3E01382D9
:1031D000128248EE53E060E070E0448355836683DA
:1031E000778382E292E0918380832DEC30E0358713
:1031F00024872CEC30E03787268728EC30E0318BB1
:10320000208B29EC30E0338B228B2AEC30E0358B9D
:10321000248B2EEC30E0378B268B118E128E138E82
:10322000148EEEEFF3E0138212824483558366839B
:1032300077839183808385EC90E09587848784EC05
:1032400090E09787868780EC90E0918B808B81EC73
:1032500090E0938B828B82EC90E0958B848B86EC54
:1032600090E0978B868B118E128E138E148EABE9A5
:10327000B4E085E115968C9315978BE016968C93A8
:103280001697E3E7F2E0E4911796EC931797EDE2D7
:10329000F2E0E4911896EC93189740E85EE360E062
:1032A00070E01D964D935D936D937C9350970895B8
:1032B000789484B5826084BD84B5816084BD85B511
:1032C000826085BD85B5816085BD80916E0081601D
:1032D00080936E00109281008091810082608093C3
:1032E00081008091810081608093810080918000C5
:1032F0008160809380008091B10084608093B100F0
:103300008091B00081608093B000809191008260D4
:1033100080939100809191008160809391008091D1
:1033200090008160809390008091A10082608093E2
:10333000A1008091A10081608093A1008091A000F4
:1033400081608093A000809121018260809321019F
:103350008091210181608093210180912001816011
:103360008093200180917A00846080937A0080911C
:103370007A00826080937A0080917A0081608093E5
:103380007A0080917A00806880937A001092C10060
:1033900081E693E00E9486018EEF93E00E94860111
:1033A00062E08091A0040E947A032FB7F894809184
:1033B0005D0390915E03A0915F03B09160032FBF06
:1033C000805D9740A109B1098093A4049093A5045E
:1033D000A093A604B093A70487E38093AD040E9452
:1033E000E0130E944D03FBCF0E94361A08F481E0DF
:1033F0000895E89409C097FB3EF4909580957095E8
:1034000061957F4F8F4F9F4F9923A9F0F92F96E930
:10341000BB279395F695879577956795B795F111A5
:10342000F8CFFAF4BB0F11F460FF1BC06F5F7F4F42
:103430008F4F9F4F16C0882311F096E911C0772354
:1034400021F09EE8872F762F05C0662371F096E85D
:10345000862F70E060E02AF09A95660F771F881F2C
:10346000DAF7880F9695879597F90895990F0008D0
:10347000550FAA0BE0E8FEEF16161706E807F90746
:10348000C0F012161306E407F50798F0621B730BE1
:10349000840B950B39F40A2661F0232B242B252B62
:1034A00021F408950A2609F4A140A6958FEF811D05
:1034B000811D08950E946D1A0C94DE1A0E94D01A84
:1034C00038F00E94D71A20F0952311F00C94C71AF7
:1034D0000C94CD1A11240C94121B0E94EF1A70F355
:1034E000959FC1F3950F50E0551F629FF001729FA9
:1034F000BB27F00DB11D639FAA27F00DB11DAA1FB8
:10350000649F6627B00DA11D661F829F2227B00D04
:10351000A11D621F739FB00DA11D621F839FA00D8F
:10352000611D221F749F3327A00D611D231F849FDF
:10353000600D211D822F762F6A2F11249F57504036
:103540009AF0F1F088234AF0EE0FFF1FBB1F661FB1
:10355000771F881F91505040A9F79E3F510580F07A
:103560000C94C71A0C94121B5F3FE4F3983ED4F3FB
:10357000869577956795B795F795E7959F5FC1F71E
:10358000FE2B880F911D9695879597F9089597F9C9
:103590009F6780E870E060E008959FEF80EC0895F9
:1035A00000240A9416161706180609060895002422
:1035B0000A9412161306140605060895092E03949C
:1035C000000C11F4882352F0BB0F40F4BF2B11F410
:1035D00060FF04C06F5F7F4F8F4F9F4F089557FD6F
:1035E0009058440F551F59F05F3F71F04795880F71
:1035F00097FB991F61F09F3F79F087950895121608
:1036000013061406551FF2CF4695F1DF08C01616B3
:1036100017061806991FF1CF869571056105089464
:103620000895E894BB2766277727CB0197F908957B
:103630000E94231BA59F900DB49F900DA49F800D09
:10364000911D11240895A29FB001B39FC001A39FB3
:10365000700D811D1124911DB29F700D811D1124CB
:10366000911D08955058BB27AA270E944A1B0C940D
:10367000DE1A0E94D01A38F00E94D71A20F039F4CE
:103680009F3F19F426F40C94CD1A0EF4E095E7FB55
:103690000C94C71AE92F0E94EF1A58F3BA17620761
:1036A00073078407950720F079F4A6F50C94111B95
:1036B0000EF4E0950B2EBA2FA02D0B01B90190014D
:1036C0000C01CA01A0011124FF27591B99F0593F91
:1036D00050F4503E68F11A16F040A22F232F342FD9
:1036E0004427585FF3CF469537952795A795F04027
:1036F0005395C9F77EF41F16BA0B620B730B840B3C
:10370000BAF09150A1F0FF0FBB1F661F771F881FF3
:10371000C2F70EC0BA0F621F731F841F48F487954B
:1037200077956795B795F7959E3F08F0B0CF93953D
:10373000880F08F09927EE0F9795879508950E94B6
:10374000B31B0C94DE1A0E94D71A58F00E94D01AAC
:1037500040F029F45F3F29F00C94C71A51110C94E2
:10376000121B0C94CD1A0E94EF1A68F39923B1F33F
:10377000552391F3951B550BBB27AA276217730797
:10378000840738F09F5F5F4F220F331F441FAA1F2B
:10379000A9F335D00E2E3AF0E0E832D091505040E7
:1037A000E695001CCAF72BD0FE2F29D0660F771F95
:1037B000881FBB1F261737074807AB07B0E809F07B
:1037C000BB0B802DBF01FF2793585F4F3AF09E3F00
:1037D000510578F00C94C71A0C94121B5F3FE4F368
:1037E000983ED4F3869577956795B795F7959F5F43
:1037F000C9F7880F911D9695879597F90895E1E08F
:10380000660F771F881FBB1F621773078407BA07ED
:1038100020F0621B730B840BBA0BEE1F88F7E09548
:1038200008950E94181C6894B1110C94121B0895FD
:103830000E94F71A88F09F5798F0B92F9927B7512F
:10384000B0F0E1F0660F771F881F991F1AF0BA9544
:10385000C9F714C0B13091F00E94111BB1E0089576
:103860000C94111B672F782F8827B85F39F0B93F68
:10387000CCF3869577956795B395D9F73EF49095F7
:103880008095709561957F4F8F4F9F4F08950E944F
:10389000361A08F48FEF08950E94361A880B990B98
:1038A0000895AA1BBB1B51E107C0AA1FBB1FA61787
:1038B000B70710F0A61BB70B881F991F5A95A9F7D9
:1038C00080959095BC01CD010895A1E21A2EAA1B06
:1038D000BB1BFD010DC0AA1FBB1FEE1FFF1FA217C0
:1038E000B307E407F50720F0A21BB30BE40BF50BBD
:1038F000661F771F881F991F1A9469F76095709546
:10390000809590959B01AC01BD01CF010895EE0F0C
:10391000FF1F881F8BBF0790F691E02D19940F931E
:103920001F93CF93DF938230910510F482E090E0F3
:10393000E091B004F091B10430E020E0B0E0A0E00C
:10394000309799F42115310509F44AC0281B390B29
:1039500024303105D8F58A819B816115710589F183
:10396000FB0193838283FE0111C04081518102815A
:10397000138148175907E0F04817590799F4109731
:1039800061F012960C93129713961C933296CF0106
:10399000DF91CF911F910F9108950093B004109380
:1039A000B104F4CF2115310551F04217530738F017
:1039B000A901DB019A01BD01DF01F801C1CFEF01CF
:1039C000F9CF9093B1048093B004CDCFFE01E20F04
:1039D000F31F819391932250310939832883D7CFE4
:1039E0002091AE043091AF04232B41F420910402C6
:1039F000309105023093AF042093AE04209102026F
:103A0000309103022115310541F42DB73EB74091A5
:103A1000060250910702241B350BE091AE04F09191
:103A2000AF04E217F307A0F42E1B3F0B281739074A
:103A300078F0AC014E5F5F4F2417350748F04E0F0A
:103A40005F1F5093AF044093AE04819391939FCF37
:103A5000F0E0E0E09CCFCF93DF930097E9F0FC012A
:103A6000329713821282A091B004B091B104ED019B
:103A700030E020E01097A1F420813181820F931F64
:103A80002091AE043091AF042817390709F061C0C6
:103A9000F093AF04E093AE04DF91CF910895EA0173
:103AA000CE17DF07E8F54A815B819E01411551057C
:103AB000B1F7E901FB83EA8349915991C40FD51FFE
:103AC000EC17FD0761F4808191810296840F951FA8
:103AD000E90199838883828193819B838A83F0E0C3
:103AE000E0E012968D919C9113970097B9F52D9176
:103AF0003C911197CD010296820F931F2091AE0445
:103B00003091AF042817390739F6309751F51092E4
:103B1000B1041092B004B093AF04A093AE04BCCF34
:103B2000D383C28340815181840F951FC817D90761
:103B300061F44E5F5F4F88819981480F591F51830F
:103B400040838A819B81938382832115310509F00B
:103B5000B0CFF093B104E093B0049ECFFD01DC013F
:103B6000C0CF13821282D7CF4F925F926F927F9213
:103B70008F929F92AF92BF92CF92DF92EF92FF927D
:103B80000F931F93CF93DF938C01009799F4CB0190
:103B9000DF91CF911F910F91FF90EF90DF90CF9029
:103BA000BF90AF909F908F907F906F905F904F905D
:103BB0000C948F1CFC01E60FF71F9C012250310969
:103BC000E217F30708F4AEC0D901CD91DC9111974B
:103BD000C617D70720F1C530D10578F0CE0104977C
:103BE0008617970750F0C61BD70B2297C193D19326
:103BF0006D937C93CF010E942B1DC801DF91CF9163
:103C00001F910F91FF90EF90DF90CF90BF90AF90FA
:103C10009F908F907F906F905F904F9008955B0181
:103C2000AC1ABD0A4C018C0E9D1EA091B004B0913F
:103C3000B104512C412CF12CE12C109731F58091DD
:103C4000AE049091AF048815990509F05CC0461642
:103C5000570608F058C08091020290910302009725
:103C600041F48DB79EB74091060250910702841B24
:103C7000950BE817F90708F055C0F093AF04E093EF
:103C8000AE04F90171836083B8CF8D919C91119737
:103C900012966C90129713967C901397A815B905FD
:103CA00059F56C0142E0C40ED11CCA14DB0420F1AA
:103CB000AC014A195B09DA011296159780F062820D
:103CC000738251834083D9016D937C93E114F10495
:103CD00071F0D7011396FC93EE9312978ECF229634
:103CE0008C0F9D1FF90191838083F301EFCFF09337
:103CF000B104E093B00481CF4816590608F42C01B2
:103D00007D01D3019ACFCB010E948F1C7C010097CB
:103D100049F0AE01B8010E94951EC8010E942B1DFA
:103D200087016BCF10E000E068CFFB01DC0102C02F
:103D300001900D9241505040D8F70895FB01DC01ED
:0E3D400001900D920020E1F70895F894FFCF56
:103D4E000C020000B204800000000000D8178210A0
:103D5E007E101C031F032A033A034703500300007F
:103D6E000000E00200022D022D039E023C02900292
:103D7E002F2F272722225C5C6208660C6E0A720DBA
:103D8E007409000D0A005C7530303030006E756CB1
:103D9E006C00747275650066616C7365006E616EA1
:103DAE0000696E66006F7666004661696C65642018
:103DBE00746F20726561642066726F6D2044485482
:103DCE002073656E736F7221006E6F64650074658B
:103DDE006D70657261747572650068756D69646980
:103DEE007479004E6F646520312053656E74204ADD
:103DFE00534F4E3A20004E6F64652032204A534F87
:103E0E004E2052656365697665643A2000207C20F9
:103E1E004E6F64652049443A2000207C2054656D25
:103E2E0070657261747572653A2000207C20487549
:103E3E006D69646974793A20004661696C65642025
:103E4E00746F207061727365204A534F4E206672F4
:103E5E006F6D204E6F646520323A20004F6B004527
:103E6E006D707479496E70757400496E636F6D7004
:103E7E006C657465496E70757400496E76616C6917
:103E8E0064496E707574004E6F4D656D6F7279007A
:083E9E00546F6F44656570006C
:00000001FF
